:100000000C945E000C9486000C9486000C94860080
:100010000C9486000C9486000C9486000C94860048
:100020000C9486000C9486000C9486000C94790540
:100030000C9486000C9486000C9486000C94860028
:100040000C94D7040C9486000C9447050C9421055D
:100050000C9486000C9486000C9486000C94860008
:100060000C9486000C948600000000080002010039
:100070000003040700000000000000000000000072
:10008000250028002B0000000000240027002A0083
:10009000040404040404040402020202020203032E
:1000A0000303030301020408102040800102040836
:1000B000102001020408102035061D0911241FBE5E
:1000C000CFEFD8E0DEBFCDBF11E0A0E0B1E0E4EBC0
:1000D000F7E102C005900D92AA39B107D9F722E0E5
:1000E000AAE9B1E001C01D92AD38B207E1F710E016
:1000F000CDE5D0E004C02197FE010E94CC09CC35AB
:10010000D107C9F70E94C5060C94CD0B0C940000D2
:1001100090E0FC01EC55FF4F249180579F4FFC016C
:100120008491882399F090E0880F991FFC01EA5789
:10013000FF4FA591B491FC01E458FF4F8591949134
:100140008FB7F894EC91E22BEC938FBF08958F92C8
:100150009F92AF92BF92FF920F931F93CF93DF9323
:10016000F09068022BE02F1508F44CC020916A0231
:1001700008E512E0021B110927FD1395000F111F5E
:10018000000F111F20916902C8E8D0E0C21BD109FD
:1001900027FDD395CC0FDD1FCC0FDD1F4E010D2E9B
:1001A000000CAA08BB089801012E000C440B550B4B
:1001B000281939094A095B09DC010E94500924EB1E
:1001C00030E040E050E00E942609820E931EA41EFB
:1001D000B51E8C169D062CF0E801801691060CF4D5
:1001E000E4012297CC0FDD1F2FB7F8948F2D90E0FC
:1001F000FC01EE0FFF1FE80FF91FED5BFD4FD283EF
:10020000C1832FBFDF91CF911F910F91FF90BF90BE
:10021000AF909F908F90089590E0FC01E859FF4FB8
:100220002491FC01EC55FF4F3491FC01E057FF4F46
:10023000E491EE23C9F0222339F0233001F1A8F430
:10024000213019F1223029F1F0E0EE0FFF1FE458C0
:10025000FF4FA591B4918FB7F894EC91611126C02E
:1002600030953E233C938FBF08952730A9F0283066
:10027000C9F0243049F7809180008F7D03C08091C0
:1002800080008F7780938000DFCF84B58F7784BD27
:10029000DBCF84B58F7DFBCF8091B0008F778093CB
:1002A000B000D2CF8091B0008F7DF9CF3E2BDACF56
:1002B0003FB7F8948091A2019091A301A091A4016D
:1002C000B091A50126B5A89B05C02F3F19F0019656
:1002D000A11DB11D3FBFBA2FA92F982F8827BC01A0
:1002E000CD01620F711D811D911D42E0660F771FC8
:1002F000881F991F4A95D1F708958F929F92AF92C8
:10030000BF92CF92DF92EF92FF924B015C010E946D
:1003100058016B017C010E9458016C197D098E09FE
:100320009F09683E734081059105A8F321E0821A78
:100330009108A108B10888EEC80E83E0D81EE11C20
:10034000F11C81149104A104B10429F7FF90EF90EE
:10035000DF90CF90BF90AF909F908F900895AF9215
:10036000BF92CF92DF92EF92FF920F931F93CF93A2
:10037000DF936C017B018B01040F151FEB015E0104
:10038000AE18BF08C017D10759F06991D601ED9199
:10039000FC910190F081E02DC6010995892B79F738
:1003A000C501DF91CF911F910F91FF90EF90DF90EA
:1003B000CF90BF90AF900895FC01538D448D252FB1
:1003C00030E0842F90E0821B930B541710F0CF96EF
:1003D000089501970895FC01918D828D981761F021
:1003E000A28DAE0FBF2FB11D5D968C91928D9F5F38
:1003F0009F73928F90E008958FEF9FEF0895FC0117
:10040000918D828D981731F0828DE80FF11D858DC9
:1004100090E008958FEF9FEF0895FC01918D228D5C
:10042000892F90E0805C9F4F821B91098F739927E1
:10043000089586EA91E00E940D0221E0892B09F4DB
:1004400020E0822F089580E090E0892B29F00E941F
:10045000190281110C9400000895FC01A48DA80FCD
:10046000B92FB11DA35ABF4F2C91848D90E00196F6
:100470008F739927848FA689B7892C93A089B18916
:100480008C91837080648C93938D848D981306C0B7
:100490000288F389E02D80818F7D80830895EF921B
:1004A000FF920F931F93CF93DF93EC0181E0888F2E
:1004B0009B8D8C8D98131AC0E889F989808185FFFE
:1004C00015C09FB7F894EE89FF896083E889F989A0
:1004D00080818370806480839FBF81E090E0DF91A2
:1004E000CF911F910F91FF90EF900895F62E0B8DF5
:1004F00010E00F5F1F4F0F731127E02E8C8D8E11B0
:100500000CC00FB607FCFACFE889F989808185FF16
:10051000F5CFCE010E942D02F1CFEB8DEC0FFD2F18
:10052000F11DE35AFF4FF0829FB7F8940B8FEA89D1
:10053000FB8980818062CFCFCF93DF93EC01888DE0
:100540008823B9F0AA89BB89E889F9898C9185FD4E
:1005500003C0808186FD0DC00FB607FCF7CF8C91DC
:1005600085FFF2CF808185FFEDCFCE010E942D0265
:10057000E9CFDF91CF910895089590E080E008954C
:10058000CF93DF93EC0160E08E810E940C0161E06B
:100590008E810E940C0160E08E810E940C018BE82C
:1005A00091E00197F1F7DF91CF910895CF92DF921B
:1005B000EF92FF920F931F93CF93DF936C017C0117
:1005C00087E0E80EF11CD0E0C0E0062F10E0B80193
:1005D0000C2E02C0759567950A94E2F76170F701D9
:1005E00081917F010E940C012196C430D10579F7D9
:1005F000C601DF91CF911F910F91FF90EF90DF9097
:10060000CF900C94C002CF92DF92EF92FF920F93A3
:100610001F93CF93DF93EC01F62E642F8C810E9401
:100620000C018D818F3F19F060E00E940C010F2DAD
:1006300010E08F8584FF25C06E0187E0C80ED11CB5
:10064000F12CE12CB8010E2C02C0759567950A9427
:10065000E2F76170F60181916F010E940C01FFEFDA
:10066000EF1AFF0A88E0E816F10461F7CE01DF9186
:10067000CF911F910F91FF90EF90DF90CF900C944E
:10068000C002B80184E0759567958A95E1F7CE01BF
:100690000E94D6026F2DCE01DF91CF911F910F9155
:1006A000FF90EF90DF90CF900C94D60240E0682F3F
:1006B00081E792E00C940303CF93DF93823029F417
:1006C00090918002986090938002809384021092AF
:1006D000850280E48093860280E18093870280E532
:1006E00080938802809175020E9488008091760232
:1006F0008F3F11F00E948800809177020E9488004D
:10070000C1E7D2E09E01215732408091800284FDF2
:100710000AC084E090E02196281739073CF48E81C6
:100720000E948800EFCF88E090E0F5CF8BE39DE05A
:100730000197F1F760E0809175020E940C0160E082
:10074000809177020E940C01809176028F3F19F010
:1007500060E00E940C018091800284FD39C063E05A
:1007600081E792E00E94D602CBE4D6E4CE01019765
:10077000F1F763E081E792E00E94D6022197F1F75A
:1007800063E081E792E00E94D60283E592E0019760
:10079000F1F762E081E792E00E94D6028091800248
:1007A00080620E94560384E0809381028CE00E9464
:1007B000560381E00E9456038BE39FE10197F1F716
:1007C00082E08093820286E0DF91CF910C94560301
:1007D00080620E9456038BE496E40197F1F78091C2
:1007E000800280620E94560383E592E00197F1F750
:1007F0008091800280620E945603D0CF41E00E9427
:10080000030381E090E00895FB0101900020E9F7E7
:100810003197AF01461B570BDC01ED91FC91028033
:10082000F381E02D09948F929F92AF92BF920F9324
:100830001F93CF93DF93CDB7DEB7A1970FB6F89490
:10084000DEBF0FBECDBF19A2423008F44AE08E01D0
:100850000F5D1F4F842E912CB12CA12CA50194016A
:100860000E948F09E62FB901CA01EA3004F5E05D64
:10087000D801EE938D01232B242B252B79F790E0C3
:1008800080E0109729F0BD0181E792E00E94040406
:10089000A1960FB6F894DEBF0FBECDBFDF91CF910A
:1008A0001F910F91BF90AF909F908F900895E95C3A
:1008B000DFCFCF93DF93BC0186EA91E00E9404046E
:1008C000EC0164E271E086EA91E00E9404048C0F7E
:1008D0009D1FDF91CF910895CF93DF93EC01888125
:1008E0009981009711F00E946E0A198218821D8268
:1008F0001C821B821A82DF91CF9108950F931F9360
:10090000CF93DF93EC0188819981009759F02A8178
:100910003B812617370730F081E0DF91CF911F919F
:100920000F9108958B016F5F7F4F0E94F70A009728
:1009300059F0998388831B830A832C813D81232B63
:1009400059F7FC011082E8CF80E0E7CFEF92FF92E9
:100950000F931F93CF93DF93EC017B0119821882D1
:100960001B821A821D821C82FB0101900020E9F784
:1009700031978F01061B170BB8010E947E0481116D
:1009800009C0CE01DF91CF911F910F91FF90EF90A1
:100990000C946C041D830C83B70188819981DF91CD
:1009A000CF911F910F91FF90EF900C94C60B1F9267
:1009B0000F920FB60F9211242F933F938F939F9313
:1009C000AF93BF9380919E0190919F01A091A00150
:1009D000B091A10130919D0123E0230F2D3758F5EF
:1009E0000196A11DB11D20939D0180939E019093BE
:1009F0009F01A093A001B093A1018091A2019091C9
:100A0000A301A091A401B091A5010196A11DB11D62
:100A10008093A2019093A301A093A401B093A50198
:100A2000BF91AF919F918F913F912F910F900FBEEA
:100A30000F901F90189526E8230F0296A11DB11D57
:100A4000D2CF1F920F920FB60F9211242F933F9384
:100A50004F935F936F937F938F939F93AF93BF93C6
:100A6000EF93FF9386EA91E00E942D02FF91EF91B0
:100A7000BF91AF919F918F917F916F915F914F91B6
:100A80003F912F910F900FBE0F901F9018951F92BE
:100A90000F920FB60F9211242F938F939F93EF9382
:100AA000FF93E091B601F091B7018081E091BC0124
:100AB000F091BD0182FD1BC090818091BF018F5FCD
:100AC0008F732091C001821741F0E091BF01F0E0E7
:100AD000EA55FE4F958F8093BF01FF91EF919F9153
:100AE0008F912F910F900FBE0F901F9018958081BE
:100AF000F4CF1F920F920FB60F9211242F933F93B2
:100B00004F935F936F937F938F939F93AF93BF9315
:100B1000CF93DF93EF93FF9380919A01C091670287
:100B2000D0E087FF24C0109285001092840080914D
:100B30009A018F5F80939A0180919A01082E000C90
:100B4000990B8C179D0724F480919A018C30C4F185
:100B50008091840090918500049680349C4908F42B
:100B60007AC08091840090918500049676C080912F
:100B70009A01082E000C990B8C179D07C4F6E09182
:100B80009A018E2FEE0F990BFC01EE0FFF1FE80F5D
:100B9000F91FED5BFD4F808186FFC9CFE0919A017F
:100BA0008E2FEE0F990BFC01EE0FFF1FE80FF91FC0
:100BB000ED5BFD4F808160E08F730E940C01B7CF29
:100BC0002091840030918500E0919A018E2FEE0FE4
:100BD000990BFC01EE0FFF1FE80FF91FED5BFD4FB6
:100BE00081819281820F931F909389008093880066
:100BF000E0919A018E2FEE0F990BFC01EE0FFF1F73
:100C0000E80FF91FED5BFD4F808186FF11C0E09179
:100C10009A018E2FEE0F990BFC01EE0FFF1FE80FCC
:100C2000F91FED5BFD4F808161E08F730E940C0125
:100C3000FF91EF91DF91CF91BF91AF919F918F91F4
:100C40007F916F915F914F913F912F910F900FBEC8
:100C50000F901F90189580E49CE9909389008093F1
:100C600088008FEF80939A01E3CFCF931092A90170
:100C70001092A80188EE93E0A0E0B0E08093AA0172
:100C80009093AB01A093AC01B093AD018AE091E0E9
:100C90009093A7018093A60185EC90E09093B30117
:100CA0008093B20184EC90E09093B5018093B401FD
:100CB00080EC90E09093B7018093B60181EC90E0D6
:100CC0009093B9018093B80182EC90E09093BB01BE
:100CD0008093BA0186EC90E09093BD018093BC01B3
:100CE0001092BF011092C0011092C1011092C20176
:100CF00010927402109273028CE191E09093720250
:100D0000809371028CE080937502CFEFC0937602DE
:100D10008BE08093770285E08093780284E0809373
:100D2000790283E080937A0282E080937B021092C2
:100D30007C0210927D0210927E0210927F0210922D
:100D4000800281E00E945C0366E271E08BE692E043
:100D50000E94A604809167028C30A0F491E0980F65
:100D6000909367028093680290E0FC01EE0FFF1FF2
:100D7000E80FF91FED5BFD4F88EB9BE092838183C9
:100D8000CF910895C0936802FBCFCF93DF9300D03B
:100D900000D000D0CDB7DEB7789484B5826084BD32
:100DA00084B5816084BD85B5826085BD85B581606F
:100DB00085BD80916E00816080936E0010928100ED
:100DC00080918100826080938100809181008160A8
:100DD0008093810080918000816080938000809169
:100DE000B10084608093B1008091B00081608093F5
:100DF000B00080917A00846080937A0080917A00BC
:100E0000826080937A0080917A00816080937A007A
:100E100080917A00806880937A001092C100E091FE
:100E2000B601F091B70182E08083E091B201F091C8
:100E3000B3011082E091B401F091B5018FEC808391
:100E40001092BE01E091BA01F091BB0186E080836F
:100E5000E091B801F091B901808180618083E091D7
:100E6000B801F091B901808188608083E091B80178
:100E7000F091B901808180688083E091B801F091A0
:100E8000B90180818F7D8083809168028C3008F069
:100E900050C089E00E94880080916802282F30E0CD
:100EA000F901EE0FFF1FE20FF31FED5BFD4F908185
:100EB000907C996090831092690210926A022CE0F3
:100EC000622F0E94C009829FB001112430E020E00F
:100ED000AB01420F531FFA01EE0FFF1FE40FF51F86
:100EE000ED5BFD4F908196FD16C02F5F3F4F2C307C
:100EF000310571F781110FC01092800082E080935C
:100F000081001092850010928400B19A80916F0048
:100F1000826080936F00E09168028E2F90E0FC0168
:100F2000EE0FFF1FE80FF91FED5BFD4F808180641E
:100F3000808390E080E00E94A7008DE00E948800FE
:100F400087E291E00E94590482E00E945C036AE318
:100F500071E081E792E00E9404048BE3282E8FE188
:100F6000382E9CE3892E912CA12CB12C28EE422EF8
:100F700023E0522E612C712C86EA91E00E940D0232
:100F8000181619060CF029C186EA91E00E94EB01BF
:100F900000919B0110919C010F5F1F4F10939C01CA
:100FA00000939B0189831A82E0906F02F090700297
:100FB0008FEFE81AF80AB7018BE692E00E947E04F0
:100FC000882399F020916B0230916C0280916F021E
:100FD00090917002BE016F5F7F4F820F931F0E943E
:100FE000C60BF0927002E0926F020A30110521F6F2
:100FF00081E00E945603C1010197F1F7E1E0809181
:1010000084028111E0E0E195F0E0EF58FD4F848922
:1010100080680E94560369E471E0CE0101960E9447
:10102000A604E0906B02F0906C02E114F10409F464
:10103000ADC000916F021091700201151105B9F059
:101040008D819E81080F191FB801CE0101960E9463
:101050007E04882309F49AC029813A818D819E817A
:10106000B701820F931F0E94C60B1E830D834D8113
:101070005E8169817A8181E792E00E94AF01898176
:101080009A81009711F00E946E0A1091840280915B
:101090006F0290917002892B09F47FC060E571E0C6
:1010A00080916B0290916C020E94BD0B892B09F01C
:1010B00074C0123008F06FC01150E12FF0E0EF580B
:1010C000FD4F848980680E9456038BE591E00E9461
:1010D000590461E08DE00E940C0184EB90E00E94D5
:1010E000A70068EB7BE080E090E00E947D0190E04B
:1010F00080E00E94A70066E771E081E792E00E942D
:1011000004048FB7F894C0909E01D0909F01E090A6
:10111000A001F090A1018FBFC701B60120E83EEE0B
:1011200046E350E00E948F09CA01B9014AE00E94DB
:1011300013046DE771E081E792E00E940404C701A7
:10114000B60120E63AEE40E050E00E948F09CA0165
:10115000B901A50194010E948F094AE00E9413047D
:101160006DE771E081E792E00E940404C701B601D7
:10117000A30192010E948F09CA01B901A50194013E
:101180000E948F094AE00E941304F6CECE01019618
:101190000E946C046CCF11E090CF1230E0F411503B
:1011A000E12FF0E0EF58FD4F848980680E945603DC
:1011B0006CE871E081E792E00E9404048FE791E01F
:1011C0000E94590460E08DE00E940C0190E080E0F4
:1011D0000E94A700D1CE11E0E3CF10929C011092A3
:1011E0009B0170E060E08BE692E00E947E0481113A
:1011F00017C08BE692E00E946C0464EF71E080E01F
:1012000090E00E947D0180E090E0892B09F4B4CE4B
:101210000E941902882309F4AFCE0E940000ACCED0
:101220001092700210926F0266E271E080916B0280
:1012300090916C020E94C60BE0CF80916B0290915E
:101240006C02009711F00C946E0A0895052E97FB1E
:101250001EF400940E943D0957FD07D00E948F099B
:1012600007FC03D04EF40C943D0950954095309501
:1012700021953F4F4F4F5F4F089590958095709502
:1012800061957F4F8F4F9F4F08950E94B109A59F91
:10129000900DB49F900DA49F800D911D1124089571
:1012A000B7FF0C9445090E944509821B930B0895D2
:1012B0002F923F924F925F926F927F928F929F9266
:1012C000AF92BF92CF92DF92EF92FF920F931F9354
:1012D000CF93DF93CDB7DEB7CA1BDB0B0FB6F89405
:1012E000DEBF0FBECDBF09942A88398848885F8445
:1012F0006E847D848C849B84AA84B984C884DF80B6
:10130000EE80FD800C811B81AA81B981CE0FD11D99
:101310000FB6F894DEBF0FBECDBFED010895A1E278
:101320001A2EAA1BBB1BFD010DC0AA1FBB1FEE1F5F
:10133000FF1FA217B307E407F50720F0A21BB30BAA
:10134000E40BF50B661F771F881F991F1A9469F726
:1013500060957095809590959B01AC01BD01CF0182
:101360000895A29FB001B39FC001A39F700D811D7E
:101370001124911DB29F700D811D1124911D08959E
:10138000991B79E004C0991F961708F0961B881FD7
:101390007A95C9F780950895EE0FFF1F0590F49197
:1013A000E02D09940F931F93CF93DF938230910523
:1013B00010F482E090E0E0918B02F0918C0230E03A
:1013C00020E0B0E0A0E0309799F42115310509F450
:1013D0004AC0281B390B24303105D8F58A819B81FE
:1013E0006115710589F1FB0193838283FE0111C0B0
:1013F000408151810281138148175907E0F0481755
:10140000590799F4109761F012960C93129713965E
:101410001C933296CF01DF91CF911F910F910895C8
:1014200000938B0210938C02F4CF2115310551F0FB
:101430004217530738F0A901DB019A01BD01DF0112
:10144000F801C1CFEF01F9CF90938C0280938B020A
:10145000CDCFFE01E20FF31F81939193225031090A
:1014600039832883D7CF2091890230918A02232B98
:1014700041F4209102013091030130938A022093BC
:10148000890220910001309101012115310541F4BB
:101490002DB73EB74091040150910501241B350B37
:1014A000E0918902F0918A02E217F307A0F42E1B63
:1014B0003F0B2817390778F0AC014E5F5F4F2417B8
:1014C000350748F04E0F5F1F50938A024093890200
:1014D000819391939FCFF0E0E0E09CCFCF93DF9397
:1014E0000097E9F0FC01329713821282A0918B02DF
:1014F000B0918C02ED0130E020E01097A1F4208142
:101500003181820F931F2091890230918A0228171E
:10151000390709F061C0F0938A02E0938902DF91F4
:10152000CF910895EA01CE17DF07E8F54A815B8184
:101530009E0141155105B1F7E901FB83EA83499109
:101540005991C40FD51FEC17FD0761F4808191817B
:101550000296840F951FE901998388838281938184
:101560009B838A83F0E0E0E012968D919C91139723
:101570000097B9F52D913C911197CD010296820FFC
:10158000931F2091890230918A022817390739F672
:10159000309751F510928C0210928B02B0938A0210
:1015A000A0938902BCCFD383C28340815181840F31
:1015B000951FC817D90761F44E5F5F4F88819981E5
:1015C000480F591F518340838A819B819383828373
:1015D0002115310509F0B0CFF0938C02E0938B0216
:1015E0009ECFFD01DC01C0CF13821282D7CFB0E0C5
:1015F000A0E0EDEFFAE00C945A098C01009751F449
:10160000CB010E94D2098C01C801CDB7DEB7E0E161
:101610000C947609FC01E60FF71F9C01225031095A
:10162000E217F30708F49DC0D901CD91DC91119721
:10163000C617D70798F0C530D10530F3CE0104970F
:101640008617970708F3C61BD70B2297C193D19330
:101650006D937C93CF010E946E0AD6CF5B01AC1ACA
:10166000BD0A4C018C0E9D1EA0918B02B0918C0284
:10167000512C412CF12CE12C109731F580918902ED
:1016800090918A028815990509F05CC046165706A4
:1016900008F058C08091000190910101009741F439
:1016A0008DB79EB74091040150910501841B950BA5
:1016B000E817F90708F055C0F0938A02E093890211
:1016C000F90171836083A0CF8D919C91119712963F
:1016D0006C90129713967C901397A815B90559F53D
:1016E0006C0142E0C40ED11CCA14DB0420F1AC0131
:1016F0004A195B09DA011296159780F062827382AB
:1017000051834083D9016D937C93E114F10471F00E
:10171000D7011396FC93EE93129776CF22968C0FF7
:101720009D1FF90191838083F301EFCFF0938C0229
:10173000E0938B0269CF4816590608F42C017D010D
:10174000D3019ACFCB010E94D2097C01009749F0C6
:10175000AE01B8010E94B40BC8010E946E0A870155
:1017600053CF10E000E050CFFB01DC0102C001903C
:101770000D9241505040D8F70895FB01DC018D9146
:10178000019080190110D9F3990B0895FB01DC0138
:1017900001900D920020E1F7089510E0CDE5D0E032
:1017A00004C0FE010E94CC092196CE35D107C9F7AD
:0417B000F894FFCFDB
:1017B40000008D028000000000004F02AF01DC0138
:1017C4009C020D02EB01FF0100000000FE03AF01CB
:1017D400BD02BC020D0A005363616E20796F7572FD
:1017E400205246696420544147005363616E207956
:1017F4006F7572205246696400524649443A20008B
:10180400303130443432394242410056616C6964AB
:10181400205441472C2041636365737320416C6CF1
:101824006F776564210054696D653A20003A004978
:101834006E76616C6964205441472C204163636572
:0A18440073732044656E696564004B
:00000001FF
