:100000000C945E000C9486000C9486000C94860080
:100010000C9486000C9486000C9486000C94860048
:100020000C9486000C9486000C9486000C94A90312
:100030000C9486000C9486000C9486000C94860028
:100040000C9407030C9486000C9477030C945103D2
:100050000C9486000C9486000C9486000C94860008
:100060000C9486000C948600000000080002010039
:100070000003040700000000000000000000000072
:10008000250028002B0000000000240027002A0083
:10009000040404040404040402020202020203032E
:1000A0000303030301020408102040800102040836
:1000B00010200102040810206504870611241FBEC9
:1000C000CFEFD8E0DEBFCDBF11E0A0E0B1E0E8E8BF
:1000D000F2E102C005900D92A037B107D9F722E0F6
:1000E000A0E7B1E001C01D92AB34B207E1F710E028
:1000F000CDE5D0E004C02197FE010E943607CC3543
:10010000D107C9F70E94F4040C9437090C9400003D
:1001100090E0FC01EC55FF4F249180579F4FFC016C
:100120008491882399F090E0880F991FFC01EA5789
:10013000FF4FA591B491FC01E458FF4F8591949134
:100140008FB7F894EC91E22BEC938FBF08958F92C8
:100150009F92AF92BF92FF920F931F93CF93DF9323
:10016000F0903E022BE02F1508F44CC02091400285
:1001700008E512E0021B110927FD1395000F111F5E
:10018000000F111F20913F02C8E8D0E0C21BD10927
:1001900027FDD395CC0FDD1FCC0FDD1F4E010D2E9B
:1001A000000CAA08BB089801012E000C440B550B4B
:1001B000281939094A095B09DC010E94BA0624EBB7
:1001C00030E040E050E00E949006820E931EA41E94
:1001D000B51E8C169D062CF0E801801691060CF4D5
:1001E000E4012297CC0FDD1F2FB7F8948F2D90E0FC
:1001F000FC01EE0FFF1FE80FF91FE75EFD4FD283F2
:10020000C1832FBFDF91CF911F910F91FF90BF90BE
:10021000AF909F908F90089590E0FC01E859FF4FB8
:100220002491FC01EC55FF4F3491FC01E057FF4F46
:10023000E491EE23C9F0222339F0233001F1A8F430
:10024000213019F1223029F1F0E0EE0FFF1FE458C0
:10025000FF4FA591B4918FB7F894EC91611126C02E
:1002600030953E233C938FBF08952730A9F0283066
:10027000C9F0243049F7809180008F7D03C08091C0
:1002800080008F7780938000DFCF84B58F7784BD27
:10029000DBCF84B58F7DFBCF8091B0008F778093CB
:1002A000B000D2CF8091B0008F7DF9CF3E2BDACF56
:1002B0003FB7F8948091780190917901A0917A01EB
:1002C000B0917B0126B5A89B05C02F3F19F0019680
:1002D000A11DB11D3FBFBA2FA92F982F8827BC01A0
:1002E000CD01620F711D811D911D42E0660F771FC8
:1002F000881F991F4A95D1F708958F929F92AF92C8
:10030000BF92CF92DF92EF92FF924B015C010E946D
:1003100058016B017C010E9458016C197D098E09FE
:100320009F09683E734081059105A8F321E0821A78
:100330009108A108B10888EEC80E83E0D81EE11C20
:10034000F11C81149104A104B10429F7FF90EF90EE
:10035000DF90CF90BF90AF909F908F900895AF9215
:10036000BF92CF92DF92EF92FF920F931F93CF93A2
:10037000DF936C017B018B01040F151FEB015E0104
:10038000AE18BF08C017D10759F06991D601ED9199
:10039000FC910190F081E02DC6010995892B79F738
:1003A000C501DF91CF911F910F91FF90EF90DF90EA
:1003B000CF90BF90AF900895FC01538D448D252FB1
:1003C00030E0842F90E0821B930B541710F0CF96EF
:1003D000089501970895FC01918D828D981761F021
:1003E000A28DAE0FBF2FB11D5D968C91928D9F5F38
:1003F0009F73928F90E008958FEF9FEF0895FC0117
:10040000918D828D981731F0828DE80FF11D858DC9
:1004100090E008958FEF9FEF0895FC01918D228D5C
:10042000892F90E0805C9F4F821B91098F739927E1
:1004300008958CE791E00E940D0221E0892B09F4D8
:1004400020E0822F089580E090E0892B29F00E941F
:10045000190281110C9400000895FC01A48DA80FCD
:10046000B92FB11DA35ABF4F2C91848D90E00196F6
:100470008F739927848FA689B7892C93A089B18916
:100480008C91837080648C93938D848D981306C0B7
:100490000288F389E02D80818F7D80830895EF921B
:1004A000FF920F931F93CF93DF93EC0181E0888F2E
:1004B0009B8D8C8D98131AC0E889F989808185FFFE
:1004C00015C09FB7F894EE89FF896083E889F989A0
:1004D00080818370806480839FBF81E090E0DF91A2
:1004E000CF911F910F91FF90EF900895F62E0B8DF5
:1004F00010E00F5F1F4F0F731127E02E8C8D8E11B0
:100500000CC00FB607FCFACFE889F989808185FF16
:10051000F5CFCE010E942D02F1CFEB8DEC0FFD2F18
:10052000F11DE35AFF4FF0829FB7F8940B8FEA89D1
:10053000FB8980818062CFCFCF93DF93EC01888DE0
:100540008823B9F0AA89BB89E889F9898C9185FD4E
:1005500003C0808186FD0DC00FB607FCF7CF8C91DC
:1005600085FFF2CF808185FFEDCFCE010E942D0265
:10057000E9CFDF91CF910895CF93DF93FC010190F4
:100580000020E9F73197AF01481B590BBC018CE7FC
:1005900091E00E94AF01EC0142E050E068E171E0BF
:1005A0008CE791E00E94AF018C0F9D1FDF91CF91EE
:1005B0000895CF93DF93EC01809141029091420224
:1005C000009759F020914302309144022C173D07C7
:1005D00020F081E0DF91CF910895BE016F5F7F4FE2
:1005E0000E946108009789F0909342028093410233
:1005F000D0934402C09343022091450230914602B9
:10060000232B39F7FC011082E4CF80E0E3CF1F9267
:100610000F920FB60F9211242F933F938F939F93B6
:10062000AF93BF938091740190917501A091760171
:10063000B09177013091730123E0230F2D3758F5E6
:100640000196A11DB11D20937301809374019093B5
:100650007501A0937601B093770180917801909114
:100660007901A0917A01B0917B010196A11DB11D84
:100670008093780190937901A0937A01B0937B01E4
:10068000BF91AF919F918F913F912F910F900FBE8E
:100690000F901F90189526E8230F0296A11DB11DFB
:1006A000D2CF1F920F920FB60F9211242F933F9328
:1006B0004F935F936F937F938F939F93AF93BF936A
:1006C000EF93FF938CE791E00E942D02FF91EF9151
:1006D000BF91AF919F918F917F916F915F914F915A
:1006E0003F912F910F900FBE0F901F9018951F9262
:1006F0000F920FB60F9211242F938F939F93EF9326
:10070000FF93E0918C01F0918D018081E091920145
:10071000F091930182FD1BC09081809195018F5FC4
:100720008F7320919601821741F0E0919501F0E0DE
:10073000E458FE4F958F80939501FF91EF919F9123
:100740008F912F910F900FBE0F901F901895808161
:10075000F4CF1F920F920FB60F9211242F933F9355
:100760004F935F936F937F938F939F93AF93BF93B9
:10077000CF93DF93EF93FF9380917001C0913D027F
:10078000D0E087FF24C010928500109284008091F1
:1007900070018F5F8093700180917001082E000CB2
:1007A000990B8C179D0724F4809170018C30C4F153
:1007B0008091840090918500049680349C4908F4CF
:1007C0007AC08091840090918500049676C08091D3
:1007D0007001082E000C990B8C179D07C4F6E09150
:1007E00070018E2FEE0F990BFC01EE0FFF1FE80F2B
:1007F000F91FE75EFD4F808186FFC9CFE091700150
:100800008E2FEE0F990BFC01EE0FFF1FE80FF91F63
:10081000E75EFD4F808160E08F730E940C01B7CFCF
:100820002091840030918500E09170018E2FEE0FB1
:10083000990BFC01EE0FFF1FE80FF91FE75EFD4F5C
:1008400081819281820F931F909389008093880009
:10085000E09170018E2FEE0F990BFC01EE0FFF1F40
:10086000E80FF91FE75EFD4F808186FF11C0E09120
:1008700070018E2FEE0F990BFC01EE0FFF1FE80F9A
:10088000F91FE75EFD4F808161E08F730E940C01CC
:10089000FF91EF91DF91CF91BF91AF919F918F9198
:1008A0007F916F915F914F913F912F910F900FBE6C
:1008B0000F901F90189580E49CE990938900809395
:1008C00088008FEF80937001E3CF10927F01109228
:1008D0007E0188EE93E0A0E0B0E0809380019093E9
:1008E0008101A0938201B09383018AE091E090930B
:1008F0007D0180937C0185EC90E090938901809349
:10090000880184EC90E090938B0180938A0180ECC5
:1009100090E090938D0180938C0181EC90E0909316
:100920008F0180938E0182EC90E0909391018093EF
:10093000900186EC90E09093930180939201109245
:1009400095011092960110929701109298011092C1
:1009500042021092410210924402109243021092FD
:1009600046021092450290E080E00E94D902209158
:10097000410230914202811129C02115310519F03F
:10098000C9010E94D80710924202109241021092AF
:100990004602109245021092440210924302809146
:1009A0003D028C30E8F491E0980F90933D028093E3
:1009B0003E0290E0FC01EE0FFF1FE80FF91FE75E1B
:1009C000FD4F88EB9BE0928381830895109246024D
:1009D000109245026AE171E0C9010E943009DFCF3F
:1009E0008FEF80933E020895CF93DF9300D0CDB771
:1009F000DEB7789484B5826084BD84B5816084BD9F
:100A000085B5826085BD85B5816085BD80916E00AC
:100A1000816080936E0010928100809181008260DD
:100A2000809381008091810081608093810080911A
:100A300080008160809380008091B1008460809309
:100A4000B1008091B00081608093B00080917A0005
:100A5000846080937A0080917A00826080937A002B
:100A600080917A00816080937A0080917A0080681A
:100A700080937A001092C100E0918C01F0918D0179
:100A800082E08083E0918801F09189011082E091F9
:100A90008A01F0918B018FEC808310929401E09198
:100AA0009001F091910186E08083E0918E01F091B8
:100AB0008F01808180618083E0918E01F0918F01B0
:100AC000808188608083E0918E01F0918F01808128
:100AD00080688083E0918E01F0918F0180818F7D0D
:100AE000808380913E028C3008F050C089E00E94E3
:100AF000880080913E02282F30E0F901EE0FFF1FA1
:100B0000E20FF31FE75EFD4F9081907C9960908328
:100B100010923F02109240022CE0622F0E942A079E
:100B2000829FB001112430E020E0AB01420F531F3F
:100B3000FA01EE0FFF1FE40FF51FE75EFD4F9081F6
:100B400096FD16C02F5F3F4F2C30310571F7811194
:100B50000FC01092800082E0809381001092850087
:100B600010928400B19A80916F00826080936F0030
:100B7000E0913E028E2F90E0FC01EE0FFF1FE80F88
:100B8000F91FE75EFD4F80818064808390E080E004
:100B90000E94A7008DE00E9488008BE191E00E94F6
:100BA000BC0280E0C82E80E0D82E8CE791E00E9445
:100BB0000D02181619060CF06EC08CE791E00E9429
:100BC000EB0100917101109172010F5F1F4F1093A3
:100BD00072010093710189831A82E0904502F090BE
:100BE00046028FEFE81AF80AC7010E94D90288234B
:100BF00099F02091410230914202809145029091FA
:100C00004602BE016F5F7F4F820F931F0E94300923
:100C1000F0924602E09245020A30110531F6409109
:100C200045025091460260914102709142028CE768
:100C300091E00E94AF018091450290914602892B7C
:100C400009F16EE271E080914102909142020E94AE
:100C50002709892BB9F489E391E00E94BC0261E085
:100C60008DE00E940C0184EB90E00E94A70068EBED
:100C70007BE080E090E00E947D0190E080E00E94B7
:100C8000A70093CF84E591E00E94BC0260E08DE074
:100C90000E940C01F2CF109272011092710190E04B
:100CA00080E00E94D90220914102309142028111DC
:100CB00024C02115310519F0C9010E94D8071092EE
:100CC0004202109241021092460210924502109286
:100CD00044021092430264EF71E080E090E00E94D1
:100CE0007D01C114D10409F460CF0E941902882348
:100CF00009F45BCF0E94000058CF10924602109278
:100D000045026AE171E0C9010E943009E4CF809197
:100D1000410290914202009711F00C94D807089577
:100D2000052E97FB1EF400940E94A70657FD07D0DE
:100D30000E94F90607FC03D04EF40C94A7065095C8
:100D40004095309521953F4F4F4F5F4F08959095B7
:100D50008095709561957F4F8F4F9F4F08950E94AA
:100D60001B07A59F900DB49F900DA49F800D911D12
:100D700011240895B7FF0C94AF060E94AF06821BA2
:100D8000930B08952F923F924F925F926F927F92B2
:100D90008F929F92AF92BF92CF92DF92EF92FF928B
:100DA0000F931F93CF93DF93CDB7DEB7CA1BDB0B37
:100DB0000FB6F894DEBF0FBECDBF09942A883988DC
:100DC00048885F846E847D848C849B84AA84B984E3
:100DD000C884DF80EE80FD800C811B81AA81B981EF
:100DE000CE0FD11D0FB6F894DEBF0FBECDBFED0103
:100DF0000895A1E21A2EAA1BBB1BFD010DC0AA1F5C
:100E0000BB1FEE1FFF1FA217B307E407F50720F073
:100E1000A21BB30BE40BF50B661F771F881F991FEE
:100E20001A9469F760957095809590959B01AC0137
:100E3000BD01CF010895A29FB001B39FC001A39F40
:100E4000700D811D1124911DB29F700D811D112403
:100E5000911D0895991B79E004C0991F961708F019
:100E6000961B881F7A95C9F780950895EE0FFF1F8E
:100E70000590F491E02D09940F931F93CF93DF9386
:100E80008230910510F482E090E0E0914902F09107
:100E90004A0230E020E0B0E0A0E0309799F421155C
:100EA000310509F44AC0281B390B24303105D8F527
:100EB0008A819B816115710589F1FB01938382838E
:100EC000FE0111C0408151810281138148175907E9
:100ED000E0F04817590799F4109761F012960C93B7
:100EE000129713961C933296CF01DF91CF911F91E9
:100EF0000F9108950093490210934A02F4CF2115EF
:100F0000310551F04217530738F0A901DB019A016E
:100F1000BD01DF01F801C1CFEF01F9CF90934A0283
:100F200080934902CDCFFE01E20FF31F819391938D
:100F30002250310939832883D7CF2091470230913D
:100F40004802232B41F42091020130910301309398
:100F500048022093470220910001309101012115A0
:100F6000310541F42DB73EB7409104015091050180
:100F7000241B350BE0914702F0914802E217F3077A
:100F8000A0F42E1B3F0B2817390778F0AC014E5FF9
:100F90005F4F2417350748F04E0F5F1F50934802EC
:100FA00040934702819391939FCFF0E0E0E09CCF84
:100FB000CF93DF930097E9F0FC01329713821282FE
:100FC000A0914902B0914A02ED0130E020E0109773
:100FD000A1F420813181820F931F2091470230912B
:100FE00048022817390709F061C0F0934802E093DE
:100FF0004702DF91CF910895EA01CE17DF07E8F5A8
:101000004A815B819E0141155105B1F7E901FB83DE
:10101000EA8349915991C40FD51FEC17FD0761F47C
:10102000808191810296840F951FE90199838883BD
:10103000828193819B838A83F0E0E0E012968D9118
:101040009C9113970097B9F52D913C911197CD0183
:101050000296820F931F2091470230914802281771
:10106000390739F6309751F510924A021092490229
:10107000B0934802A0934702BCCFD383C283408180
:101080005181840F951FC817D90761F44E5F5F4FD8
:1010900088819981480F591F518340838A819B81A0
:1010A000938382832115310509F0B0CFF0934A0272
:1010B000E09349029ECFFD01DC01C0CF1382128272
:1010C000D7CFB0E0A0E0E7E6F8E00C94C4068C01CE
:1010D000009751F4CB010E943C078C01C801CDB7A9
:1010E000DEB7E0E10C94E006FC01E60FF71F9C017F
:1010F00022503109E217F30708F49DC0D901CD91C0
:10110000DC911197C617D70798F0C530D10530F399
:10111000CE0104978617970708F3C61BD70B2297B3
:10112000C193D1936D937C93CF010E94D807D6CF02
:101130005B01AC1ABD0A4C018C0E9D1EA0914902A8
:10114000B0914A02512C412CF12CE12C109731F531
:1011500080914702909148028815990509F05CC07A
:101160004616570608F058C0809100019091010181
:10117000009741F48DB79EB740910401509105014D
:10118000841B950BE817F90708F055C0F093480247
:10119000E0934702F90171836083A0CF8D919C9108
:1011A000119712966C90129713967C901397A8152E
:1011B000B90559F56C0142E0C40ED11CCA14DB0418
:1011C00020F1AC014A195B09DA011296159780F0FB
:1011D0006282738251834083D9016D937C93E114C1
:1011E000F10471F0D7011396FC93EE93129776CF2A
:1011F00022968C0F9D1FF90191838083F301EFCF1D
:10120000F0934A02E093490269CF4816590608F460
:101210002C017D01D3019ACFCB010E943C077C01B8
:10122000009749F0AE01B8010E941E09C8010E9452
:10123000D807870153CF10E000E050CFFB01DC015D
:1012400002C001900D9241505040D8F70895FB0123
:10125000DC018D91019080190110D9F3990B08954B
:10126000FB01DC0101900D920020E1F7089510E0F0
:10127000CDE5D0E004C0FE010E9436072196CE35B0
:08128000D107C9F7F894FFCF74
:1012880000004B028000000000004F02AF01DC01AB
:101298009C020D02EB01FF010D0A005363616E20F1
:1012A800796F757220524669642054414700303185
:1012B80030443432394242410056616C69642054EA
:1012C80041472C2041636365737320416C6C6F77D1
:1012D80065642100496E76616C6964205441472C2D
:1012E800204163636573732044656E69656400001B
:00000001FF
