:020000040000FA
:100000000C945E000C9486000C9486000C94860080
:100010000C9486000C9486000C9486000C94860048
:100020000C9486000C9486000C9486000C94BB05FE
:100030000C9486000C9486000C9486000C94860028
:100040000C9419050C9486000C9489050C94630596
:100050000C9486000C9486000C9486000C94860008
:100060000C9486000C948600000000080002010039
:100070000003040700000000000000000000000072
:10008000250028002B0000000000240027002A0083
:10009000040404040404040402020202020203032E
:1000A0000303030301020408102040800102040836
:1000B00010200102040810207706AD0911241FBE8C
:1000C000CFEFD8E0DEBFCDBF11E0A0E0B1E0EAECB9
:1000D000F8E102C005900D92AA39B107D9F722E0E4
:1000E000AAE9B1E001C01D92AB38B207E1F710E018
:1000F000CDE5D0E004C02197FE010E94570ACC351F
:10010000D107C9F70E9413070C94580C0C940000F7
:1001100090E0FC01EC55FF4F249180579F4FFC016C
:100120008491882399F090E0880F991FFC01EA5789
:10013000FF4FA591B491FC01E458FF4F8591949134
:100140008FB7F894EC91E22BEC938FBF08958F92C8
:100150009F92AF92BF92FF920F931F93CF93DF9323
:10016000F09066022BE02F1508F44CC02091680235
:1001700008E512E0021B110927FD1395000F111F5E
:10018000000F111F20916702C8E8D0E0C21BD109FF
:1001900027FDD395CC0FDD1FCC0FDD1F4E010D2E9B
:1001A000000CAA08BB089801012E000C440B550B4B
:1001B000281939094A095B09DC010E94DB0924EB93
:1001C00030E040E050E00E94B109820E931EA41E70
:1001D000B51E8C169D062CF0E801801691060CF4D5
:1001E000E4012297CC0FDD1F2FB7F8948F2D90E0FC
:1001F000FC01EE0FFF1FE80FF91FEF5BFD4FD283ED
:10020000C1832FBFDF91CF911F910F91FF90BF90BE
:10021000AF909F908F90089590E0FC01E859FF4FB8
:100220002491FC01EC55FF4F3491FC01E057FF4F46
:10023000E491EE23C9F0222339F0233001F1A8F430
:10024000213019F1223029F1F0E0EE0FFF1FE458C0
:10025000FF4FA591B4918FB7F894EC91611126C02E
:1002600030953E233C938FBF08952730A9F0283066
:10027000C9F0243049F7809180008F7D03C08091C0
:1002800080008F7780938000DFCF84B58F7784BD27
:10029000DBCF84B58F7DFBCF8091B0008F778093CB
:1002A000B000D2CF8091B0008F7DF9CF3E2BDACF56
:1002B0003FB7F89480919C0190919D01A0919E017F
:1002C000B0919F0126B5A89B05C02F3F19F001965C
:1002D000A11DB11D3FBFBA2FA92F982F8827BC01A0
:1002E000CD01620F711D811D911D42E0660F771FC8
:1002F000881F991F4A95D1F708958F929F92AF92C8
:10030000BF92CF92DF92EF92FF924B015C010E946D
:1003100058016B017C010E9458016C197D098E09FE
:100320009F09683E734081059105A8F321E0821A78
:100330009108A108B10888EEC80E83E0D81EE11C20
:10034000F11C81149104A104B10429F7FF90EF90EE
:10035000DF90CF90BF90AF909F908F9008950895B9
:10036000AF92BF92CF92DF92EF92FF920F931F93C3
:10037000CF93DF936C017B018B01040F151FEB0101
:100380005E01AE18BF08C017D10759F06991D601B8
:10039000ED91FC910190F081E02DC6010995892B2A
:1003A00079F7C501DF91CF911F910F91FF90EF90E9
:1003B000DF90CF90BF90AF900895FC01538D448D96
:1003C000252F30E0842F90E0821B930B541710F000
:1003D000CF96089501970895FC01918D828D98170D
:1003E00061F0A28DAE0FBF2FB11D5D968C91928DE5
:1003F0009F5F9F73928F90E008958FEF9FEF089516
:100400002FB7F8948091A0019091A101A091A20131
:10041000B091A3012FBF8093AC019093AD01A09345
:10042000AE01B093AF0184EA91E00E94EC0197FF26
:1004300026C02FB7F8948091A0019091A101A091BE
:10044000A201B091A3012FBF4091AC015091AD0129
:100450006091AE017091AF01841B950BA60BB70B99
:100460004091A8015091A9016091AA017091AB013E
:1004700084179507A607B707B0F28FEF9FEF08958F
:10048000FC01918D828D981731F0828DE80FF11D5E
:10049000858D90E008958FEF9FEF0895FC01918D79
:1004A000228D892F90E0805C9F4F821B91098F7372
:1004B0009927089584EA91E00E944E0221E0892B59
:1004C00009F420E0822F089580E090E0892B29F044
:1004D0000E945A0281110C9400000895FC01A48D21
:1004E000A80FB92FB11DA35ABF4F2C91848D90E056
:1004F00001968F739927848FA689B7892C93A08939
:10050000B1898C91837080648C93938D848D9813C2
:1005100006C00288F389E02D80818F7D8083089555
:10052000EF92FF920F931F93CF93DF93EC0181E043
:10053000888F9B8D8C8D98131AC0E889F9898081EA
:1005400085FF15C09FB7F894EE89FF896083E8891D
:10055000F98980818370806480839FBF81E090E00F
:10056000DF91CF911F910F91FF90EF900895F62E9C
:100570000B8D10E00F5F1F4F0F731127E02E8C8D36
:100580008E110CC00FB607FCFACFE889F98980817B
:1005900085FFF5CFCE010E946E02F1CFEB8DEC0FFF
:1005A000FD2FF11DE35AFF4FF0829FB7F8940B8F98
:1005B000EA89FB8980818062CFCFCF93DF93EC0102
:1005C000888D8823B9F0AA89BB89E889F9898C913B
:1005D00085FD03C0808186FD0DC00FB607FCF7CFF7
:1005E0008C9185FFF2CF808185FFEDCFCE010E94F7
:1005F0006E02E9CFDF91CF91089590E080E00895F9
:10060000CF93DF93EC0160E08E810E940C0161E0EA
:100610008E810E940C0160E08E810E940C018BE8AB
:1006200091E00197F1F7DF91CF910895CF92DF929A
:10063000EF92FF920F931F93CF93DF936C017C0196
:1006400087E0E80EF11CD0E0C0E0062F10E0B80112
:100650000C2E02C0759567950A94E2F76170F70158
:1006600081917F010E940C012196C430D10579F758
:10067000C601DF91CF911F910F91FF90EF90DF9016
:10068000CF900C940003CF92DF92EF92FF920F93E2
:100690001F93CF93DF93EC01F62E642F8C810E9481
:1006A0000C018D818F3F19F060E00E940C010F2D2D
:1006B00010E08F8584FF25C06E0187E0C80ED11C35
:1006C000F12CE12CB8010E2C02C0759567950A94A7
:1006D000E2F76170F60181916F010E940C01FFEF5A
:1006E000EF1AFF0A88E0E816F10461F7CE01DF9106
:1006F000CF911F910F91FF90EF90DF90CF900C94CE
:100700000003B80184E0759567958A95E1F7CE01FD
:100710000E9416036F2DCE01DF91CF911F910F9193
:10072000FF90EF90DF90CF900C94160340E0682F7D
:100730008FE692E00C944303CF93DF93823029F449
:1007400090917E02986090937E0280938202109234
:10075000830280E48093840280E18093850280E5B7
:1007600080938602809173020E94880080917402B7
:100770008F3F11F00E948800809175020E948800CE
:10078000CFE6D2E09E012F56324080917E0284FD5A
:100790000AC084E090E02196281739073CF48E8146
:1007A0000E948800EFCF88E090E0F5CF8BE39DE0DA
:1007B0000197F1F760E0809173020E940C0160E004
:1007C000809175020E940C01809174028F3F19F094
:1007D00060E00E940C0180917E0284FD39C063E0DC
:1007E0008FE692E00E941603CBE4D6E4CE01019797
:1007F000F1F763E08FE692E00E9416032197F1F78C
:1008000063E08FE692E00E94160383E592E0019791
:10081000F1F762E08FE692E00E94160380917E027B
:1008200080620E94960384E080937F028CE00E94A5
:10083000960381E00E9496038BE39FE10197F1F715
:1008400082E08093800286E0DF91CF910C94960342
:1008500080620E9496038BE496E40197F1F7809101
:100860007E0280620E94960383E592E00197F1F791
:1008700080917E0280620E949603D0CF41E00E9468
:10088000430381E090E00895FB0101900020E9F727
:100890003197AF01461B570BDC01ED91FC910280B3
:1008A000F381E02D09948F929F92AF92BF920F93A4
:1008B0001F93CF93DF93CDB7DEB7A1970FB6F89410
:1008C000DEBF0FBECDBF19A2423008F44AE08E0150
:1008D0000F5D1F4F842E912CB12CA12CA5019401EA
:1008E0000E941A0AE62FB901CA01EA3004F5E05D58
:1008F000D801EE938D01232B242B252B79F790E043
:1009000080E0109729F0BD018FE692E00E94440438
:10091000A1960FB6F894DEBF0FBECDBFDF91CF9189
:100920001F910F91BF90AF909F908F900895E95CB9
:10093000DFCFCF93DF93BC0184EA91E00E944404AF
:10094000EC0164E271E084EA91E00E9444048C0FBF
:100950009D1FDF91CF910895CF93DF93EC018881A4
:100960009981009711F00E94F90A198218821D825C
:100970001C821B821A82DF91CF910895FC01808135
:100980009181009711F00C94F90A08950F931F9329
:10099000CF93DF93EC0188819981009759F02A81E8
:1009A0003B812617370730F081E0DF91CF911F910F
:1009B0000F9108958B016F5F7F4F0E94820B00970C
:1009C00059F0998388831B830A832C813D81232BD3
:1009D00059F7FC011082E8CF80E0E7CFEF92FF9259
:1009E0000F931F93CF93DF938C017B01EB01099051
:1009F0000020E9F72197C61BD70BBE010E94C60451
:100A0000811109C0C801DF91CF911F910F91FF9013
:100A1000EF900C94AC04F801D583C483B7018081B6
:100A20009181DF91CF911F910F91FF90EF900C94E6
:100A3000510C1F920F920FB60F9211242F933F93D8
:100A40008F939F93AF93BF938091A0019091A10149
:100A5000A091A201B091A30130919B0123E0230F4B
:100A60002D3758F50196A11DB11D20939B01809350
:100A7000A0019093A101A093A201B093A301809142
:100A80009C0190919D01A0919E01B0919F010196C2
:100A9000A11DB11D80939C0190939D01A0939E0187
:100AA000B0939F01BF91AF919F918F913F912F91F3
:100AB0000F900FBE0F901F90189526E8230F0296F7
:100AC000A11DB11DD2CF1F920F920FB60F9211240C
:100AD0002F933F934F935F936F937F938F939F9346
:100AE000AF93BF93EF93FF9384EA91E00E946E026D
:100AF000FF91EF91BF91AF919F918F917F916F91F6
:100B00005F914F913F912F910F900FBE0F901F90CB
:100B100018951F920F920FB60F9211242F938F9357
:100B20009F93EF93FF93E091B401F091B501808121
:100B3000E091BA01F091BB0182FD1BC090818091D0
:100B4000BD018F5F8F732091BE01821741F0E0914C
:100B5000BD01F0E0EC55FE4F958F8093BD01FF91F4
:100B6000EF919F918F912F910F900FBE0F901F903B
:100B700018958081F4CF1F920F920FB60F92112417
:100B80002F933F934F935F936F937F938F939F9395
:100B9000AF93BF93CF93DF93EF93FF9380919A012D
:100BA000C0916502D0E087FF24C0109285001092AA
:100BB000840080919A018F5F80939A0180919A01BD
:100BC000082E000C990B8C179D0724F480919A0134
:100BD0008C30C4F18091840090918500049680341B
:100BE0009C4908F47AC08091840090918500049615
:100BF00076C080919A01082E000C990B8C179D07E6
:100C0000C4F6E0919A018E2FEE0F990BFC01EE0FC6
:100C1000FF1FE80FF91FEF5BFD4F808186FFC9CFF3
:100C2000E0919A018E2FEE0F990BFC01EE0FFF1F42
:100C3000E80FF91FEF5BFD4F808160E08F730E942A
:100C40000C01B7CF2091840030918500E0919A018A
:100C50008E2FEE0F990BFC01EE0FFF1FE80FF91F0F
:100C6000EF5BFD4F81819281820F931F90938900EA
:100C700080938800E0919A018E2FEE0F990BFC0172
:100C8000EE0FFF1FE80FF91FEF5BFD4F808186FF1E
:100C900011C0E0919A018E2FEE0F990BFC01EE0F1F
:100CA000FF1FE80FF91FEF5BFD4F808161E08F733D
:100CB0000E940C01FF91EF91DF91CF91BF91AF9115
:100CC0009F918F917F916F915F914F913F912F9164
:100CD0000F900FBE0F901F90189580E49CE99093A1
:100CE0008900809388008FEF80939A01E3CFCF93A0
:100CF0001092A7011092A60188EE93E0A0E0B0E068
:100D00008093A8019093A901A093AA01B093AB018D
:100D10008AE091E09093A5018093A40185EC90E096
:100D20009093B1018093B00184EC90E09093B30173
:100D30008093B20180EC90E09093B5018093B40170
:100D400081EC90E09093B7018093B60182EC90E043
:100D50009093B9018093B80186EC90E09093BB0129
:100D60008093BA011092BD011092BE011092BF0192
:100D70001092C00110927202109271028CE191E007
:100D80009093700280936F0287E080937302CFEF9D
:100D9000C093740286E08093750285E080937602AA
:100DA00084E08093770283E08093780282E08093EE
:100DB000790210927A0210927B0210927C021092B9
:100DC0007D0210927E0281E00E949C0310926A02D2
:100DD0001092690210926C0210926B0210926E02D5
:100DE00010926D0266E271E089E692E00E94EE04E4
:100DF000809165028C30A0F491E0980F9093650289
:100E00008093660290E0FC01EE0FFF1FE80FF91FD0
:100E1000EF5BFD4F88EB9BE092838183CF91089538
:100E2000C0936602FBCFCF93DF93CDB7DEB7289791
:100E30000FB6F894DEBF0FBECDBF789484B5826044
:100E400084BD84B5816084BD85B5826085BD85B56E
:100E5000816085BD80916E00816080936E001092EC
:100E60008100809181008260809381008091810067
:100E700081608093810080918000816080938000F8
:100E80008091B10084608093B1008091B000816056
:100E90008093B00080917A00846080937A00809182
:100EA0007A00826080937A0080917A0081608093DA
:100EB0007A0080917A00806880937A001092C10055
:100EC000E091B401F091B50182E08083E091B0013E
:100ED000F091B1011082E091B201F091B3018FEC79
:100EE00080831092BC01E091B801F091B90186E0D5
:100EF0008083E091B601F091B701808180618083A9
:100F0000E091B601F091B701808188608083E09123
:100F1000B601F091B701808180688083E091B601CD
:100F2000F091B70180818F7D8083809166028C3043
:100F300008F050C089E00E94880080916602282F46
:100F400030E0F901EE0FFF1FE20FF31FEF5BFD4FE3
:100F50009081907C99609083109267021092680251
:100F60002CE0622F0E944B0A829FB001112430E0D6
:100F700020E0AB01420F531FFA01EE0FFF1FE40FF9
:100F8000F51FEF5BFD4F908196FD16C02F5F3F4F21
:100F90002C30310571F781110FC01092800082E072
:100FA000809381001092850010928400B19A809104
:100FB0006F00826080936F00E09166028E2F90E058
:100FC000FC01EE0FFF1FE80FF91FEF5BFD4F808163
:100FD0008064808390E080E00E94A70088E00E9407
:100FE000880087E291E00E94990482E00E949C03BD
:100FF0006AE371E08FE692E00E9444049CE3C92E0C
:10100000D12CE12CF12C28EE422E23E0522E612C23
:10101000712C8BE3282E8FE1382E84EA91E00E9418
:101020004E02181619060CF06CC160E088E00E94B0
:101030000C011A8219821C821B821E821D8266E2AA
:1010400071E0CE0101960E94EE040E94000297FD1D
:101050001BC08F8318860D811E810F5F1F4FB80143
:10106000CE0101960E94C604882379F329813A8132
:101070008D819E81BE01695F7F4F820F931F0E9409
:10108000510C1E830D83E1CF8091690290916A0219
:10109000009709F4F6C069817A816115710509F438
:1010A000EEC040916B0250916C022D813E8142173F
:1010B000530708F4E4C00E94510C8D819E819093E7
:1010C0006E0280936D021E821D82CE0101960E94E7
:1010D000BE0481E00E949603C1010197F1F7E1E0AF
:1010E000809182028111E0E0E195F0E0E159FD4F4D
:1010F000848980680E9496031A8219821C821B824E
:101100001E821D8269E471E0CE0101960E94EE0408
:10111000A0906902B0906A02A114B10409F4C8C099
:1011200000916D0210916E0201151105B9F08D81CB
:101130009E81080F191FB801CE0101960E94C604B6
:10114000882309F4B5C029813A818D819E81B5013A
:10115000820F931F0E94510C1E830D834D815E816F
:1011600069817A818FE692E00E94B001CE010196FA
:101170000E94BE0480916D0290916E0210918202D5
:10118000892B09F49CC060E571E08091690290911F
:101190006A020E94480C892B09F091C0123008F0B5
:1011A0008CC01150E12FF0E0E159FD4F8489806837
:1011B0000E9496038BE591E00E94990461E088E02B
:1011C0000E940C0184EB90E00E94A70068EB7BE09A
:1011D00080E090E00E947D0190E080E00E94A70006
:1011E00060E088E00E940C0166E771E08FE692E023
:1011F0000E9444048FB7F8948090A0019090A101C0
:10120000A090A201B090A3018FBFC501B40120E856
:101210003EEE46E350E00E941A0ACA01B9014AE0D4
:101220000E9453046DE771E08FE692E00E9444044F
:10123000C501B40120E63AEE40E050E00E941A0AEF
:10124000CA01B901A70196010E941A0A4AE00E9448
:1012500053046DE771E08FE692E00E944404C501FB
:10126000B401A30192010E941A0ACA01B901A7019F
:1012700096010E941A0A4AE00E945304CECE0E94B0
:10128000F90A89819A8190936A02809369028B811D
:101290009C8190936C0280936B028D819E819093D0
:1012A0006E0280936D021A8219821C821B820BCF00
:1012B000CE0101960E94AC0451CF11E073CF1230E1
:1012C000F0F41150E12FF0E0E159FD4F848980687E
:1012D0000E9496036CE871E08FE692E00E9444045D
:1012E0008FE791E00E94990468EB7BE080E090E05A
:1012F0000E947D0190E080E00E94A7008ECE11E068
:10130000E1CF70E060E089E692E00E94C6048111BE
:1013100017C089E692E00E94AC0464EF71E080E0BF
:1013200090E00E947D0180E090E0892B09F471CE6D
:101330000E945A02882309F46CCE0E94000069CEF4
:1013400010926E0210926D0266E271E08091690265
:1013500090916A020E94510CE0CF89E692E00C94D1
:10136000BE04052E97FB1EF400940E94C80957FD89
:1013700007D00E941A0A07FC03D04EF40C94C80947
:1013800050954095309521953F4F4F4F5F4F0895B1
:1013900090958095709561957F4F8F4F9F4F0895E1
:1013A0000E943C0AA59F900DB49F900DA49F800DB4
:1013B000911D11240895B7FF0C94D0090E94D00903
:1013C000821B930B08952F923F924F925F926F92E0
:1013D0007F928F929F92AF92BF92CF92DF92EF92C5
:1013E000FF920F931F93CF93DF93CDB7DEB7CA1B46
:1013F000DB0B0FB6F894DEBF0FBECDBF09942A8871
:10140000398848885F846E847D848C849B84AA8418
:10141000B984C884DF80EE80FD800C811B81AA81A5
:10142000B981CE0FD11D0FB6F894DEBF0FBECDBF70
:10143000ED010895A1E21A2EAA1BBB1BFD010DC0F0
:10144000AA1FBB1FEE1FFF1FA217B307E407F50774
:1014500020F0A21BB30BE40BF50B661F771F881F50
:10146000991F1A9469F760957095809590959B01E6
:10147000AC01BD01CF010895A29FB001B39FC0018F
:10148000A39F700D811D1124911DB29F700D811DB0
:101490001124911D0895991B79E004C0991F961796
:1014A00008F0961B881F7A95C9F780950895EE0F6E
:1014B000FF1F0590F491E02D09940F931F93CF9394
:1014C000DF938230910510F482E090E0E091890290
:1014D000F0918A0230E020E0B0E0A0E0309799F48B
:1014E0002115310509F44AC0281B390B2430310578
:1014F000D8F58A819B816115710589F1FB01938380
:101500008283FE0111C040815181028113814817FD
:101510005907E0F04817590799F4109761F01296AF
:101520000C93129713961C933296CF01DF91CF91B3
:101530001F910F9108950093890210938A02F4CFAE
:101540002115310551F04217530738F0A901DB018D
:101550009A01BD01DF01F801C1CFEF01F9CF9093EE
:101560008A0280938902CDCFFE01E20FF31F81939F
:1015700091932250310939832883D7CF2091870254
:1015800030918802232B41F4209102013091030114
:10159000309388022093870220910001309101014D
:1015A0002115310541F42DB73EB74091040150910A
:1015B0000501241B350BE0918702F0918802E217A8
:1015C000F307A0F42E1B3F0B2817390778F0AC0166
:1015D0004E5F5F4F2417350748F04E0F5F1F509343
:1015E000880240938702819391939FCFF0E0E0E0DF
:1015F0009CCFCF93DF930097E9F0FC0132971382E1
:101600001282A0918902B0918A02ED0130E020E0BF
:101610001097A1F420813181820F931F20918702BE
:10162000309188022817390709F061C0F0938802C9
:10163000E0938702DF91CF910895EA01CE17DF078B
:10164000E8F54A815B819E0141155105B1F7E90139
:10165000FB83EA8349915991C40FD51FEC17FD070D
:1016600061F4808191810296840F951FE90199832D
:101670008883828193819B838A83F0E0E0E01296E5
:101680008D919C9113970097B9F52D913C911197ED
:10169000CD010296820F931F20918702309188021C
:1016A0002817390739F6309751F510928A021092AF
:1016B0008902B0938802A0938702BCCFD383C283F0
:1016C00040815181840F951FC817D90761F44E5F7F
:1016D0005F4F88819981480F591F518340838A81C8
:1016E0009B81938382832115310509F0B0CFF0935C
:1016F0008A02E09389029ECFFD01DC01C0CF1382F4
:101700001282D7CFB0E0A0E0E8E8FBE00C94E50956
:101710008C01009751F4CB010E945D0A8C01C80135
:10172000CDB7DEB7E0E10C94010AFC01E60FF71F2C
:101730009C0122503109E217F30708F49DC0D9013A
:10174000CD91DC911197C617D70798F0C530D10518
:1017500030F3CE0104978617970708F3C61BD70B03
:101760002297C193D1936D937C93CF010E94F90A84
:10177000D6CF5B01AC1ABD0A4C018C0E9D1EA09108
:101780008902B0918A02512C412CF12CE12C109746
:1017900031F580918702909188028815990509F0AA
:1017A0005CC04616570608F058C080910001909121
:1017B0000101009741F48DB79EB74091040150910B
:1017C0000501841B950BE817F90708F055C0F09345
:1017D0008802E0938702F90171836083A0CF8D9125
:1017E0009C91119712966C90129713967C90139778
:1017F000A815B90559F56C0142E0C40ED11CCA14F4
:10180000DB0420F1AC014A195B09DA011296159745
:1018100080F06282738251834083D9016D937C93FF
:10182000E114F10471F0D7011396FC93EE93129733
:1018300076CF22968C0F9D1FF90191838083F3014F
:10184000EFCFF0938A02E093890269CF48165906D8
:1018500008F42C017D01D3019ACFCB010E945D0ACF
:101860007C01009749F0AE01B8010E943F0CC8010D
:101870000E94F90A870153CF10E000E050CFFB012E
:10188000DC0102C001900D9241505040D8F70895FC
:10189000FB01DC018D91019080190110D9F3990BA6
:1018A0000895FB01DC0101900D920020E1F70895FD
:1018B00010E0CDE5D0E004C0FE010E94570A219659
:1018C000CE35D107C9F7F894FFCF00008B02800016
:1018D000000000009002B001DD01DD024E02EC01CB
:1018E0004002000000003E04B001FD02AF010D0AFD
:1018F000005363616E20796F7572205246696420CF
:10190000544147005363616E20796F7572205246CF
:10191000696400524649443A200030313044343240
:10192000394242410056616C6964205441472C2081
:1019300041636365737320416C6C6F77656421004C
:1019400054696D653A20003A00496E76616C6964AD
:10195000205441472C204163636573732044656EB6
:041960006965640051
:107E0000112484B714BE81FFF0D085E080938100F7
:107E100082E08093C00088E18093C10086E0809377
:107E2000C20080E18093C4008EE0C9D0259A86E02C
:107E300020E33CEF91E0309385002093840096BBD3
:107E4000B09BFECF1D9AA8958150A9F7CC24DD24C4
:107E500088248394B5E0AB2EA1E19A2EF3E0BF2EE7
:107E6000A2D0813461F49FD0082FAFD0023811F036
:107E7000013811F484E001C083E08DD089C08234E0
:107E800011F484E103C0853419F485E0A6D080C0E4
:107E9000853579F488D0E82EFF2485D0082F10E0AE
:107EA000102F00270E291F29000F111F8ED06801E7
:107EB0006FC0863521F484E090D080E0DECF843638
:107EC00009F040C070D06FD0082F6DD080E0C81688
:107ED00080E7D80618F4F601B7BEE895C0E0D1E017
:107EE00062D089930C17E1F7F0E0CF16F0E7DF06D8
:107EF00018F0F601B7BEE89568D007B600FCFDCFD4
:107F0000A601A0E0B1E02C9130E011968C91119780
:107F100090E0982F8827822B932B1296FA010C0160
:107F200087BEE89511244E5F5F4FF1E0A038BF0790
:107F300051F7F601A7BEE89507B600FCFDCF97BE46
:107F4000E89526C08437B1F42ED02DD0F82E2BD052
:107F50003CD0F601EF2C8F010F5F1F4F84911BD097
:107F6000EA94F801C1F70894C11CD11CFA94CF0C13
:107F7000D11C0EC0853739F428D08EE10CD085E9AC
:107F80000AD08FE07ACF813511F488E018D01DD067
:107F900080E101D065CF982F8091C00085FFFCCF94
:107FA0009093C60008958091C00087FFFCCF809118
:107FB000C00084FD01C0A8958091C6000895E0E648
:107FC000F0E098E1908380830895EDDF803219F02E
:107FD00088E0F5DFFFCF84E1DECF1F93182FE3DFCA
:107FE0001150E9F7F2DF1F91089580E0E8DFEE27F6
:047FF000FF270994CA
:027FFE00040479
:00000001FF
