:020000040000FA
:100000000C94D0000C94F8000C94F8000C94F800B8
:100010000C94F8000C94F8000C94F8000C94F80080
:100020000C94F8000C94F8000C94F8000C947111E6
:100030000C94F8000C94F8000C94F8000C94F80060
:100040000C94CF100C94F8000C943F110C941911DF
:100050000C94F8000C94F8000C94F8000C94F80040
:100060000C94F8000C94F8006382536300010800BC
:100070000604000100504F53542024462048545495
:10008000502F312E300D0A486F73743A2024460DDC
:100090000A244624534163636570743A202A2F2A48
:1000A0000D0A436F6E74656E742D4C656E677468CF
:1000B0003A2024440D0A436F6E74656E742D547992
:1000C00070653A206170706C69636174696F6E2F3E
:1000D000782D7777772D666F726D2D75726C656EE2
:1000E000636F6465640D0A0D0A245300474554206C
:1000F0002446245320485454502F312E300D0A48A2
:100100006F73743A2024460D0A24460D0A0D0A0026
:100110004500008200004000204163636570743A2E
:1001200020746578742F68746D6C003136392E3206
:1001300035342E38382E3431002F656E7465725F79
:10014000646F6F723F726669643D000000000024B6
:100150000027002A0000000000250028002B0004D2
:10016000040404040404040202020202020303035E
:100170000303030102040810204080010204081058
:100180002001020408102000000008000201000005
:100190000304070000000000000000007C12871626
:1001A00011241FBECFEFD8E0DEBFCDBF11E0A0E02D
:1001B000B1E0EEE6F3E302C005900D92AA3DB1076F
:1001C000D9F725E0AAEDB1E001C01D92A43FB20726
:1001D000E1F710E0CFECD0E004C02197FE010E94CF
:1001E0009717CE3CD107C9F70E940C130C94AA199B
:1001F0000C940000CF93DF93209109052223C1F0D6
:10020000FC0120812223A1F0C9E0D5E0A5E0B5E002
:100210009C012C5F3F4F899141919D9184278923B7
:1002200039F4E217F307B9F781E0DF91CF91089530
:1002300080E0FBCF8F929F92AF92BF92FF920F937D
:100240001F93CF93DF93F090CF052BE02F1508F489
:100250004CC02091D10508E512E0021B110927FDD1
:100260001395000F111F000F111F2091D005C8E832
:10027000D0E0C21BD10927FDD395CC0FDD1FCC0FD9
:10028000DD1F4E010D2E000CAA08BB089801012E9F
:10029000000C440B550B281939094A095B09DC018C
:1002A0000E94071724EB30E040E050E00E94DD168A
:1002B000820E931EA41EB51E8C169D062CF0E8011E
:1002C000801691060CF4E4012297CC0FDD1F2FB7A6
:1002D000F8948F2D90E0FC01EE0FFF1FE80FF91F3F
:1002E000E655FA4FD283C1832FBFDF91CF911F9183
:1002F0000F91FF90BF90AF909F908F900895CF93F4
:10030000DF93EC01FB018A30910548F06AE070E070
:100310000E948317CB01BF010E947F01FC01CE0127
:100320006AE070E00E948317805D80831182CF01B4
:100330000196DF91CF91089590E0FC01E957FE4FBF
:100340002491FC01ED58FE4F3491FC01E15AFE4F1F
:10035000E491EE23C9F0222339F0233001F1A8F40F
:10036000213019F1223029F1F0E0EE0FFF1FEB5A96
:10037000FE4FA591B4918FB7F894EC91611126C00E
:1003800030953E233C938FBF08952730A9F0283045
:10039000C9F0243049F7809180008F7D03C080919F
:1003A00080008F7780938000DFCF84B58F7784BD06
:1003B000DBCF84B58F7DFBCF8091B0008F778093AA
:1003C000B000D2CF8091B0008F7DF9CF3E2BDACF35
:1003D000CF93DF9390E0FC01ED58FE4F2491815ABA
:1003E0009E4FFC0184918823D1F090E0880F991FE3
:1003F000FC01E55BFE4FA591B491FC01EB5AFE4F69
:10040000C591D49161110EC09FB7F8948C91E22FE1
:10041000E0958E238C932881E223E8839FBFDF91B0
:10042000CF9108958FB7F894EC91E22BEC938FBFA6
:10043000F6CF3FB7F8948091010590910205A09105
:100440000305B091040526B5A89B05C02F3F19F000
:100450000196A11DB11D3FBFBA2FA92F982F882744
:10046000BC01CD01620F711D811D911D42E0660F1F
:10047000771F881F991F4A95D1F708958F929F92F1
:10048000AF92BF92CF92DF92EF92FF924B015C014D
:100490000E9419026B017C010E9419026C197D09EE
:1004A0008E099F09683E734081059105A8F321E0FC
:1004B000821A9108A108B10888EEC80E83E0D81E00
:1004C000E11CF11C81149104A104B10429F7FF90EF
:1004D000EF90DF90CF90BF90AF909F908F90089556
:1004E0002FB7F8946091FD047091FE048091FF0491
:1004F000909100052FBF08950895AF92BF92CF92BB
:10050000DF92EF92FF920F931F93CF93DF936C01D3
:100510007B018B01040F151FEB015E01AE18BF08B4
:10052000C017D10759F06991D601ED91FC91019066
:10053000F081E02DC6010995892B79F7C501DF917E
:10054000CF911F910F91FF90EF90DF90CF90BF90D0
:10055000AF900895FC01538D448D252F30E0842FFA
:1005600090E0821B930B541710F0CF9608950197DB
:100570000895FC01918D828D981761F0A28DAE0FC8
:10058000BF2FB11D5D968C91928D9F5F9F73928F4F
:1005900090E008958FEF9FEF08950F931F930E94AF
:1005A000700260931505709316058093170590935C
:1005B00018058DE095E00E94B90297FF1DC00E94CA
:1005C00070020091150510911605209117053091C4
:1005D0001805601B710B820B930B00911105109194
:1005E00012052091130530911405601771078207D9
:1005F0009307F8F28FEF9FEF1F910F910895FC0181
:10060000918D828D981731F0828DE80FF11D858DC7
:1006100090E008958FEF9FEF0895FC01918D228D5A
:10062000892F90E0805C9F4F821B91098F739927DF
:1006300008958DE095E00E940D0321E0892B09F4D7
:1006400020E0822F089580E090E0892B29F00E941D
:10065000190381110C9400000895FC01A48DA80FCA
:10066000B92FB11DA35ABF4F2C91848D90E00196F4
:100670008F739927848FA689B7892C93A089B18914
:100680008C91837080648C93938D848D981306C0B5
:100690000288F389E02D80818F7D80830895EF9219
:1006A000FF920F931F93CF93DF93EC0181E0888F2C
:1006B0009B8D8C8D98131AC0E889F989808185FFFC
:1006C00015C09FB7F894EE89FF896083E889F9899E
:1006D00080818370806480839FBF81E090E0DF91A0
:1006E000CF911F910F91FF90EF900895F62E0B8DF3
:1006F00010E00F5F1F4F0F731127E02E8C8D8E11AE
:100700000CC00FB607FCFACFE889F989808185FF14
:10071000F5CFCE010E942D03F1CFEB8DEC0FFD2F15
:10072000F11DE35AFF4FF0829FB7F8940B8FEA89CF
:10073000FB8980818062CFCFCF93DF93EC01888DDE
:100740008823B9F0AA89BB89E889F9898C9185FD4C
:1007500003C0808186FD0DC00FB607FCF7CF8C91DA
:1007600085FFF2CF808185FFEDCFCE010E942D0362
:10077000E9CFDF91CF9108958091120290911302F9
:1007800098278927982744972091300230E044E049
:10079000359527954A95E1F7220F331F220F331F16
:1007A000821B930B97FF02C090E080E008950F93A7
:1007B0001F93CF93DF9370E06E5F7D4F8A01075FD9
:1007C0001F4F213029F0223031F48A0102501109E3
:1007D00030E020E003C000E010E09801EB01FA01F6
:1007E000E230F10558F0A991B991BA27AB27BA27A1
:1007F0000A0F1B1F211D311D3297F2CFFA01EE7F28
:100800006E0F7F1F4E175F0769F0FB01408150E0BC
:1008100070E060E0762F652F542F4427040F151FDA
:10082000261F371FA9016627772741155105610546
:10083000710519F022273327F1CF00951095E82F85
:10084000F0E0EE5FFD4F10830183DF91CF911F91A8
:100850000F910895E2E0F2E0108E118E80E4848B17
:10086000158A868B20E044E150E06EE088E10C942C
:10087000D703DC011696ED91FC9117979F012F5F2E
:100880003F4F17963C932E931697608381E090E03C
:10089000089590E080E008958EBD0DB407FEFDCF71
:1008A000089561E08091C3040E949C0178940895AA
:1008B000F89460E08091C3040C949C010F931F9303
:1008C000CF93DF93EC018B010E9458042097B9F07D
:1008D0008AE30E944C041EBCF801CE01019739F056
:1008E0000DB407FEFDCF2EB51EBC2193F7CF219787
:1008F000C00FD11F0DB407FEFDCF8EB58883DF91E9
:10090000CF911F910F910C9451041F93CF93DF93BC
:10091000182FC62FD42F0E9458048C2F8F71812B33
:100920000E944C048D2F0E944C04DF91CF911F91A7
:100930000C945104CF93C82FC0768091DC018C17A2
:1009400099F043E06FE180EA0E948504C093DC01E6
:100950004C2F50E085E0559547958A95E1F76FE17A
:1009600080E8CF910C948504CF910895CF93DF93C5
:10097000C82FD62F0E949A044D2F6C2F80E4DF9150
:10098000CF910C948504CF93DF93C82FD72F0E946B
:10099000B6046D2F81E08C0FDF91CF910C94B604DB
:1009A000CF93C82F0E949A040E9458048C2F8F71F5
:1009B0000E944C0480E00E944C04C7FF03C080E00A
:1009C0000E944C04CEB50E9451048C2FCF91089503
:1009D0000F931F93CF93DF9300D000D000D0CDB7FB
:1009E000DEB78091DF01882379F06091DD0170919D
:1009F000DE016115710509F053C06FEF7BE08CE0FB
:100A00000E94C3041092DF0189E30E94D00410E029
:100A100000E08823C9F16091DD017091DE0180E082
:100A20000E94C304BE016F5F7F4F86E090E00E948A
:100A30005E0489819A819093DE018093DD018D812E
:100A40009E818C010078112787FF12C08B819C81C9
:100A500004970091C4041091C50401501109801736
:100A6000910708F48C0162E072E0C8010E945E0404
:100A7000F801EE5FFD4F108281E08093DF0140E4DA
:100A80006EE180E80E948504C80126960FB6F894AE
:100A9000DEBF0FBECDBFDF91CF911F910F910895A3
:100AA00061507109ACCFCF93DF93EC0140E86FE167
:100AB00080E80E94850440E86FE180EA0E94850496
:100AC0004AE06CE180EA0E94850460E07CE082E01C
:100AD0000E94C304BE01745F86E00E94C30440E02C
:100AE00060E08AE70E9485040E9458042097B1F0D4
:100AF0008AE70E944C04809102028EBDE3E0F2E09E
:100B0000CE5FDD4FEC17FD0731F081910DB407FE8C
:100B1000FDCF8EBDF7CF0DB407FEFDCF0E9451046F
:100B200048E06FE180E80E948504D0E0C0E08CE1FD
:100B30000E94D0048A7029F42196C83E83E0D80729
:100B4000B1F78CE10E94D00481FD03C0C83ED340C0
:100B500039F448E06FE180EADF91CF910C9485048D
:100B6000DF91CF910895CF93DF93EB01682F84ED50
:100B70000E94B604BE0186ED0E94C3048AEE0E9464
:100B8000D00480FDFBCFDF91CF910895CF92DF920B
:100B9000EF92FF920F931F938634910568F1209195
:100BA0002502233449F5C0903002D0903102E09004
:100BB0003202F09033020091E5011091E60120919C
:100BC000E7013091E801C016D106E206F306A1F470
:100BD000ECE1F3E08E5F9D4F9F012E5F3F4F41811F
:100BE0005081553319F45281651771F0F901E40F02
:100BF000F11DE817F90780F380E01F910F91FF9036
:100C0000EF90DF90CF90089581E0F7CFE091DA0187
:100C1000F091DB019F012F5F3F4F3093DB01209369
:100C2000DA0180830895FF920F931F93CF93DF9390
:100C3000162FF42E052F0E940606812F0E9406060D
:100C4000CF2DD02F115020F089910E940606FACFA7
:100C5000DF91CF911F910F91FF900895CF93DF9374
:100C6000EC0160E08E810E949C0161E08E810E9417
:100C70009C0160E08E810E949C018BE891E00197CD
:100C8000F1F7DF91CF910895CF92DF92EF92FF922B
:100C90000F931F93CF93DF936C017C0187E0E80EE5
:100CA000F11CD0E0C0E0062F10E0B8010C2E02C00D
:100CB000759567950A94E2F76170F70181917F015C
:100CC0000E949C012196C430D10579F7C601DF91BD
:100CD000CF911F910F91FF90EF90DF90CF900C94E8
:100CE0002E06CF92DF92EF92FF920F931F93CF9336
:100CF000DF93EC01F62E642F8C810E949C018D8184
:100D00008F3F19F060E00E949C010F2D10E08F854D
:100D100084FF25C06E0187E0C80ED11CF12CE12CA8
:100D2000B8010E2C02C0759567950A94E2F76170C0
:100D3000F60181916F010E949C01FFEFEF1AFF0AFB
:100D400088E0E816F10461F7CE01DF91CF911F91A1
:100D50000F91FF90EF90DF90CF900C942E06B8018A
:100D600084E0759567958A95E1F7CE010E94440667
:100D70006F2DCE01DF91CF911F910F91FF90EF90DA
:100D8000DF90CF900C94440640E0682F88ED95E00A
:100D90000C947106CF93DF93823029F49091E7058C
:100DA00098609093E7058093EB051092EC0580E442
:100DB0008093ED0580E18093EE0580E58093EF055B
:100DC00061E08091DC050E94E8018091DD058F3FA4
:100DD00019F061E00E94E80161E08091DE050E9467
:100DE000E801C8EDD5E09E01285D35408091E7051A
:100DF00084FD0BC084E090E021962817390744F465
:100E000061E08E810E94E801EECF88E090E0F4CFAF
:100E10008BE39DE00197F1F760E08091DC050E9493
:100E20009C0160E08091DE050E949C018091DD05BF
:100E30008F3F19F060E00E949C018091E70584FDDE
:100E400039C063E088ED95E00E944406CBE4D6E427
:100E5000CE010197F1F763E088ED95E00E9444062A
:100E60002197F1F763E088ED95E00E94440683E561
:100E700092E00197F1F762E088ED95E00E94440668
:100E80008091E70580620E94C40684E08093E805B3
:100E90008CE00E94C40681E00E94C4068BE39FE1BF
:100EA0000197F1F782E08093E90586E0DF91CF9129
:100EB0000C94C40680620E94C4068BE496E40197F9
:100EC000F1F78091E70580620E94C40683E592E015
:100ED0000197F1F78091E70580620E94C406D0CFA8
:100EE00041E00E94710681E090E00895FB010190CD
:100EF0000020E9F73197AF01461B570BDC01ED915C
:100F0000FC910280F381E02D09948F929F92AF9221
:100F1000BF920F931F93CF93DF93CDB7DEB7A19707
:100F20000FB6F894DEBF0FBECDBF19A2423008F451
:100F30004AE08E010F5D1F4F842E912CB12CA12C05
:100F4000A50194010E944617E62FB901CA01EA30B3
:100F500004F5E05DD801EE938D01232B242B252B86
:100F600079F790E080E0109729F0BD0188ED95E0D9
:100F70000E947607A1960FB6F894DEBF0FBECDBFD4
:100F8000DF91CF911F910F91BF90AF909F908F9065
:100F90000895E95CDFCFCF93DF93BC018DE095E04E
:100FA0000E947607EC016AE671E08DE095E00E9410
:100FB00076078C0F9D1FDF91CF910895FC018081F2
:100FC0009181009711F00C94391808950F931F9395
:100FD000CF93DF93EC0188819981009759F02A81A2
:100FE0003B812617370730F081E0DF91CF911F91C9
:100FF0000F9108958B016F5F7F4F0E94C218009779
:1010000059F0998388831B830A832C813D81232B8C
:1010100059F7FC011082E8CF80E0E7CFEF92FF9212
:101020000F931F93CF93DF93EC01198218821B82D9
:101030001A821D821C8261157105E1F08B01FB0192
:1010400001900020E9F731977F01E61AF70AB7010E
:101050000E94E60728813981811113C021153105CD
:1010600019F0C9010E943918198218821D821C8248
:101070001B821A82DF91CF911F910F91FF90EF9009
:101080000895FD82EC82B801C901DF91CF911F91D3
:101090000F91FF90EF900C9495198F929F92AF92C1
:1010A000BF92CF92DF92EF92FF92CF93DF9300D067
:1010B00000D000D0CDB7DEB76E5F7D4FCE01019678
:1010C0000E940E088D819E819C0121503109E09182
:1010D000EB052817390708F090C089819A8100979D
:1010E00009F48BC0820F931FDC018C918B3609F0C1
:1010F00084C0E23008F07FC0E150F0E0E852FA4FDF
:10110000848980680E94C4068DE691E00E94CB0726
:1011100061E088E00E949C0184EB90E00E941A014B
:1011200068EB7BE080E090E00E943E0290E080E08F
:101130000E941A0160E088E00E949C0168E871E06A
:1011400088ED95E00E9476070E9470026B017C0199
:1011500020E83EEE46E350E00E944617CA01B9017E
:101160004AE00E9485076FE871E088ED95E00E94F3
:101170007607C701B60120E63AEE40E050E00E9453
:1011800046178CE3882E912CA12CB12CCA01B901F1
:10119000A50194010E9446174AE00E9485076FE866
:1011A00071E088ED95E00E947607C701B60128EE50
:1011B00033E040E050E00E944617CA01B901A501A2
:1011C00094010E9446174AE00E948507CE010196CD
:1011D0000E94DE0726960FB6F894DEBF0FBECDBF85
:1011E000DF91CF91FF90EF90DF90CF90BF90AF90C5
:1011F0009F908F900895E1E080CFE230E8F4E150D5
:10120000F0E0E852FA4F848980680E94C4066EE9D3
:1012100071E088ED95E00E94760781E991E00E94F7
:10122000CB0768EB7BE080E090E00E943E0290E01C
:1012300080E00E941A01CACFE1E0E2CFDC0196E033
:10124000FB0101900D929A95E1F70895BC0182E0AF
:1012500092E00E941E096DEC74E088E092E00C942C
:101260001E09DC0194E0FB0101900D929A95E1F7D3
:10127000089588E092E00E9426096CE172E080E225
:1012800092E00E94310969E075E08CE192E00E94F1
:1012900031090C942A04CF93DF93EB010E942609B5
:1012A000BE0180E292E00E94310969E075E08CE1C4
:1012B00092E0DF91CF910C943109CF93DF93EB0152
:1012C00044E050E0BC018EE192E00E947F19892B3E
:1012D00049F468E172E0CE010E941E0981E0DF91CD
:1012E000CF91089580E0FBCF0F931F93CF938C0194
:1012F00086E491E00E942609E2E0F2E088E084873B
:10130000C6E0C58748E050E06CE670E080E192E01E
:101310000E948B16E2E2F2E0DF011D92CA95E9F726
:101320006DEC74E088E192E00E941E09B80188E249
:1013300092E00E94310969E075E08EE192E00E943E
:1013400031098AE290E0CF911F910F910C945305DF
:10135000EF92FF920F931F93CF93DF938C01E2E004
:10136000F2E086E191E0DF019C011D9221503040C6
:10137000E1F78091F501C6E4D1E0833011F4C0EECD
:10138000D1E0CE010E94FA00BE01882309F4ACC06E
:1013900086EF91E00E944B098881807F803E91F02A
:1013A00088819981AA81BB818F3F9F4FAF4FBF4FEB
:1013B00049F044E050E0BE0183ED94E00E947F19C3
:1013C000892B31F466E471E082E092E00E941E090C
:1013D00088E080930E0210920F0249E050E060E135
:1013E00071E080E192E00E948B161092120281E17E
:1013F000809319021092260283E4809327021092B0
:10140000240284E4809325021092280210922A027A
:1014100010922B0266E471E082E092E00E941E09C5
:1014200081E080932C0280932D0286E080932E022F
:101430008091E5019091E601A091E701B091E8016A
:101440008093300290933102A0933202B093330222
:10145000C091F501C33031F469E075E088E392E0B2
:101460000E9431096DEC74E088E492E00E941E094C
:1014700088E193E09093DB018093DA01E8E6F0E005
:1014800084910E940606E9E6F0E084910E94060637
:10149000EAE6F0E084910E940606EBE6F0E0849133
:1014A0000E94060685E30E94060681E00E94060669
:1014B00083E0C11101C081E00E9406068DE30E9415
:1014C000060687E00E94060681E00E9406068DEC73
:1014D000E82E84E0F82EC7E0C15049F0D7018D9185
:1014E0007D010E940606F8CF8CEF91E053CF8091EA
:1014F0000001882371F060E071E0FB0101900020A1
:10150000E9F7BF016150714040E051E08CE00E947A
:1015100013060115110559F0A80164E082E30E9449
:10152000130640EE51E064E086E30E94130687E371
:101530000E94060683E00E94060681E00E940606DD
:1015400083E00E94060686E00E9406068FEF0E9456
:101550000606C091DA01D091DB01CC52D240CE0117
:101560004C9690931202809313020E942A04CE019B
:1015700008969093280280932902AE01405F5F4F46
:1015800021E06AE188E20E94D703CE018A96DF91CA
:10159000CF911F910F91FF90EF900C9453058F9274
:1015A0009F92AF92BF92CF92DF92EF92FF920F93F2
:1015B0001F93CF93DF9300D000D0CDB7DEB77C016F
:1015C0008091E104882369F08091F501823009F46B
:1015D000F1C008F0E9C0882309F474C1813009F42E
:1015E00090C1E114F10409F02BC28091E2048570EE
:1015F00029F18091DB049091DC04892BF9F461E1FD
:1016000084ED0E94B60461E082ED0E94B6048AEE89
:101610000E94D00480FDFBCF60E082ED0E94B60402
:1016200089ED0E94D00482FF09C087ED94E00E94FA
:1016300074098091E20488608093E2048091DB0465
:101640009091DC0401969093DC048093DB048091FC
:10165000E804813009F079C08091E20481FF75C00F
:1016600082E08093E804809121018F5F80932101C3
:10167000F090E904E090EA041091E704A0E21A9FD8
:10168000900111248F71182F122B83EE94E00E9489
:10169000FA0063EE74E0882309F4BFC186EF91E09D
:1016A0000E944B0908E000930E0210920F0249E0DD
:1016B00050E060E171E080E192E00E948B168CE2E4
:1016C0008093130286E0809319020E942A04E0921C
:1016D0002602F09227028BE08093240210932502C9
:1016E000E8E2F2E0DF011D920A95E9F7809120011E
:1016F00080932A028D5F8093200180E680933002E0
:1017000082E08093310293E0909332021092330290
:101710001092340210923502109236021092370263
:101720008093380294E09093390280933A0286E2E3
:1017300080933B0222E040E250E06AE182E30E94B3
:10174000D7038AE390E00E9453058DED94E00E9458
:10175000FA00882379F08091C10481110BC0809137
:10176000C004811107C08DED94E00E94740981E0EE
:101770008093C00483EE94E00E94FA00811150C16E
:1017800010E000E0C8010F900F900F900F90DF91D4
:10179000CF911F910F91FF90EF90DF90CF90BF906E
:1017A000AF909F908F900895833009F456C0843095
:1017B00009F017CF65E0C7010E94C605882309F428
:1017C000C9C08091E401811108C088E30E94D0045F
:1017D000682F6E7F88E30E94B6046CE372E089E0B4
:1017E00095E00E943109ECE1F3E0C7018E5F9D4F67
:1017F0006C018F010E5F1F4FB1808081863009F42C
:10180000FBC008F0BEC0813009F4ECC0833009F49D
:10181000EFC0F801EB0DF11DEC15FD0550F30E9432
:1018200070026093ED017093EE018093EF0190934D
:10183000F0018091D704882361F01092DC041092AB
:10184000DB0481E08093E20467ED74E0CB010E9449
:10185000310983E08093F501C4CE8090F10190902E
:10186000F201A090F301B090F4012FEF82169206DE
:10187000A206B20609F4B5CE0E9470020091ED01F5
:101880001091EE012091EF013091F001601B710B7E
:10189000820B930B681579058A059B0508F4A1CE88
:1018A00089E095E00E94A80984E08093F5010E94F8
:1018B00070026093E9017093EA018093EB019093C9
:1018C000EC018FCE0E9470026093E5017093E601F7
:1018D0008093E7019093E801E9E0F5E084E0DF011F
:1018E0001D928A95E9F790E080E00E94A80988E3BC
:1018F0000E94D004682F616088E30E94B60481E0F2
:10190000D4CF62E0C7010E94C605882319F16CE3B9
:1019100072E0CE0101960E943109ECE1F3E0C701CB
:101920008E5F9D4FBF016E5F7F4F218130813633C7
:1019300051F480EE91E00E943109CE0101960E949F
:10194000A80982E0B2CFFB01E20FF11DE817F90709
:1019500048F3F3CF0E9470020091E9011091EA016F
:101960002091EB013091EC01601B710B820B930B0A
:10197000613177428105910508F433CE1092F5016B
:1019800030CE8A3331F08F3F09F449CF833309F0E9
:1019900040CF1092F1011092F2011092F3011092D7
:1019A000F401F801C801049620E030E0A90161913A
:1019B000542F432F322F2227260F311D411D511D39
:1019C0008E179F07A1F72F3F9FEF39074907590748
:1019D000B9F42093F1013093F2014093F301509355
:1019E000F40117CFB80185E095E00E94310911CFCD
:1019F000B80187ED94E0F9CFB8018DED94E0F5CF13
:101A0000A8EEB3E00E94FC166093F1017093F2011E
:101A10008093F3019093F401FCCE8CEF91E040CEE3
:101A20008091BF048111ACCE8091BE048111A8CEFB
:101A300083EE94E00E94740981E08093BE04A0CEFE
:101A4000B9E2EB16F10408F49BCE80910E028830C7
:101A500009F096CE80910F02863009F09FC144E0D4
:101A600050E069E075E088E292E00E947F19892BDE
:101A700009F086CE80911702813029F588E092E046
:101A80000E9426091092160282E08093170268E1F4
:101A900072E082E292E00E941E096DEC74E088E13F
:101AA00092E00E941E096EE172E088E292E00E94DC
:101AB000310969E075E08EE192E00E9431098AE225
:101AC00090E00E9453058091E20483FF0DC01091C5
:101AD0001702123049F46CEF71E087ED94E00E9438
:101AE0005D0981111093E2048091C104811111C03C
:101AF0008091C004882369F066EF71E08DED94E079
:101B00000E945D09882329F081E08093C10410922E
:101B1000C0048091BF04811133CE8091BE0488231C
:101B200009F42ECE66EF71E083EE94E00E945D0929
:101B3000882309F425CE81E08093BF041092BE046F
:101B40001FCE26E3E216F10408F41ACE863009F01F
:101B500017CE809126028B3009F0BAC044E050E0E5
:101B600063EE74E08CE192E00E947F19892B09F00A
:101B700007CED0903102D2FE15C0E091ED04F09175
:101B8000EE04309759F08091270230E020E050E0D9
:101B900040E063E0829586958770099585E08093A3
:101BA000E804EECD0E94BC038C018091E8048230F1
:101BB00009F045C09D2D90718D2D8271823189F57E
:101BC00060E090E080E00E94581288E1809331024A
:101BD000E091EB04F091EC0410E000E0309739F074
:101BE0008091250282958695877009958C0183E006
:101BF0008093E804C80188969093120280931302A0
:101C00000E942A041092340210923502A801445E08
:101C10005F4F22E06AE182E30E94D703C801C696C3
:101C200003C181E08093E804911106C0C8010196C8
:101C300064E00E945812A4CD90E080E0F9CF833098
:101C4000A1F501151105A1F1E091ED04F091EE046B
:101C5000309771F18091300290E024E0959587955E
:101C60002A95E1F7880F991F880F991F8296A7017F
:101C7000485051098417950708F4AC01C801840F36
:101C8000951F9701241B350BE816F90608F09801FB
:101C90008091270260E0829586958770099569E0BA
:101CA000C8010E94581286E07ACF853009F468CDC9
:101CB000D0FE07C0833009F463CD69E0C801019606
:101CC000F0CF0115110509F45BCD60E0C801B1CF7B
:101CD000811156CD80912702803509F051CDD090E9
:101CE0003102D1FE39C0109212028CE280931302AD
:101CF0000E94390982E18093310260E081E090E046
:101D00000E942D1210922802109229028091200127
:101D100080932A0210922B028D5F8093200182E033
:101D20008093380284E08093390285E080933A0200
:101D300010923B0290E6909330028093320288E743
:101D40008093330222E040E250E06AE182E30E94A5
:101D5000D7038AE390E068C0D4FE12CD0E94BC0392
:101D60008C01892B99F00091300210E084E01595E8
:101D700007958A95E1F7000F111F000F111F0E5DE7
:101D80001F4FE016F10608F0FDCCFACCD0FEF8CCDF
:101D900060E090E080E00E945812F4CC99E2E916ED
:101DA000F10409F4EDCC8111EBCC80911002853463
:101DB00009F0E6CC44E050E069E075E080E292E0B2
:101DC0000E947F19892BA9F044E050E063ED74E094
:101DD00080E292E00E947F19892B59F044E050E0A4
:101DE00066E471E080E292E00E947F19892B09F09D
:101DF000C7CC80911902813009F0A3CE80912402D2
:101E0000883009F0BDCC0E943909109224028091DB
:101E10002602883F28F0909127029F5F9093270227
:101E2000885F80932602C7010E945305A9CC0F93B7
:101E30001F93CF93DF9389019091EF04981781F05E
:101E4000E091F004F091F10450E040E070E060E0D7
:101E500084E0099580E0DF91CF911F910F91089563
:101E60006111F8CF2D303105A8F3C091F004D09165
:101E7000F104209779F3BA01655F7D4F43E050E0AC
:101E80008CEA91E00E949C196091300270E024E09D
:101E9000759567952A95E1F7660F771F660F771F8F
:101EA0006E5D7F4F21E0892B09F420E0A801822F8D
:101EB000FE01CFCFAF92BF92CF92DF92EF92FF920F
:101EC0000F931F93CF93DF93CDB7DEB7ED84FE84DE
:101ED000CF84D8888E010F5E1F4FC6010196F60190
:101EE0002491222309F4D1C0243279F0D701169627
:101EF000ED91FC911797AF014F5F5F4F17965C9381
:101F00004E93169720836C01E8CFB2E0CB0ED11C24
:101F1000FC018491863409F481C0A0F4843409F46E
:101F20004CC0853409F494C0D7011696ED91FC910C
:101F300017979F012F5F3F4F17963C932E9316974D
:101F40008083CBCFD70116964D915C918C3409F4E8
:101F50004DC0833509F457C0883431F7B8016E5F3E
:101F60007F4FF8019081292F092E000C330B84E05C
:101F7000359527958A95E1F72F709F709A300CF070
:101F8000995F905D2A300CF0295FFA013196D701F4
:101F90001796FC93EE931697205DFA012083169610
:101FA000ED91FC9117979F012F5F3F4F17963C9340
:101FB0002E93169790838B0190CF5801B2E0AB0E11
:101FC000B11CF70166817781D8018D919C910E94A7
:101FD0007F01F70186819781DC010D900020E9F7F0
:101FE000CD01019797838683850177CF5801F4E06F
:101FF000AF0EB11CD8016D917D918D919C912AE01D
:102000000E949416E6CF5801B2E0AB0EB11CF80165
:1020100060817181CA010E949519DBCFF80101909E
:10202000F081E02D0E5F1F4F84913196882309F4D3
:1020300054CFD70116964D915C9117979A012F5F57
:102040003F4F17963C932E931697DA018C93ECCF63
:10205000F801808191810E5F1F4F5C01BFEFAB1AC9
:10206000BB0A0E94D516882309F437CFD7011696EC
:10207000ED91FC9117979F012F5F3F4F17963C936F
:102080002E9316978083C501E8CFDF91CF911F91E2
:102090000F91FF90EF90DF90CF90BF90AF90089599
:1020A0000F931F93CF93DF93CDB7DEB728970FB66B
:1020B000F894DEBF0FBECDBF1C821B822EE331E041
:1020C0003A83298328E332E03E832D8338872F83A8
:1020D0009091EF0498132EC0A091F204B091F304F4
:1020E0001091F6040091F7046091FA047091FB04DA
:1020F0008091F4049091F504AE014F5F5F4F10970B
:1021000051F59F938F930F931F938091F9048F93B1
:102110008091F8048F937F936F938CEE90E09F9360
:102120008F935F934F930E945A0F0FB6F894DEBFC0
:102130000FBECDBF8F8198852D813E81821B930B71
:1021400028960FB6F894DEBF0FBECDBFDF91CF91BA
:102150001F910F910895FD0101900020E9F731973B
:10216000EA1BFB0B2AE631E0009721F42CE631E074
:1021700084E790E0BF93AF93FF93EF933F932F9348
:102180009F938F930F931F937F936F9385E790E0B7
:102190009F938F935F934F930E945A0FC6CF1F92C6
:1021A0000F920FB60F9211242F933F938F939F930B
:1021B000AF93BF938091FD049091FE04A091FF0422
:1021C000B09100053091FC0423E0230F2D3758F522
:1021D0000196A11DB11D2093FC048093FD049093F2
:1021E000FE04A093FF04B093000580910105909137
:1021F0000205A0910305B09104050196A11DB11D32
:102200008093010590930205A0930305B093040504
:10221000BF91AF919F918F913F912F910F900FBEE2
:102220000F901F90189526E8230F0296A11DB11D4F
:10223000D2CF1F920F920FB60F9211242F933F937C
:102240004F935F936F937F938F939F93AF93BF93BE
:10225000EF93FF938DE095E00E942D03FF91EF91A6
:10226000BF91AF919F918F917F916F915F914F91AE
:102270003F912F910F900FBE0F901F9018951F92B6
:102280000F920FB60F9211242F938F939F93EF937A
:10229000FF93E0911D05F0911E058081E0912305DB
:1022A000F091240582FD1BC09081809126058F5FEF
:1022B0008F7320912705821741F0E0912605F0E009
:1022C000E35FFA4F958F80932605FF91EF919F91E1
:1022D0008F912F910F900FBE0F901F9018958081B6
:1022E000F4CF1F920F920FB60F9211242F933F93AA
:1022F0004F935F936F937F938F939F93AF93BF930E
:10230000CF93DF93EF93FF938091C204C091CE05EA
:10231000D0E087FF24C01092850010928400809145
:10232000C2048F5F8093C2048091C204082E000C07
:10233000990B8C179D0724F48091C2048C30C4F152
:102340008091840090918500049680349C4908F423
:102350007AC08091840090918500049676C0809127
:10236000C204082E000C990B8C179D07C4F6E0914F
:10237000C2048E2FEE0F990BFC01EE0FFF1FE80F2A
:10238000F91FE655FA4F808186FFC9CFE091C2045C
:102390008E2FEE0F990BFC01EE0FFF1FE80FF91FB8
:1023A000E655FA4F808160E08F730E949C01B7CFA1
:1023B0002091840030918500E091C2048E2FEE0FB1
:1023C000990BFC01EE0FFF1FE80FF91FE655FA4FBE
:1023D00081819281820F931F90938900809388005E
:1023E000E091C2048E2FEE0F990BFC01EE0FFF1F40
:1023F000E80FF91FE655FA4F808186FF11C0E09182
:10240000C2048E2FEE0F990BFC01EE0FFF1FE80F99
:10241000F91FE655FA4F808161E08F730E949C019D
:10242000FF91EF91DF91CF91BF91AF919F918F91EC
:102430007F916F915F914F913F912F910F900FBEC0
:102440000F901F90189580E49CE9909389008093E9
:1024500088008FEF8093C204E3CF20912602309151
:1024600024023093260220932402209127023091E7
:1024700025023093270220932502E2E0F2E021A515
:10248000820F911D25A585A7662381F021A7892F9D
:102490009927319721E0EE3FF20789F71092340235
:1024A0001092350280E580933002089511A6EFCF97
:1024B000262F206120933102643021F0009711F41F
:1024C00081E090E061E00E942D121092120288E2F9
:1024D000809313020E94390984E0809332021092A3
:1024E000330222E04CE150E06AE182E30E94D7032C
:1024F00086E390E00C945305CF9310921005109250
:102500000F0588EE93E0A0E0B0E080931105909372
:102510001205A0931305B093140580E591E0909304
:102520000E0580930D0585EC90E090931A0580933D
:10253000190584EC90E090931C0580931B0580ECBA
:1025400090E090931E0580931D0581EC90E09093A0
:10255000200580931F0582EC90E0909322058093E4
:10256000210586EC90E0909324058093230510923A
:102570002605109227051092280510922905109221
:10258000DB051092DA0582E691E09093D9058093FD
:10259000D80586E08093DC05CFEFC093DD0587E0AA
:1025A0008093DE0585E08093DF0584E08093E0057D
:1025B00083E08093E10582E08093E2051092E305D9
:1025C0001092E4051092E5051092E6051092E705D9
:1025D00081E00E94CA066CE671E082ED95E00E94FF
:1025E0000E088091CE058C30A0F491E0980F909366
:1025F000CE058093CF0590E0FC01EE0FFF1FE80FA2
:10260000F91FE655FA4F88EB9BE092838183CF91C7
:102610000895C093CF05FBCFCF93DF93CDB7DEB73F
:1026200028970FB6F894DEBF0FBECDBF789484B55F
:10263000826084BD84B5816084BD85B5826085BDBE
:1026400085B5816085BD80916E00816080936E004C
:10265000109281008091810082608093810080913E
:1026600081008160809381008091800081608093EF
:1026700080008091B10084608093B1008091B000AF
:1026800081608093B00080917A00846080937A00AA
:1026900080917A00826080937A0080917A008160D4
:1026A00080937A0080917A00806880937A001092FB
:1026B000C100E0911D05F0911E0582E08083E0914C
:1026C0001905F0911A051082E0911B05F0911C0587
:1026D0008FEC808310922505E0912105F091220571
:1026E00086E08083E0911F05F09120058081806164
:1026F0008083E0911F05F0912005808188608083B0
:10270000E0911F05F0912005808180688083E09131
:102710001F05F091200580818F7D80838091CF05FA
:102720008C3008F051C061E089E00E94E80180919E
:10273000CF05282F30E0F901EE0FFF1FE20FF31F46
:10274000E655FA4F9081907C996090831092D00565
:102750001092D1052CE0622F0E947717829FB00162
:10276000112430E020E0AB01420F531FFA01EE0FBD
:10277000FF1FE40FF51FE655FA4F908196FD16C036
:102780002F5F3F4F2C30310571F781110FC0109230
:10279000800082E080938100109285001092840076
:1027A000B19A80916F00826080936F00E091CF05B5
:1027B0008E2F90E0FC01EE0FFF1FE80FF91FE6558A
:1027C000FA4F80818064808390E080E00E941A014B
:1027D00061E088E00E94E80180EB91E00E94CB0775
:1027E00082E00E94CA0663EC71E088ED95E00E94E9
:1027F00076071092E10487E390E0C12CD12C76019A
:10280000C3940097C1F0FC0163E0F595E7956A95E4
:10281000E1F7EA53FB4F282F2770B701A60104C048
:10282000440F551F661F771F2A95D2F72081242B4E
:1028300020830197E6CF6EE271E08DEC94E00E9478
:102840001E098CEB92E09093C5048093C4040CB4F1
:1028500006FC25C061E08AE00E94E80161E08AE0B0
:102860000E949C0161E08BE00E94E80161E08DE044
:102870000E94E80160E08CE00E94E80161E08BE0EA
:102880000E949C0160E08BE00E949C0160E08DE072
:102890000E949C0180E58CBD8DB581608DBD8AE074
:1028A0008093C30461E00E94E8010E9451044FEF4D
:1028B00060E08FEF0E94850462E070E080E090E0CD
:1028C0000E943E020E9458048DE10E944C0480E068
:1028D0000E944C041EB50E945104112399F370E02C
:1028E00060E088E00E94C30470E060E08CE00E9439
:1028F000C3046FEF7BE08AE00E94C30460E07CE0E9
:1029000084E00E94C3046FEF71E186E00E94C3047B
:1029100066E774E084E10E94B30561EB88E30E94FE
:10292000B6046FE370E388E20E94C30469EF77EFB7
:1029300080E30E94C30461E080EC0E94B60442E39D
:1029400062EC80E80E94850462E17CE086EC0E94F3
:10295000C30462E184EC0E94B6046CED75E08AEC7D
:102960000E94C3046091CD0484EE0E94B60460917D
:10297000CE0485EE0E94B6046091CF0482EE0E94E0
:10298000B6046091D00483EE0E94B6046091D10435
:1029900080EE0E94B6046091D20481EE0E94B604DB
:1029A00060E071E080E10E94B3058FE10E949A042B
:1029B00040EC6BE180E80E94850444E06FE180E830
:1029C0000E94850482E70E94D0041092E1046AE22A
:1029D00071E089E095E00E9431091092DC041092C8
:1029E000DB0481E08093E20466E271E087ED94E02D
:1029F0000E943109E9E0F5E025E035E063ED74E09F
:102A00004DE055E09191D9018D919D018095892BE3
:102A1000DB018D93BD014E175F07A1F762E271E004
:102A200083EE94E00E9431098091E20481FF63C04B
:102A300039E3232E31E0332E4BE2442E41E0542E75
:102A400059E1652E51E0752E0E94E8040E94CF0ADC
:102A50008DE4882E88E0982E97E1A92E9FE0B92E6C
:102A600020E5C22E20E1D22E8DE095E00E940D03DC
:102A7000181619060CF03EC160E088E00E949C0127
:102A80001A8219821C821B821E821D8270E060E005
:102A9000CE0101960E94E60729813A81811130C05A
:102AA0002115310519F0C9010E9439181A821982BD
:102AB0001E821D821C821B820E94CD0297FD28C0AF
:102AC0008F8318860D811E810F5F1F4FB801CE01C5
:102AD00001960E94E607882379F329813A818D8146
:102AE0009E81BE01695F7F4F820F931F0E949519DF
:102AF0001E830D83E1CF0E94E8040E94CF0A94CF89
:102B00001E821D826CE671E0C9010E949519D4CF26
:102B10008091D2059091D305009709F4BDC06981D9
:102B20007A816115710509F4B5C04091D4055091C1
:102B3000D5052D813E814217530708F4ABC00E9492
:102B400095198D819E819093D7058093D6051E821D
:102B50001D82CE0101960E94DE0781E00E94C4061C
:102B60008BE39FE10197F1F7E1E08091EB058111A3
:102B7000E0E0E195F0E0E852FA4F848980680E9435
:102B8000C4061A8219821C821B821E821D8266E084
:102B900070E0CE0101960E94E60729813A818111F9
:102BA00092C02115310519F0C9010E9439181A8205
:102BB00019821E821D821C821B82E090D205F09039
:102BC000D305E114F10409F488C00091D6051091F1
:102BD000D70501151105B9F08D819E81080F191FC8
:102BE000B801CE0101960E94E607882309F475C05A
:102BF00029813A818D819E81B701820F931F0E94A6
:102C000095191E830D834D815E8169817A8188EDDE
:102C100095E00E947D026AE671E088ED95E00E94F1
:102C20007607CE0101960E94DE078091D205909131
:102C3000D3053092FB042092FA049093F904809318
:102C4000F8045092F7044092F6047092F5046092F2
:102C5000F4041092F3041092F2049092F104809222
:102C6000F004B092EE04A092ED04D092EC04C09275
:102C7000EB041092EA04B0E5B093E90481E080939C
:102C8000E8048091E7048F5F87708093E704809366
:102C9000EF04EACE0E94391889819A819093D30576
:102CA0008093D2058B819C819093D5058093D40528
:102CB0008D819E819093D7058093D6051A821982C3
:102CC0001C821B8244CF86E090E09E838D8362ED60
:102CD00071E0C9010E94951970CF89819A8100978E
:102CE00011F00E9439181A8219821E821D821C82DC
:102CF0001B8289CF80E090E0892B09F4A5CE0E9449
:102D00001903882309F4A0CE0E9400009DCE82ED15
:102D100095E00C94DE07FB01DC0102C005900D92EA
:102D200041505040D8F70895BB272A3051F49923D9
:102D300042F4BDE290958095709561957F4F8F4FDD
:102D40009F4F0C94A416BB27FA01A62F621771059A
:102D500081059105330B30FB66F0AA27660F771FBC
:102D6000881F991FAA1FA21710F0A21B6395385045
:102D7000A9F7A05DAA3308F0A95DA19336F7B111B8
:102D8000B1931082CA010C94C516DC01FC01672FB7
:102D900071917723E1F7329704C07C916D93708332
:102DA0006291AE17BF07C8F30895F999FECF92BD9F
:102DB00081BDF89A992780B50895052E97FB1EF4DA
:102DC00000940E94F41657FD07D00E94461707FC96
:102DD00003D04EF40C94F4165095409530952195FF
:102DE0003F4F4F4F5F4F0895909580957095619537
:102DF0007F4F8F4F9F4F08950E946817A59F900D9A
:102E0000B49F900DA49F800D911D11240895B7FFCC
:102E10000C94FC160E94FC16821B930B08952F92B3
:102E20003F924F925F926F927F928F929F92AF925A
:102E3000BF92CF92DF92EF92FF920F931F93CF93A7
:102E4000DF93CDB7DEB7CA1BDB0B0FB6F894DEBF3E
:102E50000FBECDBF09942A88398848885F846E8464
:102E60007D848C849B84AA84B984C884DF80EE80AE
:102E7000FD800C811B81AA81B981CE0FD11D0FB6B7
:102E8000F894DEBF0FBECDBFED010895A1E21A2E6A
:102E9000AA1BBB1BFD010DC0AA1FBB1FEE1FFF1FFE
:102EA000A217B307E407F50720F0A21BB30BE40B4E
:102EB000F50B661F771F881F991F1A9469F7609595
:102EC0007095809590959B01AC01BD01CF0108954F
:102ED000A29FB001B39FC001A39F700D811D11245B
:102EE000911DB29F700D811D1124911D0895991B94
:102EF00079E004C0991F961708F0961B881F7A95F1
:102F0000C9F780950895AA1BBB1B51E107C0AA1FF2
:102F1000BB1FA617B70710F0A61BB70B881F991F7A
:102F20005A95A9F780959095BC01CD010895EE0FB3
:102F3000FF1F0590F491E02D09940F931F93CF93F9
:102F4000DF938230910510F482E090E0E091F20589
:102F5000F091F30530E020E0B0E0A0E0309799F484
:102F60002115310509F44AC0281B390B24303105DD
:102F7000D8F58A819B816115710589F1FB019383E5
:102F80008283FE0111C04081518102811381481763
:102F90005907E0F04817590799F4109761F0129615
:102FA0000C93129713961C933296CF01DF91CF9119
:102FB0001F910F9108950093F2051093F305F4CF3C
:102FC0002115310551F04217530738F0A901DB01F3
:102FD0009A01BD01DF01F801C1CFEF01F9CF909354
:102FE000F3058093F205CDCFFE01E20FF31F81932D
:102FF00091932250310939832883D7CF2091F0054E
:103000003091F105232B41F42091360130913701A5
:103010003093F1052093F005209134013091350172
:103020002115310541F42DB73EB74091380150913B
:103030003901241B350BE091F005F091F105E21701
:10304000F307A0F42E1B3F0B2817390778F0AC01CB
:103050004E5F5F4F2417350748F04E0F5F1F5093A8
:10306000F1054093F005819391939FCFF0E0E0E06C
:103070009CCFCF93DF930097E9F0FC013297138246
:103080001282A091F205B091F305ED0130E020E04D
:103090001097A1F420813181820F931F2091F005B8
:1030A0003091F1052817390709F061C0F093F10557
:1030B000E093F005DF91CF910895EA01CE17DF0785
:1030C000E8F54A815B819E0141155105B1F7E9019F
:1030D000FB83EA8349915991C40FD51FEC17FD0773
:1030E00061F4808191810296840F951FE901998393
:1030F0008883828193819B838A83F0E0E0E012964B
:103100008D919C9113970097B9F52D913C91119752
:10311000CD010296820F931F2091F0053091F105A9
:103120002817390739F6309751F51092F3051092A8
:10313000F205B093F105A093F005BCCFD383C28311
:1031400040815181840F951FC817D90761F44E5FE4
:103150005F4F88819981480F591F518340838A812D
:103160009B81938382832115310509F0B0CFF093C1
:10317000F305E093F2059ECFFD01DC01C0CF138281
:103180001282D7CFB0E0A0E0E8ECF8E10C94111780
:103190008C01009751F4CB010E949D178C01C8014E
:1031A000CDB7DEB7E0E10C942D17FC01E60FF71F59
:1031B0009C0122503109E217F30708F49DC0D901A0
:1031C000CD91DC911197C617D70798F0C530D1057E
:1031D00030F3CE0104978617970708F3C61BD70B69
:1031E0002297C193D1936D937C93CF010E9439189C
:1031F000D6CF5B01AC1ABD0A4C018C0E9D1EA0916E
:10320000F205B091F305512C412CF12CE12C1097D3
:1032100031F58091F0059091F1058815990509F037
:103220005CC04616570608F058C080913401909152
:103230003501009741F48DB79EB740913801509108
:103240003901841B950BE817F90708F055C0F09376
:10325000F105E093F005F90171836083A0CF8D91B2
:103260009C91119712966C90129713967C901397DD
:10327000A815B90559F56C0142E0C40ED11CCA1459
:10328000DB0420F1AC014A195B09DA0112961597AB
:1032900080F06282738251834083D9016D937C9365
:1032A000E114F10471F0D7011396FC93EE93129799
:1032B00076CF22968C0F9D1FF90191838083F301B5
:1032C000EFCFF093F305E093F20569CF4816590666
:1032D00008F42C017D01D3019ACFCB010E949D17E8
:1032E0007C01009749F0AE01B8010E948C19C80119
:1032F0000E943918870153CF10E000E050CFFB0146
:10330000DC0104C08D910190801921F4415050409E
:10331000C8F7881B990B0895FB01DC0102C00190DE
:103320000D9241505040D8F70895FB01DC01019007
:103330000D920020E1F70895FB01DC01415050405F
:1033400030F08D910190801919F40020B9F7881B95
:10335000990B089510E0CFECD0E004C0FE010E946C
:1033600097172196C03DD107C9F7F894FFCF417256
:103370006475696E6F2D454E4332386A36302D3094
:1033800030000000000000000000000000000A0102
:10339000A9FE5829A9FE5829A9FE582A7469692D41
:1033A00030310000F40580000000000039047D0287
:1033B00049047C02FFFFFFFFFFFF000000004F03F6
:1033C0007D02AA029C030D03B902FF020000000067
:1033D00070077D0249047C020D0A0056616C696425
:1033E000205441472C2041636365737320416C6C0A
:1033F0006F776564210054696D653A20003A004991
:103400006E76616C6964205441472C20416363658A
:1034100073732044656E6965640032303000536315
:10342000616E20796F75722052466964205441475D
:10343000005363616E20796F757220524669640093
:08344000524649443A20000005
:107E0000112484B714BE81FFF0D085E080938100F7
:107E100082E08093C00088E18093C10086E0809377
:107E2000C20080E18093C4008EE0C9D0259A86E02C
:107E300020E33CEF91E0309385002093840096BBD3
:107E4000B09BFECF1D9AA8958150A9F7CC24DD24C4
:107E500088248394B5E0AB2EA1E19A2EF3E0BF2EE7
:107E6000A2D0813461F49FD0082FAFD0023811F036
:107E7000013811F484E001C083E08DD089C08234E0
:107E800011F484E103C0853419F485E0A6D080C0E4
:107E9000853579F488D0E82EFF2485D0082F10E0AE
:107EA000102F00270E291F29000F111F8ED06801E7
:107EB0006FC0863521F484E090D080E0DECF843638
:107EC00009F040C070D06FD0082F6DD080E0C81688
:107ED00080E7D80618F4F601B7BEE895C0E0D1E017
:107EE00062D089930C17E1F7F0E0CF16F0E7DF06D8
:107EF00018F0F601B7BEE89568D007B600FCFDCFD4
:107F0000A601A0E0B1E02C9130E011968C91119780
:107F100090E0982F8827822B932B1296FA010C0160
:107F200087BEE89511244E5F5F4FF1E0A038BF0790
:107F300051F7F601A7BEE89507B600FCFDCF97BE46
:107F4000E89526C08437B1F42ED02DD0F82E2BD052
:107F50003CD0F601EF2C8F010F5F1F4F84911BD097
:107F6000EA94F801C1F70894C11CD11CFA94CF0C13
:107F7000D11C0EC0853739F428D08EE10CD085E9AC
:107F80000AD08FE07ACF813511F488E018D01DD067
:107F900080E101D065CF982F8091C00085FFFCCF94
:107FA0009093C60008958091C00087FFFCCF809118
:107FB000C00084FD01C0A8958091C6000895E0E648
:107FC000F0E098E1908380830895EDDF803219F02E
:107FD00088E0F5DFFFCF84E1DECF1F93182FE3DFCA
:107FE0001150E9F7F2DF1F91089580E0E8DFEE27F6
:047FF000FF270994CA
:027FFE00040479
:00000001FF
