:020000040000FA
:100000000C94CA000C94F2000C94F2000C94F200D0
:100010000C94F2000C94F2000C94F2000C94F20098
:100020000C94F2000C94F2000C94F2000C94F20088
:100030000C94F2000C94F2000C94F2000C94F20078
:100040000C949A0D0C94F2000C940A0E0C94E40D8E
:100050000C94F2000C94F2000C94F2000C94F20058
:100060000C94F2000C94F2006382536300010800C8
:100070000604000100504F53542024462048545495
:10008000502F312E300D0A486F73743A2024460DDC
:100090000A244624534163636570743A202A2F2A48
:1000A0000D0A436F6E74656E742D4C656E677468CF
:1000B0003A2024440D0A436F6E74656E742D547992
:1000C00070653A206170706C69636174696F6E2F3E
:1000D000782D7777772D666F726D2D75726C656EE2
:1000E000636F6465640D0A0D0A245300474554206C
:1000F0002446245320485454502F312E300D0A48A2
:100100006F73743A2024460D0A24460D0A0D0A0026
:100110004500008200004000204163636570743A2E
:1001200020746578742F68746D6C003136392E3206
:1001300035342E38382E3431002F68656C6C6F2FB3
:100140000000000000240027002A00000000002515
:100150000028002B00040404040404040402020226
:1001600002020203030303030301020408102040F8
:100170008001020408102001020408102000000081
:100180000800020100000304070000000000000056
:100190000000FC1011241FBECFEFD8E0DEBFCDBFA2
:1001A00011E0A0E0B1E0EAEEF3E202C005900D92AA
:1001B000A23CB107D9F724E0A2ECB1E001C01D9246
:1001C000A530B207E1F710E0CAECD0E004C02197F7
:1001D000FE010E94BC11C93CD107C9F70E948B0ED9
:1001E0000C94F3110C940000CF93DF9320916403DF
:1001F0002223C1F0FC0120812223A1F0C4E6D3E038
:10020000A0E6B3E09C012C5F3F4F899141919D9105
:100210008427892339F4E217F307B9F781E0DF91E6
:10022000CF91089580E0FBCFCF93DF93EC01FB01EA
:100230008A30910548F06AE070E00E947B11CB01A2
:10024000BF010E941401FC01CE016AE070E00E942F
:100250007B11805D80831182CF010196DF91CF9168
:10026000089590E0FC01E358FE4F2491FC01E7590A
:10027000FE4F3491FC01EB5AFE4FE491EE23C9F09E
:10028000222339F0233001F1A8F4213019F1223072
:1002900029F1F0E0EE0FFF1FE55BFE4FA591B49151
:1002A0008FB7F894EC91611126C030953E233C93B2
:1002B0008FBF08952730A9F02830C9F0243049F7BE
:1002C000809180008F7D03C0809180008F77809324
:1002D0008000DFCF84B58F7784BDDBCF84B58F7D81
:1002E000FBCF8091B0008F778093B000D2CF809108
:1002F000B0008F7DF9CF3E2BDACFCF93DF9390E024
:10030000FC01E759FE4F24918B5A9E4FFC018491CA
:100310008823D1F090E0880F991FFC01EF5BFE4F1E
:10032000A591B491FC01E55BFE4FC591D49161119B
:100330000EC09FB7F8948C91E22FE0958E238C939A
:100340002881E223E8839FBFDF91CF9108958FB783
:10035000F894EC91E22BEC938FBFF6CF3FB7F89473
:1003600080915C0390915D03A0915E03B0915F0367
:1003700026B5A89B05C02F3F19F00196A11DB11D00
:100380003FBFBA2FA92F982F8827BC01CD01620F3C
:10039000711D811D911D42E0660F771F881F991FF7
:1003A0004A95D1F708952FB7F8946091580370914A
:1003B000590380915A0390915B032FBF0895AF9228
:1003C000BF92CF92DF92EF92FF920F931F93CF9342
:1003D000DF936C017B018B01040F151FEB015E01A4
:1003E000AE18BF08C017D10759F06991D601ED9139
:1003F000FC910190F081E02DC6010995892B79F7D8
:10040000C501DF91CF911F910F91FF90EF90DF9089
:10041000CF90BF90AF900895FC01538D448D252F50
:1004200030E0842F90E0821B930B541710F0CF968E
:10043000089501970895FC01918D828D981761F0C0
:10044000A28DAE0FBF2FB11D5D968C91928D9F5FD7
:100450009F73928F90E008958FEF9FEF0895FC01B6
:10046000918D828D981731F0828DE80FF11D858D69
:1004700090E008958FEF9FEF0895FC01918D228DFC
:10048000892F90E0805C9F4F821B91098F73992781
:10049000089588E693E00E943D0221E0892B09F44B
:1004A00020E0822F089580E090E0892B29F00E94BF
:1004B000490281110C9400000895FC01A48DA80F3D
:1004C000B92FB11DA35ABF4F2C91848D90E0019696
:1004D0008F739927848FA689B7892C93A089B189B6
:1004E0008C91837080648C93938D848D981306C057
:1004F0000288F389E02D80818F7D80830895EF92BB
:10050000FF920F931F93CF93DF93EC0181E0888FCD
:100510009B8D8C8D98131AC0E889F989808185FF9D
:1005200015C09FB7F894EE89FF896083E889F9893F
:1005300080818370806480839FBF81E090E0DF9141
:10054000CF911F910F91FF90EF900895F62E0B8D94
:1005500010E00F5F1F4F0F731127E02E8C8D8E114F
:100560000CC00FB607FCFACFE889F989808185FFB6
:10057000F5CFCE010E945D02F1CFEB8DEC0FFD2F88
:10058000F11DE35AFF4FF0829FB7F8940B8FEA8971
:10059000FB8980818062CFCFCF93DF93EC01888D80
:1005A0008823B9F0AA89BB89E889F9898C9185FDEE
:1005B00003C0808186FD0DC00FB607FCF7CF8C917C
:1005C00085FFF2CF808185FFEDCFCE010E945D02D5
:1005D000E9CFDF91CF9108958091FA019091FB01CD
:1005E00098278927982744972091180230E044E003
:1005F000359527954A95E1F7220F331F220F331FB8
:10060000821B930B97FF02C090E080E008950F9348
:100610001F93CF93DF9370E066517E4F8A01075F8F
:100620001F4F213029F0223031F48A010250110984
:1006300030E020E003C000E010E09801EB01FA0197
:10064000E230F10558F0A991B991BA27AB27BA2742
:100650000A0F1B1F211D311D3297F2CFFA01EE7FC9
:100660006E0F7F1F4E175F0769F0FB01408150E05E
:1006700070E060E0762F652F542F4427040F151F7C
:10068000261F371FA90166277727411551056105E8
:10069000710519F022273327F1CF00951095E82F27
:1006A000F0E0E651FE4F10830183DF91CF911F915F
:1006B0000F910895EAEEF1E0108E118E80E4848BA4
:1006C000158A868B20E044E150E06EE088E10C94CE
:1006D0000703DC011696ED91FC9117979F012F5FA0
:1006E0003F4F17963C932E931697608381E090E0DE
:1006F0000895089590E080E008958EBD0DB407FE42
:10070000FDCF089561E080911A030E943101789431
:100710000895F89460E080911A030C9431010F93CE
:100720001F93CF93DF93EC018B010E9489032097E5
:10073000B9F08AE30E947D031EBCF801CE01019747
:1007400039F00DB407FEFDCF2EB51EBC2193F7CFB7
:100750002197C00FD11F0DB407FEFDCF8EB5888342
:10076000DF91CF911F910F910C9482031F93CF9330
:10077000DF93182FC62FD42F0E9489038C2F8F71DF
:10078000812B0E947D038D2F0E947D03DF91CF91ED
:100790001F910C948203CF93C82FC0768091C4011F
:1007A0008C1799F043E06FE180EA0E94B603C09392
:1007B000C4014C2F50E085E0559547958A95E1F7A7
:1007C0006FE180E8CF910C94B603CF910895CF9359
:1007D000DF93C82FD62F0E94CB034D2F6C2F80E4C0
:1007E000DF91CF910C94B603CF93DF93C82FD72F0F
:1007F0000E94E7036D2F81E08C0FDF91CF910C9465
:10080000E703CF93C82F0E94CB030E9489038C2F4C
:100810008F710E947D0380E00E947D03C7FF03C0AB
:1008200080E00E947D03CEB50E9482038C2FCF9181
:1008300008950F931F93CF93DF9300D000D000D083
:10084000CDB7DEB78091C701882379F06091C501EB
:100850007091C6016115710509F053C06FEF7BE01F
:100860008CE00E94F4031092C70189E30E94010406
:1008700010E000E08823C9F16091C5017091C601C4
:1008800080E00E94F403BE016F5F7F4F86E090E03E
:100890000E948F0389819A819093C6018093C5013C
:1008A0008D819E818C010078112787FF12C08B817A
:1008B0009C81049700911B0310911C0301501109A6
:1008C0008017910708F48C016AEE71E0C8010E945C
:1008D0008F03F801E651FE4F108281E08093C7013B
:1008E00040E46EE180E80E94B603C80126960FB688
:1008F000F894DEBF0FBECDBFDF91CF911F910F9156
:10090000089561507109ACCFCF93DF93EC0140E8BB
:100910006FE180E80E94B60340E86FE180EA0E9440
:10092000B6034AE06CE180EA0E94B60360E07CE036
:1009300082E00E94F403BE01745F86E00E94F4032B
:1009400040E060E08AE70E94B6030E948903209796
:10095000B1F08AE70E947D038091EA018EBDEBEE43
:10096000F1E0C651DE4FEC17FD0731F081910DB477
:1009700007FEFDCF8EBDF7CF0DB407FEFDCF0E9461
:10098000820348E06FE180E80E94B603D0E0C0E057
:100990008CE10E9401048A7029F42196C83E83E00C
:1009A000D807B1F78CE10E94010481FD03C0C83E65
:1009B000D34039F448E06FE180EADF91CF910C94A5
:1009C000B603DF91CF910895CF93DF93EB01682FAA
:1009D00084ED0E94E703BE0186ED0E94F4038AEED7
:1009E0000E94010480FDFBCFDF91CF910895CF924B
:1009F000DF92EF92FF920F931F938634910568F177
:100A000020910D02233449F5C0901802D0901902AC
:100A1000E0901A02F0901B020091CD011091CE01DE
:100A20002091CF013091D001C016D106E206F30625
:100A3000A1F4E4E0F3E086519E4F9F012E5F3F4F0B
:100A400041815081553319F45281651771F0F901D4
:100A5000E40FF11DE817F90780F380E01F910F9173
:100A6000FF90EF90DF90CF90089581E0F7CFE09175
:100A7000C201F091C3019F012F5F3F4F3093C3012B
:100A80002093C20180830895FF920F931F93CF9309
:100A9000DF93162FF42E052F0E943705812F0E9419
:100AA0003705CF2DD02F115020F089910E943705A6
:100AB000FACFDF91CF911F910F91FF900895FC0124
:100AC00001900020E9F73197AF01481B590BBC0199
:100AD00088E693E00C94DF018F929F92AF92BF92D1
:100AE0000F931F93CF93DF93CDB7DEB7A1970FB6C8
:100AF000F894DEBF0FBECDBF19A2423008F44AE021
:100B00008E010F5D1F4F842E912CB12CA12CA501BD
:100B100094010E948F11E62FB901CA01EA30F4F462
:100B2000E05DD801EE938D01232B242B252B79F743
:100B300090E080E0109719F0CD010E945F05A1962A
:100B40000FB6F894DEBF0FBECDBFDF91CF911F91DE
:100B50000F91BF90AF909F908F900895E95CE1CF87
:100B6000CF93DF93D0E0C0E0009719F00E945F05BB
:100B7000EC0188E591E00E945F058C0F9D1FDF91DD
:100B8000CF9108950F931F93CF93DF93EB018BE5E4
:100B900091E00E945F050E94D301009153031091E0
:100BA00054032091550330915603601B710B820B47
:100BB000930B4AE00E946C0586E691E00E94B00526
:100BC000CE0186519E4FDF91CF911F910F910C94D2
:100BD000B005DC0196E0FB0101900D929A95E1F7DA
:100BE0000895BC018AEE91E00E94E90564E273E099
:100BF00080EF91E00C94E905DC0194E0FB010190A9
:100C00000D929A95E1F7089580EF91E00E94F10529
:100C100064E072E088E092E00E94FC0564E673E024
:100C200084E092E00E94FC050C945A03CF93DF937A
:100C3000EB010E94F105BE0188E092E00E94FC05F4
:100C400064E673E084E092E0DF91CF910C94FC05C0
:100C5000CF93DF93EB0144E050E0BC0186E092E0EB
:100C60000E94D111892B49F460E072E0CE010E940C
:100C7000E90581E0DF91CF91089580E0FBCF0F93EC
:100C80001F93CF938C0180E491E00E94F105EAEE7E
:100C9000F1E088E08487C6E0C58748E050E06CE674
:100CA00070E088EF91E00E942911EAE0F2E0DF01B4
:100CB0001D92CA95E9F764E273E080E092E00E9439
:100CC000E905B80180E192E00E94FC0564E673E06A
:100CD00086E092E00E94FC058AE290E0CF911F91AD
:100CE0000F910C948404EF92FF920F931F93CF9374
:100CF000DF938C01EAEEF1E086E191E0DF019C01F7
:100D00001D9221503040E1F78091DD01C0E4D1E037
:100D1000833011F4C8ECD1E0CE010E94F400BE0192
:100D2000882309F4ACC08EED91E00E9416068881FC
:100D3000807F803E91F088819981AA81BB818F3F1D
:100D40009F4FAF4FBF4F49F044E050E0BE018AE2F1
:100D500093E00E94D111892B31F460E471E08AEEB6
:100D600091E00E94E90588E08093F6011092F70176
:100D700049E050E060E171E088EF91E00E942911C4
:100D80001092FA0181E18093010210920E0283E435
:100D900080930F0210920C0284E480930D02109253
:100DA0001002109212021092130260E471E08AEEB7
:100DB00091E00E94E90581E080931402809315027E
:100DC00086E0809316028091CD019091CE01A09192
:100DD000CF01B091D0018093180290931902A09393
:100DE0001A02B0931B02C091DD01C33031F464E6F6
:100DF00073E080E292E00E94FC0564E273E080E32D
:100E000092E00E94E90580E093E09093C301809313
:100E1000C201E8E6F0E084910E943705E9E6F0E0DF
:100E200084910E943705EAE6F0E084910E9437053C
:100E3000EBE6F0E084910E94370585E30E943705D8
:100E400081E00E94370583E0C11101C081E00E946A
:100E500037058DE30E94370587E00E94370581E062
:100E60000E94370584E2E82E83E0F82EC7E0C150E7
:100E700049F0D7018D917D010E943705F8CF84EEAE
:100E800091E053CF80910001882371F060E071E020
:100E9000FB0101900020E9F7BF016150714040E083
:100EA00051E08CE00E9444050115110559F0A8019C
:100EB00064E082E30E94440548EC51E064E086E38C
:100EC0000E94440587E30E94370583E00E943705AE
:100ED00081E00E94370583E00E94370586E00E948A
:100EE00037058FEF0E943705C091C201D091C30131
:100EF000C451D240CE014C969093FA018093FB01ED
:100F00000E945A03CE01089690931002809311021A
:100F1000AE01405F5F4F21E06AE188E20E94070373
:100F2000CE018A96DF91CF911F910F91FF90EF90A4
:100F30000C9484048F929F92AF92BF92CF92DF92D3
:100F4000EF92FF920F931F93CF93DF9300D000D0C7
:100F5000CDB7DEB77C0180913803882369F080919A
:100F6000DD01823009F4F1C008F0E9C0882309F4FA
:100F700074C1813009F490C1E114F10409F02BC26D
:100F800080913903857029F1809132039091330368
:100F9000892BF9F461E184ED0E94E70361E082EDC1
:100FA0000E94E7038AEE0E94010480FDFBCF60E00F
:100FB00082ED0E94E70389ED0E94010482FF09C0CF
:100FC0008EE293E00E943F0680913903886080930F
:100FD0003903809132039091330301969093330348
:100FE0008093320380913F03813009F079C0809172
:100FF000390381FF75C082E080933F038091210116
:101000008F5F80932101F0904003E09041031091A5
:101010003E03A0E21A9F900111248F71182F122B0A
:101020008AE393E00E94F4006AE373E0882309F402
:10103000BFC18EED91E00E94160608E00093F60114
:101040001092F70149E050E060E171E088EF91E033
:101050000E9429118CE28093FB0186E080930102BB
:101060000E945A03E0920E02F0920F028BE08093EE
:101070000C0210930D02E0E1F2E0DF011D920A95EF
:10108000E9F780912001809312028D5F8093200107
:1010900080E68093180282E08093190293E0909397
:1010A0001A0210921B0210921C0210921D02109242
:1010B0001E0210921F028093200294E0909321025E
:1010C0008093220286E28093230222E040E250E0F5
:1010D0006AE182E30E9407038AE390E00E948404AD
:1010E00084E393E00E94F400882379F0809119034F
:1010F00081110BC080911803811107C084E393E034
:101100000E943F0681E0809318038AE393E00E94E7
:10111000F400811150C110E000E0C8010F900F9061
:101120000F900F90DF91CF911F910F91FF90EF9053
:10113000DF90CF90BF90AF909F908F9008958330B5
:1011400009F456C0843009F017CF65E0C7010E944A
:10115000F704882309F4C9C08091CC01811108C02B
:1011600088E30E940104682F6E7F88E30E94E703F2
:1011700064E272E084E693E00E94FC05E4E0F3E0C0
:10118000C70186519E4F6C018F010E5F1F4FB180CA
:101190008081863009F4FBC008F0BEC0813009F4BC
:1011A000ECC0833009F4EFC0F801EB0DF11DEC1534
:1011B000FD0550F30E94D3016093D5017093D601D1
:1011C0008093D7019093D80180912E03882361F0FA
:1011D000109233031092320381E0809339036EE260
:1011E00073E0CB010E94FC0583E08093DD01C4CE57
:1011F0008090D9019090DA01A090DB01B090DC01E1
:101200002FEF82169206A206B20609F4B5CE0E940E
:10121000D3010091D5011091D6012091D7013091D1
:10122000D801601B710B820B930B681579058A0539
:101230009B0508F4A1CE84E693E00E94730684E047
:101240008093DD010E94D3016093D1017093D2019C
:101250008093D3019093D4018FCE0E94D3016093E9
:10126000CD017093CE018093CF019093D001E4E63D
:10127000F3E084E0DF011D928A95E9F790E080E0D9
:101280000E94730688E30E940104682F616088E36E
:101290000E94E70381E0D4CF62E0C7010E94F70417
:1012A000882319F164E272E0CE0101960E94FC05E8
:1012B000E4E0F3E0C70186519E4FBF016E5F7F4FB0
:1012C00021813081363351F488EC91E00E94FC0595
:1012D000CE0101960E94730682E0B2CFFB01E20FBD
:1012E000F11DE817F90748F3F3CF0E94D3010091ED
:1012F000D1011091D2012091D3013091D401601B12
:10130000710B820B930B613177428105910508F4D3
:1013100033CE1092DD0130CE8A3331F08F3F09F4A5
:1013200049CF833309F040CF1092D9011092DA01EE
:101330001092DB011092DC01F801C801049620E054
:1013400030E0A9016191542F432F322F2227260F1D
:10135000311D411D511D8E179F07A1F72F3F9FEF94
:10136000390749075907B9F42093D9013093DA01B5
:101370004093DB015093DC0117CFB80180E693E086
:101380000E94FC0511CFB8018EE293E0F9CFB801BD
:1013900084E393E0F5CFA8EEB3E00E94B11160932F
:1013A000D9017093DA018093DB019093DC01FCCECC
:1013B00084EE91E040CE809117038111ACCE8091F4
:1013C00016038111A8CE8AE393E00E943F0681E0D4
:1013D00080931603A0CEB9E2EB16F10408F49BCE7D
:1013E0008091F601883009F096CE8091F701863021
:1013F00009F09FC144E050E064E673E080E192E0D0
:101400000E94D111892B09F086CE8091FF01813095
:1014100029F580EF91E00E94F1051092FE0182E033
:101420008093FF0160E072E08AE092E00E94E905AB
:1014300064E273E080E092E00E94E90566E072E019
:1014400080E192E00E94FC0564E673E086E092E0B1
:101450000E94FC058AE290E00E9484048091390396
:1014600083FF0DC01091FF01123049F464EE71E06A
:101470008EE293E00E942806811110933903809137
:101480001903811111C080911803882369F06EED52
:1014900071E084E393E00E942806882329F081E02C
:1014A000809319031092180380911703811133CE92
:1014B00080911603882309F42ECE6EED71E08AE345
:1014C00093E00E942806882309F425CE81E08093CA
:1014D0001703109216031FCE26E3E216F10408F458
:1014E0001ACE863009F017CE80910E028B3009F0AB
:1014F000BAC044E050E06AE373E084E092E00E9406
:10150000D111892B09F007CED0901902D2FE15C057
:10151000E0914403F0914503309759F080910F0218
:1015200030E020E050E040E063E0829586958770EF
:10153000099585E080933F03EECD0E94EC028C017B
:1015400080913F03823009F045C09D2D90718D2D13
:101550008271823189F560E090E080E00E94670E40
:1015600088E180931902E0914203F091430310E077
:1015700000E0309739F080910D0282958695877052
:1015800009958C0183E080933F03C801889690936E
:10159000FA018093FB010E945A0310921C021092E0
:1015A0001D02A801445E5F4F22E06AE182E30E94CF
:1015B0000703C801C69603C181E080933F039111E0
:1015C00006C0C801019664E00E94670EA4CD90E0B9
:1015D00080E0F9CF8330A1F501151105A1F1E0916B
:1015E0004403F0914503309771F18091180290E027
:1015F00024E0959587952A95E1F7880F991F880F24
:10160000991F8296A701485051098417950708F43D
:10161000AC01C801840F951F9701241B350BE816F8
:10162000F90608F0980180910F0260E08295869596
:101630008770099569E0C8010E94670E86E07ACF3D
:10164000853009F468CDD0FE07C0833009F463CD3E
:1016500069E0C8010196F0CF0115110509F45BCDD1
:1016600060E0C801B1CF811156CD80910F02803565
:1016700009F051CDD0901902D1FE39C01092FA0173
:101680008CE28093FB010E94040682E180931902A0
:1016900060E081E090E00E943C0E109210021092F7
:1016A00011028091200180931202109213028D5F2B
:1016B0008093200182E08093200284E080932102C5
:1016C00085E0809322021092230290E69093180204
:1016D00080931A0288E780931B0222E040E250E0E8
:1016E0006AE182E30E9407038AE390E068C0D4FEC7
:1016F00012CD0E94EC028C01892B99F00091180206
:1017000010E084E0159507958A95E1F7000F111F09
:10171000000F111F0E5D1F4FE016F10608F0FDCC03
:10172000FACCD0FEF8CC60E090E080E00E94670E3A
:10173000F4CC99E2E916F10409F4EDCC8111EBCC7B
:101740008091F801853409F0E6CC44E050E064E68D
:1017500073E088E092E00E94D111892BA9F044E067
:1017600050E06AE273E088E092E00E94D111892B98
:1017700059F044E050E060E471E088E092E00E94BB
:10178000D111892B09F0C7CC80910102813009F079
:10179000A3CE80910C02883009F0BDCC0E940406D3
:1017A00010920C0280910E02883F28F090910F0257
:1017B0009F5F90930F02885F80930E02C7010E9483
:1017C0008404A9CC0F931F93CF93DF938901909149
:1017D0004603981781F0E0914703F091480350E0E9
:1017E00040E070E060E084E0099580E0DF91CF9117
:1017F0001F910F9108956111F8CF2D303105A8F395
:10180000C0914703D0914803209779F3BA016D50F6
:101810007E4F43E050E08AE691E00E94E51160913E
:10182000180270E024E0759567952A95E1F7660F38
:10183000771F660F771F6E5D7F4F21E0892B09F4BC
:1018400020E0A801822FFE01CFCFAF92BF92CF92AE
:10185000DF92EF92FF920F931F93CF93DF93CDB759
:10186000DEB7ED84FE84CF84D8888E010F5E1F4FD3
:10187000C6010196F6012491222309F4D1C0243235
:1018800079F0D7011696ED91FC911797AF014F5F54
:101890005F4F17965C934E93169720836C01E8CFA9
:1018A000B2E0CB0ED11CFC018491863409F481C0D6
:1018B000A0F4843409F44CC0853409F494C0D701F1
:1018C0001696ED91FC9117979F012F5F3F4F17964A
:1018D0003C932E9316978083CBCFD70116964D91CC
:1018E0005C918C3409F44DC0833509F457C08834B9
:1018F00031F7B8016E5F7F4FF8019081292F092ED3
:10190000000C330B84E0359527958A95E1F72F700D
:101910009F709A300CF0995F905D2A300CF0295F2F
:10192000FA013196D7011796FC93EE931697205D36
:10193000FA0120831696ED91FC9117979F012F5F76
:101940003F4F17963C932E93169790838B0190CF21
:101950005801B2E0AB0EB11CF70166817781D80166
:101960008D919C910E941401F70186819781DC0181
:101970000D900020E9F7CD010197978386838501BB
:1019800077CF5801F4E0AF0EB11CD8016D917D9175
:101990008D919C912AE00E943211E6CF5801B2E06D
:1019A000AB0EB11CF80160817181CA010E94DE1189
:1019B000DBCFF8010190F081E02D0E5F1F4F849185
:1019C0003196882309F454CFD70116964D915C9136
:1019D00017979A012F5F3F4F17963C932E931697B8
:1019E000DA018C93ECCFF801808191810E5F1F4F5B
:1019F0005C01BFEFAB1ABB0A0E947311882309F484
:101A000037CFD7011696ED91FC9117979F012F5F65
:101A10003F4F17963C932E9316978083C501E8CFCE
:101A2000DF91CF911F910F91FF90EF90DF90CF90BA
:101A3000BF90AF9008950F931F93CF93DF93CDB7CF
:101A4000DEB728970FB6F894DEBF0FBECDBF1C825D
:101A50001B8228E331E03A83298320E232E03E838F
:101A60002D8338872F839091460398132EC0A09121
:101A70004903B0914A0310914D0300914E036091C8
:101A800051037091520380914B0390914C03AE012E
:101A90004F5F5F4F109751F59F938F930F931F9355
:101AA000809150038F9380914F038F937F936F9317
:101AB0008CEE90E09F938F935F934F930E94250C41
:101AC0000FB6F894DEBF0FBECDBF8F8198852D81F4
:101AD0003E81821B930B28960FB6F894DEBF0FBE93
:101AE000CDBFDF91CF911F910F910895FD0101901E
:101AF0000020E9F73197EA1BFB0B28E531E000975E
:101B000021F42AE531E084E790E0BF93AF93FF939F
:101B1000EF933F932F939F938F930F931F937F93F5
:101B20006F9385E790E09F938F935F934F930E940D
:101B3000250CC6CF1F920F920FB60F9211242F9330
:101B40003F938F939F93AF93BF938091580390914E
:101B50005903A0915A03B0915B033091570323E0DE
:101B6000230F2D3758F50196A11DB11D2093570362
:101B70008093580390935903A0935A03B0935B0347
:101B800080915C0390915D03A0915E03B0915F032F
:101B90000196A11DB11D80935C0390935D03A093FA
:101BA0005E03B0935F03BF91AF919F918F913F917F
:101BB0002F910F900FBE0F901F90189526E8230FBE
:101BC0000296A11DB11DD2CF1F920F920FB60F9298
:101BD00011242F933F934F935F936F937F938F9332
:101BE0009F93AF93BF93EF93FF9388E693E00E9498
:101BF0005D02FF91EF91BF91AF919F918F917F9186
:101C00006F915F914F913F912F910F900FBE0F9069
:101C10001F9018951F920F920FB60F9211242F93B9
:101C20008F939F93EF93FF93E0917803F091790363
:101C30008081E0917E03F0917F0382FD1BC0908143
:101C4000809181038F5F8F7320918203821741F00F
:101C5000E0918103F0E0E859FC4F958F8093810378
:101C6000FF91EF919F918F912F910F900FBE0F9049
:101C70001F9018958081F4CF20910E0230910C02B4
:101C800030930E0220930C0220910F0230910D022E
:101C900030930F0220930D02EAEEF1E021A5820FAE
:101CA000911D25A585A7662381F021A7892F992756
:101CB000319721E0E63EF20789F710921C0210925C
:101CC0001D0280E580931802089511A6EFCF262FFC
:101CD000206120931902643021F0009711F481E013
:101CE00090E061E00E943C0E1092FA0188E280933D
:101CF000FB010E94040684E080931A0210921B02EA
:101D000022E04CE150E06AE182E30E94070386E3AF
:101D100090E00C948404789484B5826084BD84B58A
:101D2000816084BD85B5826085BD85B5816085BDD6
:101D300080916E00816080936E001092810080918E
:101D40008100826080938100809181008160809316
:101D50008100809180008160809380008091B1003B
:101D600084608093B1008091B00081608093B00066
:101D700080917A00846080937A0080917A008260FA
:101D800080937A0080917A00816080937A008091BC
:101D90007A00806880937A001092C100E091780305
:101DA000F091790382E08083E0917403F0917503F0
:101DB0001082E0917603F09177038FEC808310928C
:101DC0008003E0917C03F0917D0386E08083E091C5
:101DD0007A03F0917B03808180618083E0917A03B4
:101DE000F0917B03808188608083E0917A03F09199
:101DF0007B03808180688083E0917A03F0917B038C
:101E000080818F7D80838EE691E00E94B0051092E4
:101E1000380387E390E0C12CD12C7601C39400975E
:101E2000C1F0FC01A3E0F595E795AA95E1F7E35E23
:101E3000FC4F282F2770B701A60104C0440F551F7F
:101E4000661F771F2A95D2F72081242B20830197C4
:101E5000E6CF6EE271E084E293E00E94E9058CE255
:101E600091E090931C0380931B030CB406FC25C0E7
:101E700061E08AE00E947D0161E08AE00E94310118
:101E800061E08BE00E947D0161E08DE00E947D01B8
:101E900060E08CE00E947D0161E08BE00E943101F6
:101EA00060E08BE00E94310160E08DE00E94310132
:101EB00080E58CBD8DB581608DBD8AE080931A036D
:101EC00061E00E947D010E9482034FEF60E08FEF8E
:101ED0000E94B6030E94AE016B017C01E2E08E2EEF
:101EE000912CA12CB12C0E94AE016C197D098E0998
:101EF0009F09683E734081059105A8F328EEC20E44
:101F000023E0D21EE11CF11C8A9489288A288B28A0
:101F100029F0812C912C54018394E5CF0E948903F0
:101F20008DE10E947D0380E00E947D03CEB50E947A
:101F30008203CC2399F370E060E088E00E94F40310
:101F400070E060E08CE00E94F4036FEF7BE08AE0D9
:101F50000E94F40360E07CE084E00E94F4036FEFF1
:101F600071E186E00E94F40366E774E084E10E9478
:101F7000E40461EB88E30E94E7036FE370E388E227
:101F80000E94F40369EF77EF80E30E94F40361E0BD
:101F900080EC0E94E70342E362EC80E80E94B60313
:101FA00062E17CE086EC0E94F40362E184EC0E9432
:101FB000E7036CED75E08AEC0E94F4036091240362
:101FC00084EE0E94E7036091250385EE0E94E703FB
:101FD0006091260382EE0E94E7036091270383EE5F
:101FE0000E94E7036091280380EE0E94E70360915E
:101FF000290381EE0E94E70360E071E080E10E9426
:10200000E4048FE10E94CB0340EC6BE180E80E9486
:10201000B60344E06FE180E80E94B60382E70E94C5
:102020000104863008F08F5F811104C08DE791E0D4
:102030000E94B005109238036AE271E084E693E0F2
:102040000E94FC05109233031092320381E08093CA
:10205000390366E271E08EE293E00E94FC05E4E65B
:10206000F3E0C0E6D3E0AAE2B3E0919189918095D4
:10207000892B8D9323E0E836F207B9F762E271E02D
:102080008AE393E00E94FC0582EA91E00E945F05EA
:102090000AE313E0C0E0F80161918F0170E090E085
:1020A00080E04AE00E946C05C33029F06EE288E6C9
:1020B00093E00E947F02CF5FC43069F788E591E02A
:1020C0000E945F058091390381FD05C00E941904BB
:1020D0000E949A07F7CF8BEA91E00E94B00588E74B
:1020E0009CEEAFEFBFEF8093530390935403A09304
:1020F0005503B09356032BE1422E2DE0522E39E3C7
:10210000632E31E0732E4AE5842E41E0942ECBE21B
:10211000D1E009E111E052ECE52E55E0F52E62EE3A
:10212000C62E6BE0D62E80E5382E2224239490E034
:10213000A92E90E0B92E0E9419040E949A070E94CD
:10214000D301AB01BC018091530390915403A09142
:102150005503B091560388579C4EAF4FBF4F84171D
:102160009507A607B707E0F50E94D30160935303D4
:1021700070935403809355039093560389EB91E039
:102180000E94B005709252036092510390925003E6
:1021900080924F03D0934E03C0934D0310934C0392
:1021A00000934B0310924A0310924903F0924803A4
:1021B000E0924703D0924503C092440350924303F8
:1021C00040924203109241033092400320923F0319
:1021D00080913E038F5F877080933E038093460318
:1021E000A114B10409F4A7CF0E944902882309F47D
:1021F0009ACF0E94000097CFE8E6F3E013821282A4
:1022000088EE93E0A0E0B0E084839583A683B78353
:102210008AE491E09183808385EC90E095878487C0
:1022200084EC90E09787868780EC90E0918B808BA0
:1022300081EC90E0938B828B82EC90E0958B848B89
:1022400086EC90E0978B868B118E128E138E148EF7
:102250000895FB01DC0102C005900D9241505040F1
:10226000D8F70895BB272A3051F4992342F4BDE2F0
:1022700090958095709561957F4F8F4F9F4F0C94EF
:102280004211BB27FA01A62F62177105810591053E
:10229000330B30FB66F0AA27660F771F881F991F44
:1022A000AA1FA21710F0A21B63953850A9F7A05DD2
:1022B000AA3308F0A95DA19336F7B111B19310824A
:1022C000CA010C946311DC01FC01672F7191772323
:1022D000E1F7329704C07C916D9370836291AE17E1
:1022E000BF07C8F30895F999FECF92BD81BDF89A52
:1022F000992780B50895AA1BBB1B51E107C0AA1FEF
:10230000BB1FA617B70710F0A61BB70B881F991F96
:102310005A95A9F780959095BC01CD010895A1E249
:102320001A2EAA1BBB1BFD010DC0AA1FBB1FEE1F4F
:10233000FF1FA217B307E407F50720F0A21BB30B9A
:10234000E40BF50B661F771F881F991F1A9469F716
:1023500060957095809590959B01AC01BD01CF0172
:1023600008950E94C211A59F900DB49F900DA49F47
:10237000800D911D11240895EE0FFF1F0590F4911B
:10238000E02D0994A29FB001B39FC001A39F700DDF
:10239000811D1124911DB29F700D811D1124911D6D
:1023A0000895FB01DC0104C08D910190801921F496
:1023B00041505040C8F7881B990B0895FB01DC0180
:1023C00001900D920020E1F70895FB01DC014150DE
:1023D000504030F08D910190801919F40020B9F728
:1023E000881B990B0895F894FFCF41726475696E4C
:1023F0006F2D454E4332386A36302D3030000000A4
:10240000000000000000000000000A01A9FE582999
:10241000A9FE5829A9FE582A02004C4F4F5000002F
:1024200000006903DF017A037903FFFFFFFFFFFF6D
:10243000000000007F02DF010C02CC023D021B0203
:102440002F020D0A003C3C3C207265706C79200024
:10245000206D7300323030000A5B6765745374611D
:1024600074696349505D004661696C656420746FEE
:10247000206163636573732045746865726E65746B
:1024800020636F6E74726F6C6C6572005365727648
:1024900065723A20004761746577617920666F75CF
:0C24A0006E64000A3E3E3E205245510092
:107E0000112484B714BE81FFF0D085E080938100F7
:107E100082E08093C00088E18093C10086E0809377
:107E2000C20080E18093C4008EE0C9D0259A86E02C
:107E300020E33CEF91E0309385002093840096BBD3
:107E4000B09BFECF1D9AA8958150A9F7CC24DD24C4
:107E500088248394B5E0AB2EA1E19A2EF3E0BF2EE7
:107E6000A2D0813461F49FD0082FAFD0023811F036
:107E7000013811F484E001C083E08DD089C08234E0
:107E800011F484E103C0853419F485E0A6D080C0E4
:107E9000853579F488D0E82EFF2485D0082F10E0AE
:107EA000102F00270E291F29000F111F8ED06801E7
:107EB0006FC0863521F484E090D080E0DECF843638
:107EC00009F040C070D06FD0082F6DD080E0C81688
:107ED00080E7D80618F4F601B7BEE895C0E0D1E017
:107EE00062D089930C17E1F7F0E0CF16F0E7DF06D8
:107EF00018F0F601B7BEE89568D007B600FCFDCFD4
:107F0000A601A0E0B1E02C9130E011968C91119780
:107F100090E0982F8827822B932B1296FA010C0160
:107F200087BEE89511244E5F5F4FF1E0A038BF0790
:107F300051F7F601A7BEE89507B600FCFDCF97BE46
:107F4000E89526C08437B1F42ED02DD0F82E2BD052
:107F50003CD0F601EF2C8F010F5F1F4F84911BD097
:107F6000EA94F801C1F70894C11CD11CFA94CF0C13
:107F7000D11C0EC0853739F428D08EE10CD085E9AC
:107F80000AD08FE07ACF813511F488E018D01DD067
:107F900080E101D065CF982F8091C00085FFFCCF94
:107FA0009093C60008958091C00087FFFCCF809118
:107FB000C00084FD01C0A8958091C6000895E0E648
:107FC000F0E098E1908380830895EDDF803219F02E
:107FD00088E0F5DFFFCF84E1DECF1F93182FE3DFCA
:107FE0001150E9F7F2DF1F91089580E0E8DFEE27F6
:047FF000FF270994CA
:027FFE00040479
:00000001FF
