:100000000C945D000C9485000C9485000C94850084
:100010000C9485000C9485000C9485000C9485004C
:100020000C9485000C9485000C9485000C9485003C
:100030000C9485000C9485000C9485000C9485002C
:100040000C9494120C9485000C9404130C94DE12FE
:100050000C9485000C9485000C9485000C9485000C
:100060000C9485000C94850000000008000201003B
:100070000003040700000000000000000000000072
:10008000250028002B0000000000240027002A0083
:10009000040404040404040402020202020203032E
:1000A0000303030301020408102040800102040836
:1000B0001020010204081020361311241FBECFEFB8
:1000C000D8E0DEBFCDBF12E0A0E0B1E0E8EEFCE298
:1000D00002C005900D92A030B107D9F723E0A0E04F
:1000E000B2E001C01D92AA32B207E1F710E0CDE5FF
:1000F000D0E004C02197FE010E944015CC35D10705
:10010000C9F70E94E4130C9472160C9400008CBD85
:100110009DBD089590E0FC01EC55FF4F2491805760
:100120009F4FFC018491882399F090E0880F991FDC
:10013000FC01EA57FF4FA591B491FC01E458FF4F31
:10014000859194918FB7F894EC91E22BEC938FBF4B
:100150000895FC01818D928D089508953FB7F8941C
:100160008091050290910602A0910702B0910802C9
:1001700026B5A89B05C02F3F19F00196A11DB11D02
:100180003FBFBA2FA92F982F8827BC01CD01620F3E
:10019000711D811D911D42E0660F771F881F991FF9
:1001A0004A95D1F708958F929F92AF92BF92CF92C6
:1001B000DF92EF92FF924B015C010E94AE006B0157
:1001C0007C010E94AE006C197D098E099F09683E72
:1001D000734081059105A8F321E0821A9108A108D6
:1001E000B10888EEC80E83E0D81EE11CF11C811412
:1001F0009104A104B10429F7FF90EF90DF90CF9014
:10020000BF90AF909F908F9008952FB7F894609112
:1002100001027091020280910302909104022FBFAB
:100220000895AF92BF92CF92DF92EF92FF920F9319
:100230001F93CF93DF936C017B018B01040F151F7C
:10024000EB015E01AE18BF08C017D10759F06991E4
:10025000D601ED91FC910190F081E02DC601099548
:10026000892B79F7C501DF91CF911F910F91FF90F5
:10027000EF90DF90CF90BF90AF900895FC01538D29
:10028000448D252F30E0842F90E0821B930B541770
:1002900010F0CF96089501970895FC01918D828DFD
:1002A000981761F0A28DAE0FBF2FB11D5D968C9196
:1002B000928D9F5F9F73928F90E008958FEF9FEFD5
:1002C0000895FC01918D828D981731F0828DE80F91
:1002D000F11D858D90E008958FEF9FEF0895FC014B
:1002E000918D228D892F90E0805C9F4F821B910918
:1002F0008F73992708958CE292E00E946F0121E0AC
:10030000892B09F420E0822F089580E090E0892B6A
:1003100029F00E947B0181110C9400000895FC01DA
:10032000A48DA80FB92FB11DA35ABF4F2C91848D56
:1003300090E001968F739927848FA689B7892C93B3
:10034000A089B1898C91837080648C93938D848D06
:10035000981306C00288F389E02D80818F7D808309
:100360000895EF92FF920F931F93CF93DF93EC01C9
:1003700081E0888F9B8D8C8D98131AC0E889F9894C
:10038000808185FF15C09FB7F894EE89FF8960834F
:10039000E889F98980818370806480839FBF81E0D0
:1003A00090E0DF91CF911F910F91FF90EF90089512
:1003B000F62E0B8D10E00F5F1F4F0F731127E02EED
:1003C0008C8D8E110CC00FB607FCFACFE889F98925
:1003D000808185FFF5CFCE010E948F01F1CFEB8D9B
:1003E000EC0FFD2FF11DE35AFF4FF0829FB7F894F9
:1003F0000B8FEA89FB8980818062CFCFCF93DF9317
:10040000EC01888D8823B9F0AA89BB89E889F9892C
:100410008C9185FD03C0808186FD0DC00FB607FC61
:10042000F7CF8C9185FFF2CF808185FFEDCFCE0194
:100430000E948F01E9CFDF91CF910895FC012081C7
:100440002EBD9B012150310941F051810DB407FEB1
:10045000FDCF4EB55EBD4193F5CF61507109860F5A
:10046000971F0DB407FEFDCF2EB5FC012083089524
:10047000E0912602F0912702808190912502892B3C
:1004800080830895E0912602F09127029081809167
:10049000250280958923808308958EBD00000DB4C8
:1004A00007FEFDCF8EB50895AF92BF92CF92DF9237
:1004B000EF92FF920F931F93CF93DF93CDB7DEB7E9
:1004C00028970FB6F894DEBF0FBECDBF8C017B011D
:1004D0006A01809129028333E1F45801A40EB51E0C
:1004E000A016B10609F46FC00E94420280EF0E947C
:1004F0004D02812F0E944D02802F0E944D020F5FFE
:100500001F4FF70181917F010E944D020E94380226
:10051000E7CF5B01A40EB51E8433C1F40E944202F2
:1005200019830A838D2D80688B83CC8264E070E010
:10053000CE0101960E941E02AE14BF0409F441C010
:10054000F70181917F010E944D02F6CF0E94420285
:100550000F3F110509F028F419820A8384E08B8388
:100560000CC017FD17C019820A8333E01695079552
:100570003A95E1F7007E0C600B8386E0C816D10443
:10058000A0F5F701DE011496EA15FB0599F08191BB
:100590008D93FACFC80126E0969587952A95E1F7C5
:1005A000807E19830A830115104C10F48461D7CF23
:1005B0008C61D5CFB6016D5F7F4FCE0101960E9451
:1005C0001E020E943802C60128960FB6F894DEBFBC
:1005D0000FBECDBFDF91CF911F910F91FF90EF9094
:1005E000DF90CF90BF90AF90089563E070E0CE01B0
:1005F00001960E941E02F70181917F010E944D0227
:10060000AE14BF04C1F7DDCFCF93DF931F92CDB7F8
:10061000DEB7898341E050E0BE016F5F7F4F90E01D
:1006200080E00E9454020F90DF91CF91089590E0F6
:1006300020912902233339F40C96982F990F990FA2
:10064000990F80E008954896F8CFDA01E0912A02E8
:10065000F0E0FE2FEE27E60FF71F90E0982F882797
:10066000A901BD018E0F9F1F0C945402CF93DF93FD
:1006700000D0CDB7DEB779836A8322E030E0AE01E7
:100680004F5F5F4F60E170E00E9425030F900F9075
:10069000DF91CF910895CF93DF9300D0CDB7DEB730
:1006A00079836A8322E030E0AE014F5F5F4F64E000
:1006B00070E00E9425030F900F90DF91CF91089575
:1006C000CF93DF931F92CDB7DEB720912A0230E09F
:1006D000322F2227260F371F90E0982F8827498333
:1006E00041E050E0BE016F5F7F4F820F931F0E9479
:1006F00054020F90DF91CF910895CF93DF931F9213
:10070000CDB7DEB76983DC01ED91FC910280F38106
:10071000E02D41E050E0BE016F5F7F4F09950F90E3
:10072000DF91CF910895FC019485FB018485981396
:1007300003C081E0943008F080E00895CF93DF9308
:100740001F92CDB7DEB76983DC01ED91FC91028089
:10075000F381E02D41E050E0BE016F5F7F4F0995CE
:100760000F90DF91CF9108950895FF920F931F93FB
:10077000CF93DF93EB01FC01178A168A2A8121119E
:1007800009C02B81211106C02C81211103C02D81AC
:10079000222301F141155105E9F08A01FC01F08C99
:1007A00080E591E00E948700AE014E5F5F4F24E03C
:1007B00030E06CE070E08F2D0E942503B8018F2D92
:1007C0000E94360381E090E0DF91CF911F910F915D
:1007D000FF90089580E0F7CFFC018485958508950A
:1007E000FC0184899589089526E831E0FC01318374
:1007F0002083FB014089518962897389FC0142830E
:100800005383648375830895DC01ED91FC91048C1E
:10081000F58DE02D099490E080E00895FC01768745
:1008200065870895DC01ED91FC9102A0F3A1E02D14
:10083000099591E089270895862F089581E08627FC
:10084000089521E0FC018485843008F020E0822FA7
:1008500008950895FB0101900020E9F73197AF0159
:10086000461B570BDC01ED91FC910280F381E02DDA
:1008700009948F929F92AF92BF92EF92FF920F9343
:100880001F93CF93DF93CDB7DEB7A1970FB6F89440
:10089000DEBF0FBECDBF7C01FA01CB0119A2223011
:1008A00008F42AE08E010F5D1F4F822E912CB12C8F
:1008B000A12CBF01A50194010E941E15F901CA01D6
:1008C0006A300CF5605DD8016E938D01232B242BCB
:1008D000252B79F790E080E0109721F0BD01C7014A
:1008E0000E942A04A1960FB6F894DEBF0FBECDBFBA
:1008F000DF91CF911F910F91FF90EF90BF90AF903C
:100900009F908F900895695CDECF0F931F93CF93D4
:10091000DF93EC010E942A048C0168E871E0CE01AB
:100920000E942A04800F911FDF91CF911F910F9198
:1009300008958F929F92AF92BF92CF92DF92EF92E3
:10094000FF920F931F93CF93DF937C01EB016C0118
:1009500082E0C80ED11C4701E5E08E0E911C10E02C
:1009600000E0F60141916F0150E070E060E02AE0A4
:10097000CE010E9439045C01E881F9810190F08187
:10098000E02D6EE2CE0109958A0D9B1D080F191FFF
:10099000C814D90431F7F701458150E070E060E0F8
:1009A0002AE0CE010E943904800F911FDF91CF9180
:1009B0001F910F91FF90EF90DF90CF90BF90AF907D
:1009C0009F908F900895AF92BF92CF92DF92EF9257
:1009D000FF920F931F93CF93DF9300D000D0CDB73A
:1009E000DEB78C016B017A01809129028333E9F42F
:1009F0005B016801C40ED51EC016D106A9F10E9484
:100A000042028FE00E944D02812F0E944D02802FF2
:100A10000E944D020F5F1F4F80E00E944D02F501C2
:100A200081935F010E943802E7CF843369F50E9409
:100A3000420219830A838F2D8F778B83EC8264E0C7
:100A400070E0CE0101960E941E02A70170E060E0F6
:100A5000C6010E946B16E114F10421F0B701C60132
:100A60000E941E020E943802C7010F900F900F9043
:100A70000F90DF91CF911F910F91FF90EF90DF903A
:100A8000CF90BF90AF9008950E9442020F3F110592
:100A900009F030F419820A831B8263E070E0D1CF41
:100AA00017FD0BC019820A8333E0169507953A9516
:100AB000E1F7007E08600B83F0CFC80126E0969531
:100AC00087952A95E1F7807E19830A830115104CDA
:100AD00018F480618B83E1CF8861FCCFCF93DF93E3
:100AE0001F92CDB7DEB720912A0230E0322F2227A5
:100AF000260F371F90E0982F882741E050E0BE0175
:100B00006F5F7F4F820F931F0E94E30489810F90D4
:100B1000DF91CF910895CF93C82F462F61E070E009
:100B20000E94600361E070E08C2F0E946E058111CD
:100B3000F9CFCF910895CF93C82F80E591E00E941F
:100B4000870068E070E08C2FCF910C948B05CF93D9
:100B5000C82F80E591E00E94870060E170E08C2F53
:100B6000CF910C948B05CF93DF93EC01888D84306B
:100B700020F40E94A70584E0888FDF91CF9108952B
:100B8000CF93C82F80E591E00E94870063E070E07A
:100B90008C2FCF910C946E05CF93DF93EC018C8555
:100BA0008430D0F40E94C005843189F0882379F024
:100BB000883169F021E08C3159F4E881F9810084B1
:100BC000F185E02DCE01099521E0892B09F420E083
:100BD000822FDF91CF91089580E0FBCFCF92DF92FB
:100BE000EF92FF92CF93DF93EC018C85843068F411
:100BF0000E949B050E9405016B017C018C850E946F
:100C0000C005811109C084E08C87DF91CF91FF90EE
:100C1000EF90DF90CF90089561E070E080E090E089
:100C20000E94D3000E940501AB01BC014C195D0973
:100C30006E097F098D859E85B0E0A0E048175907B1
:100C40006A077B07D8F28C850E94A705DCCFCF937B
:100C5000FC01C08D80E591E00E94870060E270E0B9
:100C60008C2F0E948B0562E070E08C2F0E946E0535
:100C700084FD16C062E070E08C2F0E946E0583FF39
:100C80000AC048E162E070E08C2F0E94600380E0BF
:100C900090E0CF91089580E591E00E948700E3CF36
:100CA00040E162E070E08C2F0E94600381E0F0CFB1
:100CB000CF93DF931F92CDB7DEB741E050E0BE0186
:100CC0006F5F7F4F90E080E00E94E30489810F9086
:100CD000DF91CF910895CF93DF93C4E1D0E00E94DC
:100CE0005806882361F061E070E080E090E00E94A7
:100CF000D3002197A1F780E0DF91CF91089581E0A3
:100D0000FBCFCF92DF92EF92FF920F931F93CF937F
:100D1000DF93CDB7DEB76A970FB6F894DEBF0FBE8C
:100D2000CDBFFA0126E831E03A8329835FEF5B8388
:100D30005C835D831E8238872F83C280D380E480EA
:100D4000F580C986DA86EB86FC86FB0142815381F9
:100D5000648175814F87588B698B7A8B3C8B2B8B89
:100D6000FC0182819381A481B5818D8B9E8BAF8B99
:100D7000B88F80912B028111C9C060E372E080E0DE
:100D800090E00E94D300DFB6F8940AE910E04EEA42
:100D9000E42E40E0F42E80912802811142C0F80137
:100DA0008491F7019491E82FF0E0EE0FFF1FEA57CE
:100DB000FF4FA591B4918C91982321F5E2E7F0E0E3
:100DC0008491F7019491F80124912223D9F088238A
:100DD00059F0833009F4D9C008F0CCC0813009F44F
:100DE000DAC0823009F4DBC0E22FF0E0EE0FFF1F23
:100DF000E458FF4FA591B4918FB7F8942C91922BA2
:100E00009C938FBF8AE00E948A008CB580618CBD64
:100E10008CB580648CBD8DE00E948A008BE00E94BE
:100E20008A00809128028F5F80932802DFBEF8013C
:100E30000491E02FF0E0EE0FFF1FE458FF4F859183
:100E400094919093270280932602F701E490E09218
:100E500025028AE00E948A000E94380280E591E023
:100E60000E94870084E38093290280E80E940403A3
:100E70000E946B06882309F49FC088E00E94040347
:100E80000E945806883009F097C080E10E94040350
:100E90000E945806803109F08FC080E00E94040350
:100EA0000E945806182F811187C041E050E0BE0112
:100EB000675E7F4F8FE190E00E94E304898D83306D
:100EC00009F07AC080E480932A0242E06EE170E08B
:100ED000812F0E94600342E06FE170E0812F0E9449
:100EE00060031F5F143089F740E06EE170E0812FEE
:100EF0000E94600340E06FE170E0812F0E94600378
:100F00001F5F183089F781E080932B0280E591E024
:100F10000E94870046E050E062E071E089E090E0E6
:100F20000E94540244E050E0BE016B5E7F4F8FE0B0
:100F300090E00E94540244E050E0BE01675F7F4FA2
:100F400081E090E00E94540244E050E0BE016D5FF9
:100F50007F4F85E090E00E9454028F859889A9898F
:100F6000BA898093E9029093EA02A093EB02B093CE
:100F7000EC028BC08730B1F08830D1F0843009F0BA
:100F800033CF809180008F7D03C0809180008F7768
:100F90008093800029CF84B58F7784BD25CF84B519
:100FA0008F7DFBCF8091B0008F778093B0001CCFF6
:100FB0008091B0008F7DF9CF87E38093290280E88C
:100FC0000E9404030E946B06882329F188E00E9496
:100FD00004030E9458068830F1F480E10E94040363
:100FE0000E945806182F8031B1F480E00E9404035B
:100FF0000E94580681110FC041E050E0BE01675EBB
:101000007F4F89E390E00E94E304898D843019F4D6
:1010100010932A0278CF83E38093290280E80E940C
:1010200004030E946B06882371F180E10E9404038F
:101030000E945806803139F582E10E9404030E9423
:101040005806823101F580E00E9404030E94580690
:10105000811119C084E080932A0215E51A8F41E0BE
:1010600050E0BE01665E7F4F8BE190E00E9454022B
:10107000198F41E050E0BE01675E7F4F8AE190E04A
:101080000E94540240CF109229026A960FB6F8943B
:10109000DEBF0FBECDBFDF91CF911F910F91FF90AB
:1010A000EF90DF90CF9008951F93CF93DF931F921F
:1010B000CDB7DEB7182F80E591E00E948700812F21
:1010C0000E94170327E0129FF0011124E75FFD4FF4
:1010D00022813381377041E050E0BE016F5F7F4F66
:1010E000820F931F0E94E30489810F90DF91CF91BB
:1010F0001F910895FC01808D843040F4218D328D44
:10110000232B21F00E94540890E008958FEF9FEF69
:101110000895CF93DF93FC012485243028F08FEFCE
:101120009FEFDF91CF910895EC010190F081E02DC8
:101130000084F185E02D0995892B89F38C850E9427
:10114000540890E0EECFDA01E0912A02F0E0FE2FA1
:10115000EE27E60FF71F90E0982F8827A901BD0121
:101160008E0F9F1F0C94E3048F929F92AF92BF92B9
:10117000CF92DF92EF92FF921F93CF93DF93CDB781
:10118000DEB72C970FB6F894DEBF0FBECDBF20910F
:10119000290214E0222339F16B017C0180E591E002
:1011A0000E9487005E0127E0A20EB11C450110E0FD
:1011B00063E070E0812F0E946E05F40181934F017E
:1011C000882349F11F5F143099F710E0F5018191F0
:1011D0005F018D31D9F08831C9F08A518230B0F089
:1011E0001F5F143099F7812F2C960FB6F894DEBF4D
:1011F0000FBECDBFDF91CF911F91FF90EF90DF9099
:10120000CF90BF90AF909F908F90089560E170E075
:10121000812F0E948B05A12EB12C83EE93E00197C4
:10122000F1F742E870E060E0812F0E9460034FEF29
:1012300062E070E0812F0E946003B601C114D10406
:1012400091F4809100019091010101968115F0ECDB
:101250009F0708F45CC090930101809300016091A6
:10126000000170910101812F0E944B0386E0EEE0A6
:10127000F1E0DE01119601900D928A95E1F7F701F8
:1012800083818F778C8384818D8385818E83A70171
:101290004E5F5F4F24E030E06CE070E0812F0E94F1
:1012A0002503B601812F0E94360326E030E0AE010F
:1012B0004F5F5F4F66E070E0812F0E94250361E081
:1012C00070E0812F0E948B0527E02A9DC0012B9D95
:1012D000900D11249C01275F3D4F7901F901118286
:1012E000108222E030E0AE01455F5F4F68E270E0BF
:1012F000812F0E94A3088B859C8598278927982792
:10130000F701938382831682158214826CCF80E06A
:1013100090ECA1CFCF92DF92EF92FF920F931F93A9
:10132000CF93DF9300D000D000D0CDB7DEB78C01D3
:101330006B017A01FC01808D843010F40E94A705B6
:1013400086E891E09A838983F60182819381A48162
:10135000B5818B839C83AD83BE83B701CE0101969B
:101360000E94B408F801808F8430A0F4F586E486EA
:10137000128E118E81E026960FB6F894DEBF0FBE56
:10138000CDBFDF91CF911F910F91FF90EF90DF9034
:10139000CF90089580E0EFCFAF92BF92CF92DF92CF
:1013A000EF92FF920F931F93CF93DF9300D000D063
:1013B00000D0CDB7DEB7082F6B0180E591E00E9429
:1013C00087009E012F5F3F4F7901590110E063E0D4
:1013D00070E0812F0E946E05F50181935F018823E3
:1013E00041F11F5F143099F710E0F70181917F01FF
:1013F0008D31D1F08831C1F08A518230A8F01F5F61
:10140000143099F7812F26960FB6F894DEBF0FBEE1
:10141000CDBFDF91CF911F910F91FF90EF90DF90A3
:10142000CF90BF90AF90089560E170E0812F0E944F
:101430008B05E12EF12C83EE93E00197F1F7402F1D
:1014400070E060E0812F0E9460034FEF62E070E087
:10145000812F0E946003B601CD2889F4809100019C
:101460009091010101968115F0EC9F0798F19093FE
:101470000101809300016091000170910101812FB1
:101480000E944B0361E070E0812F0E948B0527E0F2
:101490002E9DC0012F9D900D11249C01275F3D4F73
:1014A0007901F9011182108222E030E0AE014B5F38
:1014B0005F4F68E270E0812F0E94A3088D819E81BA
:1014C000982789279827F7019383828316821582AC
:1014D000148298CF80E090ECCACFCF92DF92EF9247
:1014E000FF921F93CF93DF93EC017B016A018C8500
:1014F000843048F40E94C005882319F08C850E942E
:101500009B0584E08C87F70182819381A481B5815A
:101510000097A105B10551F490E080E0DF91CF91F3
:101520001F91FF90EF90DF90CF9008958F3F9F4FD6
:10153000AF4FBF4F89F380912902811103C084E02E
:101540008C87EACF70E060E081E20E94CC09182F1E
:101550008C87843008F780E591E00E948700A7011E
:101560004E5F5F4F24E030E06CE070E0812F0E941E
:101570002503B601812F0E94360364E070E0812FBD
:101580000E948B050E9405016B017C018C850E94E5
:10159000C005873109F18C31F9F0882309F4BCCFFB
:1015A0000E940501AB01BC014C195D096E097F0960
:1015B0008D859E85B0E0A0E084179507A607B70744
:1015C00038F061E070E080E090E00E94D300DECF70
:1015D0008C850E94A705B3CF81E090E09FCF0F9349
:1015E0001F93CF93DF93EC018B01888D843010F42F
:1015F0000E94A70580912902811107C094E0988F6D
:10160000DF91CF911F910F910895B80182E00E9460
:10161000CC09888F843030F41D870C871A8E198E80
:1016200081E0EECF80E0ECCF7F928F929F92AF92DD
:10163000BF92CF92DF92EF92FF920F931F93CF93BF
:10164000DF9300D0CDB7DEB7782E8B014A01590168
:1016500022E030E0AE014F5F5F4F64E270E00E9435
:10166000A308E980FA80FE24EF24FE24E00EF11E98
:101670009701377040912902072D10E0433309F09C
:1016800042C0085F1F4F102F0027110F110F110FBD
:10169000C901800F911F4733C9F1A9014A0D5B1D94
:1016A0004130584098F160E078E06B01C21AD30AEB
:1016B000A601B4010E945402A5014C195D09B401B0
:1016C0006C0D7D1DC8010E945402EA0CFB1CF982BE
:1016D000EA8222E030E0AE014F5F5F4F64E270E0EB
:1016E000872D0E9425030F900F90DF91CF911F91BE
:1016F0000F91FF90EF90DF90CF90BF90AF909F90B1
:101700008F907F900895005F1F4FBDCFA501B4015A
:10171000DACFEF92FF921F93CF93DF9300D0CDB734
:10172000DEB7182F22E030E0AE014F5F5F4F60E27E
:1017300070E00E94A308E980FA80FE24EF24FE24D2
:1017400022E030E0AE014F5F5F4F60E270E0812F3A
:101750000E94A30889819A81982789279827E816EB
:10176000F90689F487E0189FF0011124E75FFD4F27
:10177000F582E482C7010F900F90DF91CF911F9106
:10178000FF90EF9008957C01DBCF1F93CF93DF9301
:10179000182F80E591E00E948700812F0E94890B1D
:1017A000EC0163E070E0812F0E946E05873121F02B
:1017B0008C3111F0D0E0C0E0CE01DF91CF911F91CC
:1017C0000895CF93DF93EC018C85843060F40E9400
:1017D000C005873111F08C3131F48C850E94C50B26
:1017E0008115984088F3DF91CF910895FC0184859D
:1017F000843010F40C94C50B90E080E008959F9223
:10180000AF92BF92CF92DF92EF92FF920F931F930E
:10181000CF93DF938C015B01942EE52EFC01C688EB
:10182000D788F08C80E591E00E9487008F2D0E9480
:10183000890BC92DDE2D8C179D0708F4EC019E0144
:10184000A501B6018F2D0E94140BF8018689978996
:101850008C0F9D1F978B868BCE01DF91CF911F91AF
:101860000F91FF90EF90DF90CF90BF90AF909F903F
:1018700008958F929F92AF92BF92CF92DF92EF9294
:10188000FF920F931F93CF936C015B018A01FC01C0
:10189000C485C430F0F57A014130584018F0E12C8D
:1018A00088E0F82E80E591E00E9487008C2F0E944E
:1018B000890B4C0163E070E08C2F0E946E0587312C
:1018C00011F08C3149F58E149F0460F380E591E0AE
:1018D0000E9487009701A50170E060E08C2F0E94B4
:1018E000140B60E270E08C2F0E948B0562E070E0C8
:1018F0008C2F0E946E0584FD17C063E070E08C2F72
:101900000E946E0581110BC081E090E0F601938387
:10191000828310E000E010C0F12CE12CD7CF80E5ED
:1019200091E00E948700E2CF40E162E070E08C2FFE
:101930000E946003EF2841F3C801CF911F910F91DE
:10194000FF90EF90DF90CF90BF90AF909F908F90DF
:101950000895FF920F931F93CF93DF9300D0CDB7DD
:10196000DEB7F82E22E030E0AE014F5F5F4F66E257
:1019700070E00E94A30809811A811027012710270F
:1019800022E030E0AE014F5F5F4F66E270E08F2DE6
:101990000E94A30889819A81982789279827081788
:1019A000190749F4C8010F900F90DF91CF911F9153
:1019B0000F91FF9008958C01E3CF1F93CF93DF9396
:1019C000182F87E0189FE0011124C75FDD4F888141
:1019D0009981009761F480E591E00E948700812F52
:1019E0000E94A90C2E81821B910999838883DF9123
:1019F000CF911F910895FC018485843010F40C94DC
:101A0000DD0C90E080E008954F925F927F928F927C
:101A10009F92AF92BF92CF92DF92EF92FF920F937D
:101A20001F93CF93DF9300D0CDB7DEB7782E6B0135
:101A30004A01A82EB12C27E0829FC0011124FC018D
:101A4000E75FFD4F7F010081118180E591E00E94F9
:101A500087000815190554F4872D0E94A90CF70179
:101A600026818C01021B11091183008301151105C8
:101A700029F563E070E0872D0E946E05843159F0EE
:101A8000882349F001E010E08C3111F410E000E00F
:101A9000119501951109C8010F900F90DF91CF9119
:101AA0001F910F91FF90EF90DF90CF90BF90AF907C
:101AB0009F908F907F905F904F9008958016910631
:101AC0000CF4840187E08A9DF0018B9DF00D1124B8
:101AD000E75FFD4FE280F380C114D10451F127018B
:101AE000F7E05F22872D0E941703840D951D20913A
:101AF0002902273309F453C09801240D351D2130E4
:101B0000384008F44CC020E038E0490184189508BA
:101B1000A401B6010E94E3042601480C591C680187
:101B2000C818D908872D0E941703A601B2010E9488
:101B3000E304E00EF11E87E08A9DF0018B9DF00D1D
:101B40001124E75FFD4FF382E28220813181201B67
:101B5000310B318320838681800F912F911D8A3F25
:101B6000910510F4232BF1F487E08A9DF0018B9D01
:101B7000F00D1124E75FFD4F1682F982EA8222E020
:101B800030E0AE014F5F5F4F68E270E0872D0E944A
:101B9000250360E470E0872D0E948B057CCFA801AF
:101BA000B601C5CF868377CFCF93DF93FC01218D1C
:101BB000328D2115310529F48FEF9FEFDF91CF9101
:101BC0000895EC01808D4217530708F0A9010E9487
:101BD000040D1816190684F7298D3A8D281B390B28
:101BE0003A8F298FEBCF0F931F93CF93DF931F92E1
:101BF000CDB7DEB7FC01218D328D232B41F48FEF61
:101C00009FEF0F90DF91CF911F910F9108958C015D
:101C100041E050E0BE016F5F7F4FFC01808D0E946C
:101C2000040D181619065CF7F801818D928D019745
:101C3000928F818F898190E0E4CFCF93DF931F92C1
:101C4000CDB7DEB741E050E0BE016F5F7F4FFC01D2
:101C500084850E94040D1816190634F4898190E0D9
:101C60000F90DF91CF9108958FEF9FEFF9CFFC0197
:101C70008485843010F40C94040D90E080E0089585
:101C80000F931F93CF93DF9300D0CDB7DEB7FC0146
:101C900024852430E0F48C0180E591E00E948700E7
:101CA00022E030E0AE014F5F5F4F60E170E0F8018D
:101CB00084850E94A30889819A819827892798277B
:101CC0000F900F90DF91CF911F910F91089590E0A9
:101CD00080E0F6CF0F931F93CF93DF9300D0CDB763
:101CE000DEB7FC0124852430E0F48C0180E591E02E
:101CF0000E94870022E030E0AE014F5F5F4F64E05A
:101D000070E0F80184850E94A30889819A81982750
:101D1000892798270F900F90DF91CF911F910F91F6
:101D2000089590E080E0F6CF0F931F93CF93DF9359
:101D3000CDB7DEB728970FB6F894DEBF0FBECDBF84
:101D40008C01D80159964D915C915A9741155105D6
:101D500051F0ED91FC91048CF58DE02D70E060E088
:101D6000C8010995EECFF801808D0E94DD0C892B0A
:101D7000B1F148E050E0BE016F5F7F4FD801589647
:101D80008C910E94040D18161906F4F4D80150968F
:101D900084E0FE01319601900D928A95E1F78D81E4
:101DA00090E0982F88272E81820F911DF801958B46
:101DB000848B8F81282F30E0322F22278885820F55
:101DC000932F911D928F818F28960FB6F894DEBFC6
:101DD0000FBECDBFDF91CF911F910F91089590E07D
:101DE00080E0F2CF4F925F926F927F928F929F929C
:101DF000AF92BF92CF92DF92EF92FF920F931F9319
:101E0000CF93DF93CDB7DEB763970FB6F894DEBFFD
:101E10000FBECDBF7C016B013A01FB0120E090E0D9
:101E200080E06AE03191332309F461C040ED430F53
:101E30004A3008F04DC0689FA001699F500D1124E1
:101E4000CA01C097830F911D37FD9A958F3F910569
:101E500049F340F3F7014281538164817581809198
:101E6000F5029091F602A091F702B091F80248179E
:101E700059076A077B0709F40DC28701085F1F4FE6
:101E80000E9405016F7077277C5FC8010E94EF0AEE
:101E9000813009F004C286E891E09A838983F701D2
:101EA00082819381A481B5818B839C83AD83BE8322
:101EB00045E350E0BE016F5F7F4FC8010E94B5034C
:101EC000892BA9F5D12CC12CC8010E94B30517C0DC
:101ED0003E3209F0BFCF233009F4BCCFD301A20FAB
:101EE000B11D12968C932F5F90E080E09BCF233042
:101EF00009F0B0CFF3018583CC24C394D12CC60163
:101F000063960FB6F894DEBF0FBECDBFDF91CF91C1
:101F10001F910F91FF90EF90DF90CF90BF90AF9007
:101F20009F908F907F906F905F904F9008950E9448
:101F30000501F7017783668342E050E0B7016A5FED
:101F40007F4FC8010E94FF0B81E090E09A83898354
:101F500042E050E0BE016F5F7F4FC8010E94FF0B5F
:101F600080E091E09A83898342E050E0BE016F5F98
:101F70007F4FC8010E94FF0B1A82198242E050E095
:101F8000BE016F5F7F4FC8010E94FF0B42E050E02F
:101F9000BE016F5F7F4FC8010E94FF0B42E050E01F
:101FA000BE016F5F7F4FC8010E94FF0B5601F60113
:101FB0008081882301F16501F60181912F01882339
:101FC00011F08E32B1F446018A189B0818141904D6
:101FD00074F48D8641E050E0BE01635F7F4FC8011D
:101FE0000E94FF0BA401B501C8010E94FF0B520122
:101FF000DECF6201E1CF1D8641E050E0BE01635FAC
:102000007F4FC8010E94FF0BC12CDD24D394DA82DC
:10201000C98242E050E0BE016F5F7F4FC8010E945D
:10202000FF0BDA82C98242E050E0BE016F5F7F4F52
:10203000C8010E94FF0BC8010E942706892B09F4E2
:1020400041CFF3E0AF2EB12C230122E0420E511C10
:10205000D4C0F7014281538164817581808D918D57
:10206000A28DB38D481759076A077B0709F008C18D
:10207000848D958DC59709F003C181A192A15DEF73
:10208000C52EDD24DA940C970CF4ADC04CE050E082
:10209000BE016F5F7F4FC8010E94D40D8B819C8170
:1020A0009827892798279A8B898BF7014681578132
:1020B00029813A814217530709F0E7C097FFE5C02D
:1020C0008F7092703BEFC32EDD24DA94892B09F0D8
:1020D0008AC06F8078847624672476242AEFC22E03
:1020E000DD24DA946114710409F47DC0D12CC12C73
:1020F0008D819E81982789279827C816D906F8F4DC
:1021000041E050E0BE01635F7F4FC8010E94D40DE3
:102110004D85442331F050E070E060E0C8010E943A
:10212000D40D8D858111ECCF44E050E070E060E08B
:10213000C8010E94D40DFFEFCF1ADF0AD9CF912C2E
:10214000812C41E050E0BE016D5E7F4FC8010E94CE
:10215000D40D4B89842F807C09F06CC0442331F06E
:1021600050E070E060E0C8010E94D40D8B898111BD
:10217000E8CF42E050E0BE01615F7F4FC8010E949E
:10218000D40D42E050E0BE01635F7F4FC8010E9462
:10219000D40D44E050E070E060E0C8010E94D40D2E
:1021A00042E050E0BE016F5E7F4FC8010E94D40D37
:1021B0008F85988949895A898115914009F043C0D2
:1021C000CD84DE84DC24CD24DC2481E0C816D10457
:1021D000D1F54115544009F04AC044E050E0B20145
:1021E000C8010E94D40D21E0A21AB10809F46CCEF6
:1021F000FFEFCF16DF0609F067CE0E9405013B0115
:102200004C01C8010E94940E181619060CF421CF37
:102210000E9405016619770988099909693873418F
:102220008105910548F562E370E080E090E00E944E
:10223000D300E7CF41E050E070E060E0C8010E94C9
:10224000D40D1B8A93CF54274527542770E060E0B4
:10225000C8010E94D40DFFEF8F1A9F0A68147904F9
:1022600009F06FCF96EFC92EDD24DA94BCCFE7EFEB
:10227000CE2EDD24DA94B7CFCC24CA94DC2CB3CF95
:102280006EEFC62EDD24DA94AECF4CEFC42EDD24E3
:10229000DA94A9CF8EEFC82EDD24DA9430CED12C7B
:1022A000C12C2DCECF92DF92EF92FF920F931F930E
:1022B000CF93DF93CDB7DEB7AF970FB6F894DEBFFD
:1022C0000FBECDBF7C016A0106E811E01A830983C5
:1022D0001C861B8688EE93E0A0E0B0E08D879E8789
:1022E000AF87B88B88E191E09A878987188F0F8B29
:1022F000198E1A8E1B8E1C8E84E089A31BA70AA739
:102300001CA61DA61EA61FA68091E9029091EA02B6
:10231000A091EB02B091EC028EA39FA3A8A7B9A74E
:102320008B839C83AD83BE8318861F82AE01465D7E
:102330005F4FCE0101960E94F20E81309105B1F4FB
:10234000D701ED91FC910488F589E02D1DA30CA324
:102350008CA59DA5AEA5BFA58EA39FA3A8A7B9A731
:10236000A601BE016C5D7F4FC7010995AF960FB600
:10237000F894DEBF0FBECDBFDF91CF911F910F91BB
:10238000FF90EF90DF90CF900895CF92DF92EF9281
:10239000FF920F931F93CF93DF93CDB7DEB7AF9725
:1023A0000FB6F894DEBF0FBECDBF8C016B017A0172
:1023B00086E891E09A8389831B821C821D821E829B
:1023C0001C861B8648EE53E060E070E04D875E8718
:1023D0006F87788B28E131E03A872987988F8F8B38
:1023E000198E1A8E1B8E1C8E24E029A39BA78AA708
:1023F0001CA61DA61EA61FA6D8011C968C91843073
:1024000060F40E94C005882321F0F80184850E94B1
:102410009B0584E0D8011C968C938091E9029091F1
:10242000EA02A091EB02B091EC028EA39FA3A8A7B1
:10243000B9A78B839C83AD83BE8318861F82AE01B0
:10244000465D5F4FB601CE0101960E94F20E0097E5
:10245000C1F0D801ED91FC910684F785E02D86E866
:1024600091E09DA38CA38CA59DA5AEA5BFA58EA331
:102470009FA3A8A7B9A7A701BE016C5D7F4FC801A4
:102480000995AF960FB6F894DEBF0FBECDBFDF91B2
:10249000CF911F910F91FF90EF90DF90CF90089513
:1024A000EF92FF920F931F93CF93DF9300D000D052
:1024B000CDB7DEB78C017B01FB0184858430A8F0A9
:1024C00086E891E0F801918380831282138214825E
:1024D0001582C8010F900F900F900F90DF91CF9150
:1024E0001F910F91FF90EF90089580E591E00E9479
:1024F000870024E030E0AE014F5F5F4F6CE070E09A
:10250000F70184850E94A30886E891E0F801918391
:10251000808389819A81AB81BC8182839383A483E8
:10252000B583D7CF0C94E2151F920F920FB60F927E
:1025300011242F933F938F939F93AF93BF938091D9
:10254000010290910202A0910302B0910402309125
:10255000000223E0230F2D3758F50196A11DB11D70
:10256000209300028093010290930202A093030241
:10257000B09304028091050290910602A091070297
:10258000B09108020196A11DB11D809305029093A0
:102590000602A0930702B0930802BF91AF919F91EA
:1025A0008F913F912F910F900FBE0F901F90189514
:1025B00026E8230F0296A11DB11DD2CF1F920F92C4
:1025C0000FB60F9211242F933F934F935F936F9306
:1025D0007F938F939F93AF93BF93EF93FF938CE27F
:1025E00092E00E948F01FF91EF91BF91AF919F9177
:1025F0008F917F916F915F914F913F912F910F90AC
:102600000FBE0F901F9018951F920F920FB60F924A
:1026100011242F938F939F93EF93FF93E0913C02AC
:10262000F0913D028081E0914202F091430282FDEF
:102630001BC09081809145028F5F8F73209146026D
:10264000821741F0E0914502F0E0E45DFD4F958F87
:1026500080934502FF91EF919F918F912F910F9061
:102660000FBE0F901F9018958081F4CFECE2F2E03E
:102670001382128248EE53E060E070E04483558399
:102680006683778382E491E09183808385EC90E098
:102690009587848784EC90E09787868780EC90E02C
:1026A000918B808B81EC90E0938B828B82EC90E01D
:1026B000958B848B86EC90E0978B868B118E128E97
:1026C000138E148EE9ECF2E086E891E0918380832A
:1026D0001282138214821582EFECF2E091838083E0
:1026E0001282138214821582E5EDF2E091838083D9
:1026F0001282138214821582EBEDF2E091838083C3
:102700001282138214821582E1EEF2E091838083BB
:102710001282138214821582EDEEF2E0918380839F
:102720001282138214821582E7EEF2E09183808395
:102730001282138214821582E3EFF2E09183808388
:102740001282138214821582E9EFF2E09183808372
:102750001282138214821582E0E2F3E09183808377
:102760001282138214821582EAE1F3E0918380835E
:10277000A0ECA28338EA338321E02483B4E6B58356
:10278000E4E1F3E091838083A28333832483258370
:10279000EEE0F3E0918380838FEF828383838483F1
:1027A0001582EFEFF2E01382128244835583668331
:1027B000778384E591E09183808384E0848788EE49
:1027C00093E0968785870895CF93DF93CDB7DEB7E3
:1027D00062970FB6F894DEBF0FBECDBF789484B574
:1027E000826084BD84B5816084BD85B5826085BD0D
:1027F00085B5816085BD80916E00816080936E009B
:10280000109281008091810082608093810080918C
:10281000810081608093810080918000816080933D
:1028200080008091B10084608093B1008091B000FD
:1028300081608093B00080917A00846080937A00F8
:1028400080917A00826080937A0080917A00816022
:1028500080937A0080917A00806880937A00109249
:10286000C100E0913C02F0913D0282E08083E09162
:102870003802F09139021082E0913A02F0913B0265
:102880008FEC808310924402E0914002F09141026B
:1028900086E08083E0913E02F0913F02808180617A
:1028A0008083E0913E02F0913F02808188608083C6
:1028B000E0913E02F0913F02808180688083E09148
:1028C0003E02F0913F0280818F7D808306E811E017
:1028D0001A8309838091100390911103A091120330
:1028E000B09113038B839C83AD83BE8318870F83C2
:1028F0008091160390911703A0911803B0911903CA
:1029000089879A87AB87BC871E870D8780911C03B8
:1029100090911D03A0911E03B0911F038F87988B88
:10292000A98BBA8BAE014F5F5F4FBE01695F7F4FCE
:10293000CE010D960E94810668EE73E080E090E083
:102940000E94D3006BE871E08CE292E00E942A04BE
:102950001A8309831B821C821D821E8280E591E0FE
:102960000E94870044E050E0BE016D5F7F4F8FE022
:1029700090E00E94E3046CE272E0CE0101960E94B6
:10298000990468E871E08CE292E00E942A0400E079
:1029900010E08FEF92E00E94CC058823E1F16EE910
:1029A00071E08FEF92E00E9485046DEA71E08FEF95
:1029B00092E00E9485046DEB71E08FEF92E00E943F
:1029C000850468E871E08FEF92E00E942A048FEF9F
:1029D00092E00E94FB0C892B51F08FEF92E00E9455
:1029E0001D0E682F8CE292E00E94B101F0CF8FEFB4
:1029F00092E00E94EE0568E873E180E090E00E94BA
:102A0000D3000115110529F20E947B01882309F2E8
:102A10000E940000BECF40E550E06FEC71E08FEF08
:102A200092E00E94C51169ED71E0892B11F46DEE01
:102A300071E08CE292E00E948504DDCFA1E21A2EC3
:102A4000AA1BBB1BFD010DC0AA1FBB1FEE1FFF1F52
:102A5000A217B307E407F50720F0A21BB30BE40BA2
:102A6000F50B661F771F881F991F1A9469F76095E9
:102A70007095809590959B01AC01BD01CF010895A3
:102A8000EE0FFF1F0590F491E02D09940F931F9313
:102A9000CF93DF938230910510F482E090E0E091D3
:102AA0002803F091290330E020E0B0E0A0E0309767
:102AB00099F42115310509F44AC0281B390B24303B
:102AC0003105D8F58A819B816115710589F1FB017A
:102AD00093838283FE0111C0408151810281138161
:102AE00048175907E0F04817590799F4109761F013
:102AF00012960C93129713961C933296CF01DF9186
:102B0000CF911F910F9108950093280310932903EB
:102B1000F4CF2115310551F04217530738F0A901C0
:102B2000DB019A01BD01DF01F801C1CFEF01F9CF4F
:102B30009093290380932803CDCFFE01E20FF31F6A
:102B4000819391932250310939832883D7CF2091E3
:102B5000260330912703232B41F420910A01309161
:102B60000B01309327032093260320910801309115
:102B700009012115310541F42DB73EB740910C01F3
:102B800050910D01241B350BE0912603F091270392
:102B9000E217F307A0F42E1B3F0B2817390778F034
:102BA000AC014E5F5F4F2417350748F04E0F5F1F93
:102BB0005093270340932603819391939FCFF0E096
:102BC000E0E09CCFCF93DF930097E9F0FC013297D0
:102BD00013821282A0912803B0912903ED0130E005
:102BE00020E01097A1F420813181820F931F209162
:102BF0002603309127032817390709F061C0F093A5
:102C00002703E0932603DF91CF910895EA01CE17C1
:102C1000DF07E8F54A815B819E0141155105B1F757
:102C2000E901FB83EA8349915991C40FD51FEC1741
:102C3000FD0761F4808191810296840F951FE9015F
:102C400099838883828193819B838A83F0E0E0E08B
:102C500012968D919C9113970097B9F52D913C9107
:102C60001197CD010296820F931F20912603309178
:102C700027032817390739F6309751F510922903A1
:102C800010922803B0932703A0932603BCCFD383CD
:102C9000C28340815181840F951FC817D90761F401
:102CA0004E5F5F4F88819981480F591F5183408340
:102CB0008A819B81938382832115310509F0B0CFEE
:102CC000F0932903E09328039ECFFD01DC01C0CFE0
:102CD00013821282D7CFDC0101C06D934150504066
:082CE000E0F70895F894FFCF1E
:102CE80000C0DEADBEEFFEED00002A03800001004B
:102CF8005E000000000000007D03FF0B0B04AD0028
:102D0800A900F30D7A08EF0A8A09B305B503521131
:102D18002706940ED40D0404F403F003EC0300001A
:102D28000000B10111013E01FE016F014D01610179
:102D3800000000009E03390CF60BE10BFB0C1D0E86
:102D480089086D0AC511370EEE05CC052104290442
:102D580092121E041C04930312046A0E5012400EB1
:102D68000E040000000099040D0A004C6F63616CAA
:102D780020495020616464726573733A20004745A6
:102D880054202F20485454502F312E3100486F734F
:102D9800743A206C6F63616C686F737400436F6E74
:102DA8006E656374696F6E3A20636C6F736500318A
:102DB80032372E302E302E3100436F6E6E656374BD
:102DC800656420746F2073657276657200436F6E58
:102DD8006E656374696F6E206661696C6564000076
:00000001FF
