:020000040000FA
:100000000C94D4000C94FC000C94FC000C94FC00A8
:100010000C94FC000C94FC000C94FC000C94FC0070
:100020000C94FC000C94FC000C94FC000C94FC0060
:100030000C94FC000C94FC000C94FC000C94FC0050
:100040000C94A40D0C94FC000C94140E0C94EE0D66
:100050000C94FC000C94FC000C94FC000C94FC0030
:100060000C94FC000C94FC006382536300010800B4
:100070000604000100504F53542024462048545495
:10008000502F312E300D0A486F73743A2024460DDC
:100090000A244624534163636570743A202A2F2A48
:1000A0000D0A436F6E74656E742D4C656E677468CF
:1000B0003A2024440D0A436F6E74656E742D547992
:1000C00070653A206170706C69636174696F6E2F3E
:1000D000782D7777772D666F726D2D75726C656EE2
:1000E000636F6465640D0A0D0A245300474554206C
:1000F0002446245320485454502F312E300D0A48A2
:100100006F73743A2024460D0A24460D0A0D0A0026
:100110004500008200004000204163636570743A2E
:1001200020746578742F68746D6C003136392E3206
:1001300035342E38382E3431002F656E7465725F79
:10014000646F6F723F726669643D313233343536A5
:10015000373839300000000000240027002A000052
:10016000000000250028002B0004040404040404FB
:100170000402020202020203030303030301020456
:100180000810204080010204081020010204081019
:100190002000000008000201000003040700000026
:1001A000000000000000FD1011241FBECFEFD8E0BA
:1001B000DEBFCDBF11E0A0E0B1E0ECEEF3E202C0A3
:1001C00005900D92AE39B107D9F725E0AEE9B1E05F
:1001D00001C01D92A137B207E1F710E0C4EDD0E0F5
:1001E00004C02197FE010E94BD11C33DD107C9F78C
:1001F0000E94950E0C94F4110C940000CF93DF93A1
:100200002091D0042223C1F0FC0120812223A1F0FF
:10021000C0EDD4E0ACECB4E09C012C5F3F4F899181
:1002200041919D918427892339F4E217F307B9F7A7
:1002300081E0DF91CF91089580E0FBCFCF93DF93F2
:10024000EC01FB018A30910548F06AE070E00E9401
:100250007C11CB01BF010E941E01FC01CE016AE0AE
:1002600070E00E947C11805D80831182CF01019635
:10027000DF91CF91089590E0FC01EF56FE4F24915D
:10028000FC01E358FE4F3491FC01E759FE4FE49125
:10029000EE23C9F0222339F0233001F1A8F42130F4
:1002A00019F1223029F1F0E0EE0FFF1FE15AFE4F65
:1002B000A591B4918FB7F894EC91611126C0309557
:1002C0003E233C938FBF08952730A9F02830C9F012
:1002D000243049F7809180008F7D03C08091800099
:1002E0008F7780938000DFCF84B58F7784BDDBCF9D
:1002F00084B58F7DFBCF8091B0008F778093B00065
:10030000D2CF8091B0008F7DF9CF3E2BDACFCF9343
:10031000DF9390E0FC01E358FE4F249187599E4FF4
:10032000FC0184918823D1F090E0880F991FFC0193
:10033000EB5AFE4FA591B491FC01E15AFE4FC591D5
:10034000D49161110EC09FB7F8948C91E22FE09583
:100350008E238C932881E223E8839FBFDF91CF9186
:1003600008958FB7F894EC91E22BEC938FBFF6CF02
:100370003FB7F8948091C8049091C904A091CA0431
:10038000B091CB0426B5A89B05C02F3F19F001966C
:10039000A11DB11D3FBFBA2FA92F982F8827BC01DF
:1003A000CD01620F711D811D911D42E0660F771F07
:1003B000881F991F4A95D1F708952FB7F894609137
:1003C000C4047091C5048091C6049091C7042FBFE6
:1003D0000895AF92BF92CF92DF92EF92FF920F9368
:1003E0001F93CF93DF936C017B018B01040F151FCB
:1003F000EB015E01AE18BF08C017D10759F0699133
:10040000D601ED91FC910190F081E02DC601099596
:10041000892B79F7C501DF91CF911F910F91FF9043
:10042000EF90DF90CF90BF90AF900895FC01538D77
:10043000448D252F30E0842F90E0821B930B5417BE
:1004400010F0CF96089501970895FC01918D828D4B
:10045000981761F0A28DAE0FBF2FB11D5D968C91E4
:10046000928D9F5F9F73928F90E008958FEF9FEF23
:100470000895FC01918D828D981731F0828DE80FDF
:10048000F11D858D90E008958FEF9FEF0895FC0199
:10049000918D228D892F90E0805C9F4F821B910966
:1004A0008F739927089584ED94E00E94470221E01C
:1004B000892B09F420E0822F089580E090E0892BB9
:1004C00029F00E94530281110C9400000895FC0150
:1004D000A48DA80FB92FB11DA35ABF4F2C91848DA5
:1004E00090E001968F739927848FA689B7892C9302
:1004F000A089B1898C91837080648C93938D848D55
:10050000981306C00288F389E02D80818F7D808357
:100510000895EF92FF920F931F93CF93DF93EC0117
:1005200081E0888F9B8D8C8D98131AC0E889F9899A
:10053000808185FF15C09FB7F894EE89FF8960839D
:10054000E889F98980818370806480839FBF81E01E
:1005500090E0DF91CF911F910F91FF90EF90089560
:10056000F62E0B8D10E00F5F1F4F0F731127E02E3B
:100570008C8D8E110CC00FB607FCFACFE889F98973
:10058000808185FFF5CFCE010E946702F1CFEB8D10
:10059000EC0FFD2FF11DE35AFF4FF0829FB7F89447
:1005A0000B8FEA89FB8980818062CFCFCF93DF9365
:1005B000EC01888D8823B9F0AA89BB89E889F9897B
:1005C0008C9185FD03C0808186FD0DC00FB607FCB0
:1005D000F7CF8C9185FFF2CF808185FFEDCFCE01E3
:1005E0000E946702E9CFDF91CF9108958091D601F3
:1005F0009091D70198278927982744972091F40153
:1006000030E044E0359527954A95E1F7220F331FF6
:10061000220F331F821B930B97FF02C090E080E0F4
:1006200008950F931F93CF93DF9370E06A537E4F2B
:100630008A01075F1F4F213029F0223031F48A01EF
:100640000250110930E020E003C000E010E0980102
:10065000EB01FA01E230F10558F0A991B991BA27FE
:10066000AB27BA270A0F1B1F211D311D3297F2CF6E
:10067000FA01EE7F6E0F7F1F4E175F0769F0FB01D7
:10068000408150E070E060E0762F652F542F4427C2
:10069000040F151F261F371FA9016627772741154D
:1006A00051056105710519F022273327F1CF009517
:1006B0001095E82FF0E0EA53FE4F10830183DF919D
:1006C000CF911F910F910895E6ECF1E0108E118EFD
:1006D00080E4848B158A868B20E044E150E06EE054
:1006E00088E10C941103DC011696ED91FC911797AB
:1006F0009F012F5F3F4F17963C932E931697608371
:1007000081E090E00895089590E080E008958EBD26
:100710000DB407FEFDCF089561E0809186040E942C
:100720003B0178940895F89460E0809186040C94DD
:100730003B010F931F93CF93DF93EC018B010E943A
:1007400093032097B9F08AE30E9487031EBCF80147
:10075000CE01019739F00DB407FEFDCF2EB51EBCBA
:100760002193F7CF2197C00FD11F0DB407FEFDCF06
:100770008EB58883DF91CF911F910F910C948C03DC
:100780001F93CF93DF93182FC62FD42F0E9493036C
:100790008C2F8F71812B0E9487038D2F0E948703DE
:1007A000DF91CF911F910C948C03CF93C82FC0760B
:1007B0008091A0018C1799F043E06FE180EA0E94DC
:1007C000C003C093A0014C2F50E085E0559547959C
:1007D0008A95E1F76FE180E8CF910C94C003CF9147
:1007E0000895CF93DF93C82FD62F0E94D5034D2FA6
:1007F0006C2F80E4DF91CF910C94C003CF93DF93F3
:10080000C82FD72F0E94F1036D2F81E08C0FDF914D
:10081000CF910C94F103CF93C82F0E94D5030E946F
:1008200093038C2F8F710E94870380E00E948703BF
:10083000C7FF03C080E00E948703CEB50E948C03EF
:100840008C2FCF9108950F931F93CF93DF9300D0F8
:1008500000D000D0CDB7DEB78091A301882379F016
:100860006091A1017091A2016115710509F053C059
:100870006FEF7BE08CE00E94FE031092A30189E3FE
:100880000E940B0410E000E08823C9F16091A101EF
:100890007091A20180E00E94FE03BE016F5F7F4F56
:1008A00086E090E00E94990389819A819093A20149
:1008B0008093A1018D819E818C010078112787FF93
:1008C00012C08B819C810497009187041091880449
:1008D000015011098017910708F48C0166EC71E052
:1008E000C8010E949903F801EA53FE4F108281E08B
:1008F0008093A30140E46EE180E80E94C003C80138
:1009000026960FB6F894DEBF0FBECDBFDF91CF9114
:100910001F910F91089561507109ACCFCF93DF9370
:10092000EC0140E86FE180E80E94C00340E86FE11D
:1009300080EA0E94C0034AE06CE180EA0E94C003A2
:1009400060E07CE082E00E94FE03BE01745F86E00E
:100950000E94FE0340E060E08AE70E94C0030E941C
:1009600093032097B1F08AE70E9487038091C60124
:100970008EBDE7ECF1E0CA53DE4FEC17FD0731F016
:1009800081910DB407FEFDCF8EBDF7CF0DB407FEEC
:10099000FDCF0E948C0348E06FE180E80E94C00315
:1009A000D0E0C0E08CE10E940B048A7029F421960B
:1009B000C83E83E0D807B1F78CE10E940B0481FDAB
:1009C00003C0C83ED34039F448E06FE180EADF91CC
:1009D000CF910C94C003DF91CF910895CF93DF9313
:1009E000EB01682F84ED0E94F103BE0186ED0E94A9
:1009F000FE038AEE0E940B0480FDFBCFDF91CF91B6
:100A00000895CF92DF92EF92FF920F931F93863457
:100A1000910568F12091E901233449F5C090F40172
:100A2000D090F501E090F601F090F7010091A90156
:100A30001091AA012091AB013091AC01C016D106F2
:100A4000E206F306A1F4E0EEF2E08A539E4F9F0126
:100A50002E5F3F4F41815081553319F45281651704
:100A600071F0F901E40FF11DE817F90780F380E058
:100A70001F910F91FF90EF90DF90CF90089581E04C
:100A8000F7CFE0919E01F0919F019F012F5F3F4FB3
:100A900030939F0120939E0180830895FF920F93CE
:100AA0001F93CF93DF93162FF42E052F0E9441053D
:100AB000812F0E944105CF2DD02F115020F0899118
:100AC0000E944105FACFDF91CF911F910F91FF90C6
:100AD0000895FC0101900020E9F73197AF01481B10
:100AE000590BBC0184ED94E00C94E9018F929F9224
:100AF000AF92BF920F931F93CF93DF93CDB7DEB723
:100B0000A1970FB6F894DEBF0FBECDBF19A2423039
:100B100008F44AE08E010F5D1F4F842E912CB12CFA
:100B2000A12CA50194010E949011E62FB901CA01E0
:100B3000EA30F4F4E05DD801EE938D01232B242BF1
:100B4000252B79F790E080E0109719F0CD010E94F5
:100B50006905A1960FB6F894DEBF0FBECDBFDF9139
:100B6000CF911F910F91BF90AF909F908F9008955C
:100B7000E95CE1CFCF93DF93D0E0C0E0009719F0BC
:100B80000E946905EC0188E591E00E9469058C0FDF
:100B90009D1FDF91CF9108950F931F93CF93DF9304
:100BA000EB018BE591E00E9469050E94DD01009157
:100BB000BF041091C0042091C1043091C204601B95
:100BC000710B820B930B4AE00E94760586E691E05A
:100BD0000E94BA05CE018A539E4FDF91CF911F919B
:100BE0000F910C94BA05DC0196E0FB0101900D9287
:100BF0009A95E1F70895BC0186EC91E00E94F30517
:100C000060E974E08CEC91E00C94F305DC0194E075
:100C1000FB0101900D929A95E1F708958CEC91E01B
:100C20000E94FB0560EE71E084EE91E00E940606F2
:100C300060ED74E080EE91E00E9406060C9464037F
:100C4000CF93DF93EB010E94FB05BE0184EE91E0A0
:100C50000E94060660ED74E080EE91E0DF91CF9196
:100C60000C940606CF93DF93EB0144E050E0BC0107
:100C700082EE91E00E94D211892B49F46CED71E073
:100C8000CE010E94F30581E0DF91CF91089580E0CD
:100C9000FBCF0F931F93CF938C0180E491E00E94D0
:100CA000FB05E6ECF1E088E08487C6E0C58748E014
:100CB00050E06CE670E084ED91E00E942A11E6EECF
:100CC000F1E0DF011D92CA95E9F760E974E08CED6F
:100CD00091E00E94F305B8018CEE91E00E940606B7
:100CE00060ED74E082EE91E00E9406068AE290E0F8
:100CF000CF911F910F910C948E04EF92FF920F935E
:100D00001F93CF93DF938C01E6ECF1E086E191E055
:100D1000DF019C011D9221503040E1F78091B90123
:100D2000C0E4D1E0833011F4C4EAD1E0CE010E94E6
:100D3000FE00BE01882309F4ACC08AEB91E00E945A
:100D400020068881807F803E91F088819981AA81E8
:100D5000BB818F3F9F4FAF4FBF4F49F044E050E002
:100D6000BE0186E994E00E94D211892B31F460E43F
:100D700071E086EC91E00E94F30588E08093D20157
:100D80001092D30149E050E060E171E084ED91E020
:100D90000E942A111092D60181E18093DD01109208
:100DA000EA0183E48093EB011092E80184E48093EC
:100DB000E9011092EC011092EE011092EF0160E453
:100DC00071E086EC91E00E94F30581E08093F001F0
:100DD0008093F10186E08093F2018091A9019091C6
:100DE000AA01A091AB01B091AC018093F401909362
:100DF000F501A093F601B093F701C091B901C3309A
:100E000031F460ED74E08CEF91E00E94060660E939
:100E100074E08CE092E00E94F3058CED92E09093F8
:100E20009F0180939E01E8E6F0E084910E944105D5
:100E3000E9E6F0E084910E944105EAE6F0E0849161
:100E40000E944105EBE6F0E084910E94410585E3B4
:100E50000E94410581E00E94410583E0C11101C06B
:100E600081E00E9441058DE30E94410587E00E94D8
:100E7000410581E00E94410580E9E82E84E0F82EDA
:100E8000C7E0C15049F0D7018D917D010E94410515
:100E9000F8CF80EC91E053CF80910001882371F06E
:100EA00060E071E0FB0101900020E9F7BF016150B3
:100EB000714040E051E08CE00E944E0501151105A3
:100EC00059F0A80164E082E30E944E0544EA51E033
:100ED00064E086E30E944E0587E30E94410583E0BB
:100EE0000E94410581E00E94410583E00E94410586
:100EF00086E00E9441058FEF0E944105C0919E014E
:100F0000D0919F01C05FD140CE014C969093D60105
:100F10008093D7010E946403CE0108969093EC0160
:100F20008093ED01AE01405F5F4F21E06AE188E20E
:100F30000E941103CE018A96DF91CF911F910F91EC
:100F4000FF90EF900C948E048F929F92AF92BF927D
:100F5000CF92DF92EF92FF920F931F93CF93DF9385
:100F600000D000D0CDB7DEB77C018091A4048823E7
:100F700069F08091B901823009F4F1C008F0E9C04C
:100F8000882309F474C1813009F490C1E114F1049B
:100F900009F02BC28091A504857029F180919E04EF
:100FA00090919F04892BF9F461E184ED0E94F10393
:100FB00061E082ED0E94F1038AEE0E940B0480FD45
:100FC000FBCF60E082ED0E94F10389ED0E940B04EB
:100FD00082FF09C08AE994E00E9449068091A50435
:100FE00088608093A50480919E0490919F0401964F
:100FF00090939F0480939E048091AB04813009F00C
:1010000079C08091A50481FF75C082E08093AB0414
:10101000809121018F5F80932101F090AC04E090DA
:10102000AD041091AA04A0E21A9F900111248F71BF
:10103000182F122B86EA94E00E94FE0066EA74E004
:10104000882309F4BFC18AEB91E00E94200608E0E2
:101050000093D2011092D30149E050E060E171E0C9
:1010600084ED91E00E942A118CE28093D70186E002
:101070008093DD010E946403E092EA01F092EB01AB
:101080008BE08093E8011093E901ECEEF1E0DF01E1
:101090001D920A95E9F7809120018093EE018D5F02
:1010A0008093200180E68093F40182E08093F50133
:1010B00093E09093F6011092F7011092F8011092CC
:1010C000F9011092FA011092FB018093FC0194E067
:1010D0009093FD018093FE0186E28093FF0122E060
:1010E00040E250E06AE182E30E9411038AE390E06B
:1010F0000E948E0480EA94E00E94FE00882379F02A
:101100008091850481110BC080918404811107C0F6
:1011100080EA94E00E94490681E08093840486EA94
:1011200094E00E94FE00811150C110E000E0C8016F
:101130000F900F900F900F90DF91CF911F910F9113
:10114000FF90EF90DF90CF90BF90AF909F908F90E7
:101150000895833009F456C0843009F017CF65E054
:10116000C7010E940105882309F4C9C08091A80124
:10117000811108C088E30E940B04682F6E7F88E30A
:101180000E94F10360E072E080ED94E00E940606A8
:10119000E0EEF2E0C7018A539E4F6C018F010E5FB3
:1011A0001F4FB1808081863009F4FBC008F0BEC0BB
:1011B000813009F4ECC0833009F4EFC0F801EB0D85
:1011C000F11DEC15FD0550F30E94DD016093B101A6
:1011D0007093B2018093B3019093B40180919A040B
:1011E000882361F010929F0410929E0481E0809306
:1011F000A5046AE974E0CB010E94060683E08093AF
:10120000B901C4CE8090B5019090B601A090B7010D
:10121000B090B8012FEF82169206A206B20609F42A
:10122000B5CE0E94DD010091B1011091B201209173
:10123000B3013091B401601B710B820B930B6815E5
:1012400079058A059B0508F4A1CE80ED94E00E9403
:101250007D0684E08093B9010E94DD016093AD01B9
:101260007093AE018093AF019093B0018FCE0E9436
:10127000DD016093A9017093AA018093AB01909363
:10128000AC01E0EDF4E084E0DF011D928A95E9F71E
:1012900090E080E00E947D0688E30E940B04682FA6
:1012A000616088E30E94F10381E0D4CF62E0C7016E
:1012B0000E940105882319F160E072E0CE010196D9
:1012C0000E940606E0EEF2E0C7018A539E4FBF017E
:1012D0006E5F7F4F21813081363351F484EA91E093
:1012E0000E940606CE0101960E947D0682E0B2CFE2
:1012F000FB01E20FF11DE817F90748F3F3CF0E9455
:10130000DD010091AD011091AE012091AF0130914E
:10131000B001601B710B820B930B61317742810529
:10132000910508F433CE1092B90130CE8A3331F0F2
:101330008F3F09F449CF833309F040CF1092B501B4
:101340001092B6011092B7011092B801F801C801CD
:10135000049620E030E0A9016191542F432F322FF1
:101360002227260F311D411D511D8E179F07A1F702
:101370002F3F9FEF390749075907B9F42093B5016B
:101380003093B6014093B7015093B80117CFB8011D
:101390008CEC94E00E94060611CFB8018AE994E033
:1013A000F9CFB80180EA94E0F5CFA8EEB3E00E944F
:1013B000B2116093B5017093B6018093B701909319
:1013C000B801FCCE80EC91E040CE80918304811185
:1013D000ACCE809182048111A8CE86EA94E00E946E
:1013E000490681E080938204A0CEB9E2EB16F104B5
:1013F00008F49BCE8091D201883009F096CE80917E
:10140000D301863009F09FC144E050E060ED74E004
:101410008CEE91E00E94D211892B09F086CE80914A
:10142000DB01813029F58CEC91E00E94FB051092E4
:10143000DA0182E08093DB016CED71E086EE91E0F1
:101440000E94F30560E974E08CED91E00E94F305E1
:1014500062EE71E08CEE91E00E94060660ED74E0B1
:1014600082EE91E00E9406068AE290E00E948E04DD
:101470008091A50483FF0DC01091DB01123049F467
:1014800060EC71E08AE994E00E94320681111093C9
:10149000A50480918504811111C080918404882362
:1014A00069F06AEB71E080EA94E00E9432068823DA
:1014B00029F081E080938504109284048091830454
:1014C000811133CE80918204882309F42ECE6AEBF9
:1014D00071E086EA94E00E943206882309F425CE62
:1014E00081E080938304109282041FCE26E3E216EB
:1014F000F10408F41ACE863009F017CE8091EA0183
:101500008B3009F0BAC044E050E066EA74E080EE47
:1015100091E00E94D211892B09F007CED090F501FD
:10152000D2FE15C0E091B004F091B104309759F0AB
:101530008091EB0130E020E050E040E063E08295F4
:1015400086958770099585E08093AB04EECD0E9467
:10155000F6028C018091AB04823009F045C09D2DCC
:1015600090718D2D8271823189F560E090E080E08C
:101570000E94710E88E18093F501E091AE04F09134
:10158000AF0410E000E0309739F08091E9018295D6
:101590008695877009958C0183E08093AB04C80120
:1015A00088969093D6018093D7010E94640310928D
:1015B000F8011092F901A801445E5F4F22E06AE150
:1015C00082E30E941103C801C69603C181E08093A3
:1015D000AB04911106C0C801019664E00E94710E2F
:1015E000A4CD90E080E0F9CF8330A1F5011511057D
:1015F000A1F1E091B004F091B104309771F18091C4
:10160000F40190E024E0959587952A95E1F7880FFD
:10161000991F880F991F8296A70148505109841776
:10162000950708F4AC01C801840F951F9701241B8E
:10163000350BE816F90608F098018091EB0160E09F
:10164000829586958770099569E0C8010E94710EA0
:1016500086E07ACF853009F468CDD0FE07C08330AC
:1016600009F463CD69E0C8010196F0CF01151105B9
:1016700009F45BCD60E0C801B1CF811156CD8091F6
:10168000EB01803509F051CDD090F501D1FE39C084
:101690001092D6018CE28093D7010E940E0682E15F
:1016A0008093F50160E081E090E00E94460E109288
:1016B000EC011092ED01809120018093EE011092D7
:1016C000EF018D5F8093200182E08093FC0184E034
:1016D0008093FD0185E08093FE011092FF0190E66A
:1016E0009093F4018093F60188E78093F70122E05C
:1016F00040E250E06AE182E30E9411038AE390E055
:1017000068C0D4FE12CD0E94F6028C01892B99F09C
:101710000091F40110E084E0159507958A95E1F7B2
:10172000000F111F000F111F0E5D1F4FE016F10675
:1017300008F0FDCCFACCD0FEF8CC60E090E080E080
:101740000E94710EF4CC99E2E916F10409F4EDCC93
:101750008111EBCC8091D401853409F0E6CC44E0D2
:1017600050E060ED74E084EE91E00E94D211892B8C
:10177000A9F044E050E066E974E084EE91E00E9454
:10178000D211892B59F044E050E060E471E084EE1E
:1017900091E00E94D211892B09F0C7CC8091DD0124
:1017A000813009F0A3CE8091E801883009F0BDCCEA
:1017B0000E940E061092E8018091EA01883F28F00D
:1017C0009091EB019F5F9093EB01885F8093EA011A
:1017D000C7010E948E04A9CC0F931F93CF93DF9370
:1017E00089019091B204981781F0E091B304F091CF
:1017F000B40450E040E070E060E084E0099580E0EF
:10180000DF91CF911F910F9108956111F8CF2D3085
:101810003105A8F3C091B304D091B404209779F3B3
:10182000BA0161537E4F43E050E08AE691E00E94A6
:10183000E6116091F40170E024E0759567952A95B2
:10184000E1F7660F771F660F771F6E5D7F4F21E010
:10185000892B09F420E0A801822FFE01CFCFAF929F
:10186000BF92CF92DF92EF92FF920F931F93CF938D
:10187000DF93CDB7DEB7ED84FE84CF84D8888E01A8
:101880000F5E1F4FC6010196F6012491222309F431
:10189000D1C0243279F0D7011696ED91FC911797BB
:1018A000AF014F5F5F4F17965C934E93169720835F
:1018B0006C01E8CFB2E0CB0ED11CFC0184918634E0
:1018C00009F481C0A0F4843409F44CC0853409F4CF
:1018D00094C0D7011696ED91FC9117979F012F5F49
:1018E0003F4F17963C932E9316978083CBCFD7010B
:1018F00016964D915C918C3409F44DC0833509F4F2
:1019000057C0883431F7B8016E5F7F4FF80190817E
:10191000292F092E000C330B84E0359527958A95E5
:10192000E1F72F709F709A300CF0995F905D2A302C
:101930000CF0295FFA013196D7011796FC93EE93CC
:101940001697205DFA0120831696ED91FC9117976A
:101950009F012F5F3F4F17963C932E9316979083CE
:101960008B0190CF5801B2E0AB0EB11CF70166813C
:101970007781D8018D919C910E941E01F70186818B
:101980009781DC010D900020E9F7CD010197978345
:101990008683850177CF5801F4E0AF0EB11CD801E2
:1019A0006D917D918D919C912AE00E943311E6CF3B
:1019B0005801B2E0AB0EB11CF80160817181CA011F
:1019C0000E94DF11DBCFF8010190F081E02D0E5F66
:1019D0001F4F84913196882309F454CFD70116966E
:1019E0004D915C9117979A012F5F3F4F17963C934B
:1019F0002E931697DA018C93ECCFF80180819181B8
:101A00000E5F1F4F5C01BFEFAB1ABB0A0E9474113F
:101A1000882309F437CFD7011696ED91FC911797DB
:101A20009F012F5F3F4F17963C932E93169780830D
:101A3000C501E8CFDF91CF911F910F91FF90EF90FB
:101A4000DF90CF90BF90AF9008950F931F93CF93E7
:101A5000DF93CDB7DEB728970FB6F894DEBF0FBE81
:101A6000CDBF1C821B8228E331E03A8329832CEF0F
:101A700031E03E832D8338872F839091B2049813F1
:101A80002EC0A091B504B091B6041091B904009194
:101A9000BA046091BD047091BE048091B704909126
:101AA000B804AE014F5F5F4F109751F59F938F932E
:101AB0000F931F938091BC048F938091BB048F93ED
:101AC0007F936F938CEE90E09F938F935F934F93F0
:101AD0000E942F0C0FB6F894DEBF0FBECDBF8F81D2
:101AE00098852D813E81821B930B28960FB6F89422
:101AF000DEBF0FBECDBFDF91CF911F910F91089533
:101B0000FD0101900020E9F73197EA1BFB0B28E566
:101B100031E0009721F42AE531E084E790E0BF93BB
:101B2000AF93FF93EF933F932F939F938F930F93D5
:101B30001F937F936F9385E790E09F938F935F93BD
:101B40004F930E942F0CC6CF1F920F920FB60F9289
:101B500011242F933F938F939F93AF93BF938091C3
:101B6000C4049091C504A091C604B091C7043091FB
:101B7000C30423E0230F2D3758F50196A11DB11D95
:101B80002093C3048093C4049093C504A093C60417
:101B9000B093C7048091C8049091C904A091CA046D
:101BA000B091CB040196A11DB11D8093C804909300
:101BB000C904A093CA04B093CB04BF91AF919F9185
:101BC0008F913F912F910F900FBE0F901F901895FE
:101BD00026E8230F0296A11DB11DD2CF1F920F92AE
:101BE0000FB60F9211242F933F934F935F936F93F0
:101BF0007F938F939F93AF93BF93EF93FF9384ED66
:101C000094E00E946702FF91EF91BF91AF919F9185
:101C10008F917F916F915F914F913F912F910F9095
:101C20000FBE0F901F9018951F920F920FB60F9234
:101C300011242F938F939F93EF93FF93E091E404EC
:101C4000F091E5048081E091EA04F091EB0482FDDB
:101C50001BC090818091ED048F5F8F732091EE0403
:101C6000821741F0E091ED04F0E0EC52FB4F958FCC
:101C70008093ED04FF91EF919F918F912F910F90A1
:101C80000FBE0F901F9018958081F4CF2091EA012C
:101C90003091E8013093EA012093E8012091EB01B3
:101CA0003091E9013093EB012093E901E6ECF1E09A
:101CB00021A5820F911D25A585A7662381F021A767
:101CC000892F9927319721E0E23CF20789F710929A
:101CD000F8011092F90180E58093F401089511A6AE
:101CE000EFCF262F20612093F501643021F000977B
:101CF00011F481E090E061E00E94460E1092D6015E
:101D000088E28093D7010E940E0684E08093F6015A
:101D10001092F70122E04CE150E06AE182E30E9478
:101D2000110386E390E00C948E04789484B582606D
:101D300084BD84B5816084BD85B5826085BD85B56F
:101D4000816085BD80916E00816080936E001092ED
:101D50008100809181008260809381008091810068
:101D600081608093810080918000816080938000F9
:101D70008091B10084608093B1008091B000816057
:101D80008093B00080917A00846080937A00809183
:101D90007A00826080937A0080917A0081608093DB
:101DA0007A0080917A00806880937A001092C10056
:101DB000E091E404F091E50482E08083E091E004A6
:101DC000F091E1041082E091E204F091E3048FECE1
:101DD00080831092EC04E091E804F091E90486E03D
:101DE0008083E091E604F091E70480818061808344
:101DF000E091E604F091E704808188608083E091BF
:101E0000E604F091E704808180688083E091E60435
:101E1000F091E70480818F7D80838EE691E00E94BF
:101E2000BA051092A40487E390E0C12CD12C76016E
:101E3000C3940097C1F0FC01A3E0F595E795AA953E
:101E4000E1F7E757FB4F282F2770B701A60104C021
:101E5000440F551F661F771F2A95D2F72081242B28
:101E600020830197E6CF6EE271E080E994E00E9462
:101E7000F3058CEB92E090938804809387040CB474
:101E800006FC25C061E08AE00E94870161E08AE0EB
:101E90000E943B0161E08BE00E94870161E08DE0E0
:101EA0000E94870160E08CE00E94870161E08BE086
:101EB0000E943B0160E08BE00E943B0160E08DE00E
:101EC0000E943B0180E58CBD8DB581608DBD8AE0AF
:101ED0008093860461E00E9487010E948C034FEF8B
:101EE00060E08FEF0E94C0030E94B8016B017C018B
:101EF000E2E08E2E912CA12CB12C0E94B8016C191D
:101F00007D098E099F09683E734081059105A8F3FC
:101F100028EEC20E23E0D21EE11CF11C8A9489280F
:101F20008A288B2829F0812C912C54018394E5CFA9
:101F30000E9493038DE10E94870380E00E94870343
:101F4000CEB50E948C03CC2399F370E060E088E06A
:101F50000E94FE0370E060E08CE00E94FE036FEFE1
:101F60007BE08AE00E94FE0360E07CE084E00E9467
:101F7000FE036FEF71E186E00E94FE0366E774E006
:101F800084E10E94EE0461EB88E30E94F1036FE3B9
:101F900070E388E20E94FE0369EF77EF80E30E941E
:101FA000FE0361E080EC0E94F10342E362EC80E812
:101FB0000E94C00362E17CE086EC0E94FE0362E1C5
:101FC00084EC0E94F1036CED75E08AEC0E94FE0344
:101FD0006091900484EE0E94F1036091910485EE7B
:101FE0000E94F1036091920482EE0E94F1036091DD
:101FF000930483EE0E94F1036091940480EE0E94AA
:10200000F1036091950481EE0E94F10360E071E0BC
:1020100080E10E94EE048FE10E94D50340EC6BE169
:1020200080E80E94C00344E06FE180E80E94C003A2
:1020300082E70E940B041092A4046AE271E080ED32
:1020400094E00E94060610929F0410929E0481E084
:102050008093A50466E271E08AE994E00E94060696
:10206000E0EDF4E0CCECD4E0A6E9B4E09191899104
:102070008095892B8D9324E0E43DF207B9F762E265
:1020800071E086EA94E00E9406068DE791E00E94E6
:10209000690506EA14E0C0E0F80161918F0170E083
:1020A00090E080E04AE00E947605C33029F06EE2BD
:1020B00084ED94E00E948902CF5FC43069F788E51F
:1020C00091E00E9469058091A50481FD05C00E94F0
:1020D00023040E94A407F7CF86E891E00E94BA0586
:1020E00088E79CEEAFEFBFEF8093BF049093C004EE
:1020F000A093C104B093C20425E2422E2DE0522EDB
:1021000039E3632E31E0732E4AE5842E41E0942EAC
:10211000CBE2D1E009E111E05CECE52E55E0F52ED3
:102120006CEEC62E6BE0D62E80E5382E222423944A
:1021300090E0A92E90E0B92E0E9423040E94A407EB
:102140000E94DD01AB01BC018091BF049091C004ED
:10215000A091C104B091C20488579C4EAF4FBF4FAD
:1021600084179507A607B707E0F50E94DD01609385
:10217000BF047093C0048093C1049093C20484E9A7
:1021800091E00E94BA057092BE046092BD049092E4
:10219000BC048092BB04D093BA04C093B9041093DA
:1021A000B8040093B7041092B6041092B504F092EC
:1021B000B404E092B304D092B104C092B00450923F
:1021C000AF044092AE041092AD043092AC04209261
:1021D000AB048091AA048F5F87708093AA048093D8
:1021E000B204A114B10409F4A7CF0E9453028823BA
:1021F00009F49ACF0E94000097CFE4EDF4E0138237
:10220000128288EE93E0A0E0B0E084839583A683F9
:10221000B7838AE491E09183808385EC90E0958791
:10222000848784EC90E09787868780EC90E0918BA0
:10223000808B81EC90E0938B828B82EC90E0958B8D
:10224000848B86EC90E0978B868B118E128E138E8A
:10225000148E0895FB01DC0102C005900D924150DF
:102260005040D8F70895BB272A3051F4992342F4FF
:10227000BDE290958095709561957F4F8F4F9F4FF0
:102280000C944311BB27FA01A62F62177105810533
:102290009105330B30FB66F0AA27660F771F881F66
:1022A000991FAA1FA21710F0A21B63953850A9F717
:1022B000A05DAA3308F0A95DA19336F7B111B193DF
:1022C0001082CA010C946411DC01FC01672F71912A
:1022D0007723E1F7329704C07C916D93708362910C
:1022E000AE17BF07C8F30895F999FECF92BD81BD1F
:1022F000F89A992780B50895AA1BBB1B51E107C026
:10230000AA1FBB1FA617B70710F0A61BB70B881F85
:10231000991F5A95A9F780959095BC01CD01089514
:10232000A1E21A2EAA1BBB1BFD010DC0AA1FBB1FD9
:10233000EE1FFF1FA217B307E407F50720F0A21B4B
:10234000B30BE40BF50B661F771F881F991F1A94B8
:1023500069F760957095809590959B01AC01BD01E2
:10236000CF0108950E94C311A59F900DB49F900DB9
:10237000A49F800D911D11240895EE0FFF1F05905D
:10238000F491E02D0994A29FB001B39FC001A39FD7
:10239000700D811D1124911DB29F700D811D11249E
:1023A000911D0895FB01DC0104C08D9101908019FD
:1023B00021F441505040C8F7881B990B0895FB0148
:1023C000DC0101900D920020E1F70895FB01DC0192
:1023D0004150504030F08D910190801919F4002047
:1023E000B9F7881B990B0895F894FFCF4172647573
:1023F000696E6F2D454E4332386A36302D303000CD
:102400000000000000000000000000000A01A9FE1A
:102410005829A9FE5829A9FE582A7469692D303116
:10242000000000007303E90184038303FFFFFFFF43
:10243000FFFF000000008902E9011602D6024702F0
:10244000250239020D0A003C3C3C207265706C7913
:102450002000206D7300323030000A5B67657453D2
:10246000746174696349505D005365727665723AB0
:1024700020004761746577617920666F756E64002E
:0A2480000A3E3E3E20524551000086
:107E0000112484B714BE81FFF0D085E080938100F7
:107E100082E08093C00088E18093C10086E0809377
:107E2000C20080E18093C4008EE0C9D0259A86E02C
:107E300020E33CEF91E0309385002093840096BBD3
:107E4000B09BFECF1D9AA8958150A9F7CC24DD24C4
:107E500088248394B5E0AB2EA1E19A2EF3E0BF2EE7
:107E6000A2D0813461F49FD0082FAFD0023811F036
:107E7000013811F484E001C083E08DD089C08234E0
:107E800011F484E103C0853419F485E0A6D080C0E4
:107E9000853579F488D0E82EFF2485D0082F10E0AE
:107EA000102F00270E291F29000F111F8ED06801E7
:107EB0006FC0863521F484E090D080E0DECF843638
:107EC00009F040C070D06FD0082F6DD080E0C81688
:107ED00080E7D80618F4F601B7BEE895C0E0D1E017
:107EE00062D089930C17E1F7F0E0CF16F0E7DF06D8
:107EF00018F0F601B7BEE89568D007B600FCFDCFD4
:107F0000A601A0E0B1E02C9130E011968C91119780
:107F100090E0982F8827822B932B1296FA010C0160
:107F200087BEE89511244E5F5F4FF1E0A038BF0790
:107F300051F7F601A7BEE89507B600FCFDCF97BE46
:107F4000E89526C08437B1F42ED02DD0F82E2BD052
:107F50003CD0F601EF2C8F010F5F1F4F84911BD097
:107F6000EA94F801C1F70894C11CD11CFA94CF0C13
:107F7000D11C0EC0853739F428D08EE10CD085E9AC
:107F80000AD08FE07ACF813511F488E018D01DD067
:107F900080E101D065CF982F8091C00085FFFCCF94
:107FA0009093C60008958091C00087FFFCCF809118
:107FB000C00084FD01C0A8958091C6000895E0E648
:107FC000F0E098E1908380830895EDDF803219F02E
:107FD00088E0F5DFFFCF84E1DECF1F93182FE3DFCA
:107FE0001150E9F7F2DF1F91089580E0E8DFEE27F6
:047FF000FF270994CA
:027FFE00040479
:00000001FF
