:100000000C94DF010C9407020C9407020C94070275
:100010000C9407020C9407020C9407020C9407023C
:100020000C9407020C9407020C9407020C943111F3
:100030000C9407020C9407020C9407020C9407021C
:100040000C948F100C9407020C94FF100C94D91090
:100050000C9407020C9407020C9407020C940702FC
:100060000C9407020C94070263825363000108009A
:100070000604000100504F53542024462048545495
:10008000502F312E300D0A486F73743A2024460DDC
:100090000A244624534163636570743A202A2F2A48
:1000A0000D0A436F6E74656E742D4C656E677468CF
:1000B0003A2024440D0A436F6E74656E742D547992
:1000C00070653A206170706C69636174696F6E2F3E
:1000D000782D7777772D666F726D2D75726C656EE2
:1000E000636F6465640D0A0D0A245300474554206C
:1000F0002446245320485454502F312E300D0A48A2
:100100006F73743A2024460D0A24460D0A0D0A0026
:100110004500008200004000204163636570743A2E
:1001200020746578742F68746D6C006C6F63616CFB
:10013000686F73743A3830002F003C21444F4354A9
:100140005950452068746D6C3E3C68746D6C206C31
:10015000616E673D27656E273E3C686561643E3C85
:100160006D65746120636861727365743D275554D1
:10017000462D38273E3C6D657461206E616D653D8E
:100180002776696577706F72742720636F6E746568
:100190006E743D2777696474683D6465766963654C
:1001A0002D77696474682C20696E697469616C2D9F
:1001B0007363616C653D312E30273E3C7469746C0D
:1001C000653E456C656374726F6E6963732054722B
:1001D00065653C2F7469746C653E3C7374796C651D
:1001E0003E626F6479207B666F6E742D66616D6907
:1001F0006C793A20417269616C2C2073616E732DA9
:1002000073657269663B6261636B67726F756E647A
:100210002D636F6C6F723A20236630663066303B18
:10022000746578742D616C69676E3A2063656E74CD
:1002300065723B70616464696E673A203230707831
:100240003B7D6831207B636F6C6F723A20233333C0
:10025000333333333B7D70207B636F6C6F723A2096
:10026000233636363636363B7D3C2F7374796C65D3
:100270003E3C2F686561643E3C626F64793E3C6839
:10028000313E456C656374726F6E6963732054729E
:10029000656527732048616E64732D4F6E204A6F29
:1002A00075726E65793C2F68313E3C703E57656CC7
:1002B000636F6D6520746F20456C656374726F6E3B
:1002C00069637320547265652C20776865726520B8
:1002D0006F7572206E616D652069736EE28099742E
:1002E000206A7573742061207469746C65E280946F
:1002F0006974E2809973206120636F6D6D69746D1C
:10030000656E7420746F2070726163746963616CD0
:100310002067726F77746820696E20796F7572201C
:100320006B6E6F776C6564676520616E6420736BBC
:10033000696C6C732E5468696E6B206F66206974EB
:10034000206C696B6520706C616E74696E672061EA
:1003500020736565642E3C2F703E3C2F626F64797C
:100360003E3C2F68746D6C3E0000000000240027A6
:10037000002A0000000000250028002B00040404CF
:10038000040404040402020202020203030303033E
:10039000030102040810204080010204081020011B
:1003A00002040810200000000800020100000304FD
:1003B00007000000000000000000ED11831611246A
:1003C0001FBECFEFD8E0DEBFCDBF11E0A0E0B1E0AF
:1003D000E8E1F3E302C005900D92A63EB107D9F71C
:1003E00026E0A6EEB1E001C01D92A230B207E1F70F
:1003F00011E0CEEDD1E004C02197FE010E946C1700
:10040000CD3DD107C9F70E9489120C947F190C9435
:100410000000CF93DF93209117052223C1F0FC0148
:1004200020812223A1F0C7E1D5E0A3E1B5E09C0142
:100430002C5F3F4F899141919D918427892339F405
:10044000E217F307B9F781E0DF91CF91089580E0DB
:10045000FBCFCF93DF93EC01FB018A30910548F08D
:100460006AE070E00E945817CB01BF010E94290288
:10047000FC01CE016AE070E00E945817805D808325
:100480001182CF010196DF91CF91089590E0FC0198
:10049000EB55FC4F2491FC01EF56FC4F3491FC01CD
:1004A000E358FC4FE491EE23C9F0222339F02330C6
:1004B00001F1A8F4213019F1223029F1F0E0EE0F1A
:1004C000FF1FED58FC4FA591B4918FB7F894EC91B4
:1004D000611126C030953E233C938FBF089527308D
:1004E000A9F02830C9F0243049F7809180008F7D31
:1004F00003C0809180008F7780938000DFCF84B528
:100500008F7784BDDBCF84B58F7DFBCF8091B0002A
:100510008F778093B000D2CF8091B0008F7DF9CFDC
:100520003E2BDACFCF93DF9390E0FC01EF56FC4FE8
:10053000249183589C4FFC0184918823D1F090E052
:10054000880F991FFC01E759FC4FA591B491FC015C
:10055000ED58FC4FC591D49161110EC09FB7F8942E
:100560008C91E22FE0958E238C932881E223E883FF
:100570009FBFDF91CF9108958FB7F894EC91E22B54
:10058000EC938FBFF6CF3FB7F89480910F05909111
:100590001005A0911105B091120526B5A89B05C0C4
:1005A0002F3F19F00196A11DB11D3FBFBA2FA92FF2
:1005B000982F8827BC01CD01620F711D811D911DEF
:1005C00042E0660F771F881F991F4A95D1F708955B
:1005D0002FB7F89460910B0570910C0580910D0573
:1005E00090910E052FBF08950895AF92BF92CF92BC
:1005F000DF92EF92FF920F931F93CF93DF936C01E3
:100600007B018B01040F151FEB015E01AE18BF08C3
:10061000C017D10759F06991D601ED91FC91019075
:10062000F081E02DC6010995892B79F7C501DF918D
:10063000CF911F910F91FF90EF90DF90CF90BF90DF
:10064000AF900895FC01538D448D252F30E0842F09
:1006500090E0821B930B541710F0CF9608950197EA
:100660000895FC01918D828D981761F0A28DAE0FD7
:10067000BF2FB11D5D968C91928D9F5F9F73928F5E
:1006800090E008958FEF9FEF08950F931F930E94BE
:10069000E8026093230570932405809325059093C9
:1006A00026058BE195E00E94310397FF1DC00E9453
:1006B000E802009123051091240520912505309131
:1006C0002605601B710B820B930B00911F05109187
:1006D00020052091210530912205601771078207BE
:1006E0009307F8F28FEF9FEF1F910F910895FC0190
:1006F000918D828D981731F0828DE80FF11D858DD7
:1007000090E008958FEF9FEF0895FC01918D228D69
:10071000892F90E0805C9F4F821B91098F739927EE
:1007200008958BE195E00E94850321E0892B09F46F
:1007300020E0822F089580E090E0892B29F00E942C
:10074000910381110C9400000895FC01A48DA80F61
:10075000B92FB11DA35ABF4F2C91848D90E0019603
:100760008F739927848FA689B7892C93A089B18923
:100770008C91837080648C93938D848D981306C0C4
:100780000288F389E02D80818F7D80830895EF9228
:10079000FF920F931F93CF93DF93EC0181E0888F3B
:1007A0009B8D8C8D98131AC0E889F989808185FF0B
:1007B00015C09FB7F894EE89FF896083E889F989AD
:1007C00080818370806480839FBF81E090E0DF91AF
:1007D000CF911F910F91FF90EF900895F62E0B8D02
:1007E00010E00F5F1F4F0F731127E02E8C8D8E11BD
:1007F0000CC00FB607FCFACFE889F989808185FF24
:10080000F5CFCE010E94A503F1CFEB8DEC0FFD2FAC
:10081000F11DE35AFF4FF0829FB7F8940B8FEA89DE
:10082000FB8980818062CFCFCF93DF93EC01888DED
:100830008823B9F0AA89BB89E889F9898C9185FD5B
:1008400003C0808186FD0DC00FB607FCF7CF8C91E9
:1008500085FFF2CF808185FFEDCFCE010E94A503F9
:10086000E9CFDF91CF91089580915E0290915F0270
:10087000982789279827449720917C0230E044E00C
:10088000359527954A95E1F7220F331F220F331F25
:10089000821B930B97FF02C090E080E008952091A7
:1008A0007202309170023093720220937002209194
:1008B0007302309171023093730220937102EEE45F
:1008C000F2E021A5820F911D25A585A7662381F061
:1008D00021A7892F9927319722E0EA34F20789F777
:1008E000109280021092810280E580937C0208952C
:1008F00011A6EFCF0F931F93CF93DF9370E0625B4E
:100900007D4F8A01075F1F4F213029F0223031F4DB
:100910008A010250110930E020E003C000E010E03D
:100920009801EB01FA01E230F10558F0A991B99173
:10093000BA27AB27BA270A0F1B1F211D311D32977B
:10094000F2CFFA01EE7F6E0F7F1F4E175F0769F03F
:10095000FB01408150E070E060E0762F652F542F5E
:100960004427040F151F261F371FA9016627772765
:10097000411551056105710519F022273327F1CF83
:1009800000951095E82FF0E0E25BFD4F10830183A6
:10099000DF91CF911F910F910895EEE4F2E0108E58
:1009A000118E80E4848B158A868B20E044E150E030
:1009B0006EE088E10C947A04DC011696ED91FC91CE
:1009C00017979F012F5F3F4F17963C932E931697D3
:1009D000608381E090E008958EBD0DB407FEFDCFE9
:1009E000089561E0809113020E9446027894089570
:1009F000F89460E0809113020C9446020F931F93C9
:100A0000CF93DF93EC018B010E94F8042097B9F09B
:100A10008AE30E94EC041EBCF801CE01019739F074
:100A20000DB407FEFDCF2EB51EBC2193F7CF219745
:100A3000C00FD11F0DB407FEFDCF8EB58883DF91A7
:100A4000CF911F910F910C94F1041F93CF93DF93DB
:100A5000182FC62FD42F0E94F8048C2F8F71812B52
:100A60000E94EC048D2F0E94EC04DF91CF911F9126
:100A70000C94F104CF93C82FC0768091E9018C17B4
:100A800099F043E06FE180EA0E942505C093E901F7
:100A90004C2F50E085E0559547958A95E1F76FE139
:100AA00080E8CF910C942505CF910895CF93DF93E3
:100AB000C82FD62F0E943A054D2F6C2F80E4DF916E
:100AC000CF910C942505CF93DF93C82FD72F0E9489
:100AD00056056D2F81E08C0FDF91CF910C94560558
:100AE000CF93C82F0E943A050E94F8048C2F8F7173
:100AF0000E94EC0480E00E94EC04C7FF03C080E089
:100B00000E94EC04CEB50E94F1048C2FCF91089581
:100B10000F931F93CF93DF9300D000D000D0CDB7B9
:100B2000DEB78091EC01882379F06091EA01709141
:100B3000EB016115710509F053C06FEF7BE08CE0AC
:100B40000E9463051092EC0189E30E94700510E099
:100B500000E08823C9F16091EA017091EB0180E027
:100B60000E946305BE016F5F7F4F86E090E00E94A8
:100B7000FE0489819A819093EB018093EA018D8133
:100B80009E818C010078112787FF12C08B819C8188
:100B90000497009114021091150201501109801759
:100BA000910708F48C016EE472E0C8010E94FE0413
:100BB000F801E25BFD4F108281E08093EC0140E49C
:100BC0006EE180E80E942505C80126960FB6F894CC
:100BD000DEBF0FBECDBFDF91CF911F910F91089562
:100BE00061507109ACCFCF93DF93EC0140E86FE126
:100BF00080E80E94250540E86FE180EA0E94250513
:100C00004AE06CE180EA0E94250560E07CE082E039
:100C10000E946305BE01745F86E00E94630540E0A8
:100C200060E08AE70E9425050E94F8042097B1F051
:100C30008AE70E94EC0480914E028EBDEFE4F2E060
:100C4000C25BDD4FEC17FD0731F081910DB407FE5B
:100C5000FDCF8EBDF7CF0DB407FEFDCF0E94F1048E
:100C600048E06FE180E80E942505D0E0C0E08CE11B
:100C70000E9470058A7029F42196C83E83E0D80747
:100C8000B1F78CE10E94700581FD03C0C83ED340DE
:100C900039F448E06FE180EADF91CF910C942505AB
:100CA000DF91CF9108950F931F93CF93DF938C0122
:100CB0008896CEE4D2E0988B898B0E94CD041AAA44
:100CC0001BAAA801445E5F4F22E06AE182E30E9412
:100CD0007A04C801C696DF91CF911F910F910C94B1
:100CE000F305CF93DF93EB01682F84ED0E94560547
:100CF000BE0186ED0E9463058AEE0E94700580FDAC
:100D0000FBCFDF91CF910895CF92DF92EF92FF92C8
:100D10000F931F938634910568F12091710223345B
:100D200049F5C0907C02D0907D02E0907E02F09068
:100D30007F020091F2011091F3012091F4013091B2
:100D4000F501C016D106E206F306A1F4E8E6F3E0E9
:100D5000825B9D4F9F012E5F3F4F418150815533F4
:100D600019F45281651771F0F901E40FF11DE817CC
:100D7000F90780F380E01F910F91FF90EF90DF90D3
:100D8000CF90089581E0F7CFE091E701F091E8017D
:100D90009F012F5F3F4F3093E8012093E70180834D
:100DA0000895FF920F931F93CF93DF93162FF42E86
:100DB000052F0E94C406812F0E94C406CF2DD02F7C
:100DC000115020F089910E94C406FACFDF91CF9193
:100DD0001F910F91FF90089590E080E00895CF93C8
:100DE000DF93EC0160E08E810E94460261E08E811B
:100DF0000E94460260E08E810E9446028BE891E0EC
:100E00000197F1F7DF91CF910895CF92DF92EF92A2
:100E1000FF920F931F93CF93DF936C017C0187E0C8
:100E2000E80EF11CD0E0C0E0062F10E0B8010C2E57
:100E300002C0759567950A94E2F76170F701819198
:100E40007F010E9446022196C430D10579F7C60180
:100E5000DF91CF911F910F91FF90EF90DF90CF9096
:100E60000C94EF06CF92DF92EF92FF920F931F93B5
:100E7000CF93DF93EC01F62E642F8C810E94460203
:100E80008D818F3F19F060E00E9446020F2D10E027
:100E90008F8584FF25C06E0187E0C80ED11CF12C20
:100EA000E12CB8010E2C02C0759567950A94E2F703
:100EB0006170F60181916F010E944602FFEFEF1A07
:100EC000FF0A88E0E816F10461F7CE01DF91CF91C7
:100ED0001F910F91FF90EF90DF90CF900C94EF0651
:100EE000B80184E0759567958A95E1F7CE010E9477
:100EF00005076F2DCE01DF91CF911F910F91FF90CC
:100F0000EF90DF90CF900C94050740E0682F86EEBD
:100F100095E00C943207CF93DF93823029F49091BF
:100F2000F50598609093F5058093F9051092FA0500
:100F300080E48093FB0580E18093FC0580E580934D
:100F4000FD0561E08091EA050E9492028091EB0527
:100F50008F3F19F061E00E94920261E08091EC0500
:100F60000E949202C6EED5E09E01265E3540809139
:100F7000F50584FD0BC084E090E021962817390721
:100F800044F461E08E810E949202EECF88E090E00E
:100F9000F4CF8BE39DE00197F1F760E08091EA05E3
:100FA0000E94460260E08091EC050E94460280911A
:100FB000EB058F3F19F060E00E9446028091F50535
:100FC00084FD39C063E086EE95E00E940507CBE41E
:100FD000D6E4CE010197F1F763E086EE95E00E943A
:100FE00005072197F1F763E086EE95E00E9405077B
:100FF00083E592E00197F1F762E086EE95E00E94CA
:1010000005078091F50580620E94850784E0809342
:10101000F6058CE00E94850781E00E9485078BE33E
:101020009FE10197F1F782E08093F70586E0DF9179
:10103000CF910C94850780620E9485078BE496E42B
:101040000197F1F78091F50580620E94850783E59D
:1010500092E00197F1F78091F50580620E94850783
:10106000D0CF41E00E94320781E090E00895CF9315
:10107000DF93EC0188819981009711F00E940E188E
:10108000198218821D821C821B821A82DF91CF91E5
:101090000895FC0180819181009711F00C940E1845
:1010A0000895FB0101900020E9F73197AF01461B3D
:1010B000570BDC01ED91FC910280F381E02D099446
:1010C000CF93DF93BC018BE195E00E945108EC01C6
:1010D0006AE671E08BE195E00E9451088C0F9D1F3C
:1010E000DF91CF9108956DE671E08BE195E00C946E
:1010F00051080F931F93CF93DF93EC01888199815F
:10110000009759F02A813B812617370730F081E09C
:10111000DF91CF911F910F9108958B016F5F7F4FEA
:101120000E949718009759F0998388831B830A833C
:101130002C813D81232B59F7FC011082E8CF80E000
:10114000E7CFEF92FF920F931F93CF93DF938C0122
:101150007B01EB0109900020E9F72197C61BD70B13
:10116000BE010E947908811109C0C801DF91CF91A9
:101170001F910F91FF90EF900C943708F801D583E1
:10118000C483B70180819181DF91CF911F910F912D
:10119000FF90EF900C946A19DC0196E0FB0101903E
:1011A0000D929A95E1F70895BC018EE492E00E94B9
:1011B000CC086DE172E084E592E00C94CC08DC018F
:1011C00094E0FB0101900D929A95E1F7089584E572
:1011D00092E00E94D40868E672E08CE692E00E94F9
:1011E000DF0867E175E088E692E00E94DF080C9472
:1011F000CD04262F206120937D02643021F00097DA
:1012000011F481E090E061E00E944F0410925E02D0
:1012100088E280935F020E94E70884E080937E0268
:1012200010927F0222E04CE150E06AE182E30E94EA
:101230007A0486E390E00C94F305CF93DF93EB01FF
:101240000E94D408BE018CE692E00E94DF0867E1AC
:1012500075E088E692E0DF91CF910C94DF08CF93A0
:10126000DF93EB0144E050E0BC018AE692E00E948B
:101270005419892B49F464E672E0CE010E94CC082F
:1012800081E0DF91CF91089580E0FBCF0F931F9312
:10129000CF938C0186E491E00E94D408EEE4F2E062
:1012A00088E08487C6E0C58748E050E06CE670E0DF
:1012B0008CE592E00E948716EEE6F2E0DF011D92D7
:1012C000CA95E9F76DE172E084E692E00E94CC08ED
:1012D000B80184E792E00E94DF0867E175E08AE6E2
:1012E00092E00E94DF088AE290E0CF911F910F9177
:1012F0000C94F305EF92FF920F931F93CF93DF931C
:101300008C01EEE4F2E086E191E0DF019C011D92A8
:1013100021503040E1F780910202C6E4D1E08330F1
:1013200011F4CDEED1E0CE010E940902BE01882366
:1013300009F4ACC083E092E00E941D098881807F9F
:10134000803E91F088819981AA81BB818F3F9F4F18
:10135000AF4FBF4F49F044E050E0BE0183E292E05E
:101360000E945419892B31F466E471E08EE492E016
:101370000E94CC0888E080935A0210925B0249E0F8
:1013800050E060E171E08CE592E00E9487161092D7
:101390005E0281E1809365021092720283E4809381
:1013A00073021092700284E48093710210927402AE
:1013B000109276021092770266E471E08EE492E079
:1013C0000E94CC0881E0809378028093790286E0C5
:1013D00080937A028091F2019091F301A091F4013F
:1013E000B091F50180937C0290937D02A0937E02E0
:1013F000B0937F02C0910202C33031F467E175E01F
:1014000084E892E00E94DF086DE172E084E992E0F6
:101410000E94CC0884E693E09093E8018093E70172
:10142000E8E6F0E084910E94C406E9E6F0E08491E9
:101430000E94C406EAE6F0E084910E94C406EBE64E
:10144000F0E084910E94C40685E30E94C40681E016
:101450000E94C40683E0C11101C081E00E94C4065D
:101460008DE30E94C40687E00E94C40681E00E94CA
:10147000C4068DE1E82E82E0F82EC7E0C15049F0A5
:10148000D7018D917D010E94C406F8CF89E092E0DA
:1014900053CF80910001882371F060E071E0FB017F
:1014A00001900020E9F7BF016150714040E051E038
:1014B0008CE00E94D1060115110559F0A80164E0E5
:1014C00082E30E94D1064DEE51E064E086E30E9483
:1014D000D10687E30E94C40683E00E94C40681E02F
:1014E0000E94C40683E00E94C40686E00E94C406EF
:1014F0008FEF0E94C406C091E701D091E801C85760
:10150000D240CE014C9690935E0280935F020E947F
:10151000CD04CE0108969093740280937502AE01BB
:10152000405F5F4F21E06AE188E20E947A04CE01C9
:101530008A96DF91CF911F910F91FF90EF900C94BD
:10154000F3058F929F92AF92BF92CF92DF92EF926C
:10155000FF920F931F93CF93DF9300D000D0CDB7AE
:10156000DEB77C0180913102882369F0809102020C
:10157000823009F4F1C008F0E9C0882309F474C18D
:10158000813009F490C1E114F10409F02BC280917B
:101590003202857029F180912B0290912C02892BC7
:1015A000F9F461E184ED0E94560561E082ED0E944C
:1015B00056058AEE0E94700580FDFBCF60E082ED4B
:1015C0000E94560589ED0E94700582FF09C087E2DE
:1015D00092E00E9446098091320288608093320234
:1015E00080912B0290912C02019690932C02809373
:1015F0002B0280913402813009F079C0809132024F
:1016000081FF75C082E080933402809121018F5F59
:1016100080932101F0903502E09036021091330260
:10162000A0E21A9F900111248F71182F122B88E4C9
:1016300092E00E94090268E472E0882309F4BFC1C5
:1016400083E092E00E941D0908E000935A02109284
:101650005B0249E050E060E171E08CE592E00E94BD
:1016600087168CE280935F0286E0809365020E9479
:10167000CD04E0927202F09273028BE080937002CC
:1016800010937102E4E7F2E0DF011D920A95E9F799
:1016900080912001809376028D5F8093200180E607
:1016A00080937C0282E080937D0293E090937E029F
:1016B00010927F0210928002109281021092820298
:1016C000109283028093840294E090938502809329
:1016D000860286E28093870222E040E250E06AE1DF
:1016E00082E30E947A048AE390E00E94F3058DE28F
:1016F00092E00E940902882379F080911202811100
:101700000BC080911102811107C08DE292E00E940E
:10171000460981E08093110288E492E00E94090268
:10172000811150C110E000E0C8010F900F900F90A0
:101730000F90DF91CF911F910F91FF90EF90DF906D
:10174000CF90BF90AF909F908F900895833009F411
:1017500056C0843009F017CF65E0C7010E948406A7
:10176000882309F4C9C08091F101811108C088E380
:101770000E947005682F6E7F88E30E94560568E816
:1017800072E087E195E00E94DF08E8E6F3E0C70138
:10179000825B9D4F6C018F010E5F1F4FB180808176
:1017A000863009F4FBC008F0BEC0813009F4ECC0FB
:1017B000833009F4EFC0F801EB0DF11DEC15FD05C8
:1017C00050F30E94E8026093FA017093FB0180934A
:1017D000FC019093FD0180912702882361F0109213
:1017E0002C0210922B0281E08093320267E272E0B9
:1017F000CB010E94DF0883E080930202C4CE809078
:10180000FE019090FF01A0900002B09001022FEF26
:1018100082169206A206B20609F4B5CE0E94E8022C
:101820000091FA011091FB012091FC013091FD0122
:10183000601B710B820B930B681579058A059B055C
:1018400008F4A1CE87E195E00E947A0984E08093B4
:1018500002020E94E8026093F6017093F701809300
:10186000F8019093F9018FCE0E94E8026093F20193
:101870007093F3018093F4019093F501E7E1F5E0B3
:1018800084E0DF011D928A95E9F790E080E00E94F4
:101890007A0988E30E947005682F616088E30E94DE
:1018A000560581E0D4CF62E0C7010E9484068823F8
:1018B00019F168E872E0CE0101960E94DF08E8E6BF
:1018C000F3E0C701825B9D4FBF016E5F7F4F2181B7
:1018D0003081363351F48DEE91E00E94DF08CE0165
:1018E00001960E947A0982E0B2CFFB01E20FF11D5E
:1018F000E817F90748F3F3CF0E94E8020091F601D8
:101900001091F7012091F8013091F901601B710BE2
:10191000820B930B613177428105910508F433CE38
:101920001092020230CE8A3331F08F3F09F449CF52
:10193000833309F040CF1092FE011092FF01109204
:10194000000210920102F801C801049620E030E084
:10195000A9016191542F432F322F2227260F311DC9
:10196000411D511DE817F907A1F72F3F9FEF3907D8
:1019700049075907B9F42093FE013093FF014093C2
:1019800000025093010217CFB80183E195E00E9455
:10199000DF0811CFB80187E292E0F9CFB8018DE2FC
:1019A00092E0F5CFA8EEB3E00E94D9166093FE0155
:1019B0007093FF018093000290930102FCCE89E0B6
:1019C00092E040CE809110028111ACCE80910F0246
:1019D0008111A8CE88E492E00E94460981E08093BC
:1019E0000F02A0CEB9E2EB16F10408F49BCE809171
:1019F0005A02883009F096CE80915B02863009F059
:101A00008DC144E050E067E175E084E792E00E9418
:101A10005419892B09F086CE80916302813029F513
:101A200084E592E00E94D4081092620282E08093E2
:101A3000630264E672E08EE692E00E94CC086DE1FB
:101A400072E084E692E00E94CC086AE672E084E7E5
:101A500092E00E94DF0867E175E08AE692E00E946A
:101A6000DF088AE290E00E94F3058091320283FF52
:101A70000DC010916302123049F469E072E087E210
:101A800092E00E942F09811110933202809112027C
:101A9000811111C080911102882369F063E072E026
:101AA0008DE292E00E942F09882329F081E0809343
:101AB00012021092110280911002811133CE809196
:101AC0000F02882309F42ECE63E072E088E492E0EE
:101AD0000E942F09882309F425CE81E0809310020B
:101AE00010920F021FCE26E3E216F10408F41ACE7C
:101AF000863009F017CE809172028B3009F0A4C0B5
:101B000044E050E068E472E088E692E00E945419F4
:101B1000892B09F007CED0907D02D2FE15C0E0914E
:101B20003902F0913A02309759F08091730230E017
:101B300020E050E040E063E082958695877009954B
:101B400085E080933402EECD0E9434048C018091B4
:101B50003402823081F59D2D90718D2D82718231FC
:101B6000E1F460E090E080E00E94F90888E1809371
:101B70007D02E0913702F091380290E080E03097EA
:101B800031F080917102829586958770099523E0E6
:101B9000209334020E945306C5CD81E08093340225
:101BA000911106C0C801019664E00E94F908BACDFF
:101BB00090E080E0F9CF8330A1F501151105A1F186
:101BC000E0913902F0913A02309771F180917C02F4
:101BD00090E024E0959587952A95E1F7880F991F65
:101BE000880F991F8296A7014850510984179507BD
:101BF00008F4AC01C801840F951F9701241B350B15
:101C0000E816F90608F098018091730260E0829569
:101C100086958770099569E0C8010E94F90886E0F9
:101C200090CF853009F47ECDD0FE07C0833009F413
:101C300079CD69E0C8010196F0CF0115110509F4CD
:101C400071CD60E0C801B1CF81116CCD809173027C
:101C5000803509F067CDD0907D02D1FE39C0109259
:101C60005E028CE280935F020E94E70882E180932B
:101C70007D0260E081E090E00E944F0410927402C7
:101C80001092750280912001809376021092770263
:101C90008D5F8093200182E08093840284E08093B2
:101CA000850285E0809386021092870290E69093E9
:101CB0007C0280937E0288E780937F0222E040E2EC
:101CC00050E06AE182E30E947A048AE390E06CC00B
:101CD000D4FE28CD0E9434048C0190934D02809351
:101CE0004C02892B99F000917C0210E084E015955C
:101CF00007958A95E1F7000F111F000F111F0E5D68
:101D00001F4FE016F10608F00FCD0CCDD0FE0ACD26
:101D100060E090E080E00E94F90806CD99E2E916C3
:101D2000F10409F4FFCC8111FDCC80915C02853473
:101D300009F0F8CC44E050E067E175E08CE692E011
:101D40000E945419892BA9F044E050E063E272E04C
:101D50008CE692E00E945419892B59F044E050E03F
:101D600066E471E08CE692E00E945419892B09F038
:101D7000D9CC80916502813009F0B5CE8091700296
:101D8000883009F0CFCC0E94E70810927002809151
:101D90007202883F28F0909173029F5F90937302C4
:101DA000885F80937202C7010E94F305BBCC0F933A
:101DB0001F93CF93DF93890190913B02981781F095
:101DC000E0913C02F0913D0250E040E070E060E0C4
:101DD00084E0099580E0DF91CF911F910F910895E4
:101DE0006111F8CF2D303105A8F3C0913C02D0919C
:101DF0003D02209779F3BA01695A7D4F43E050E0E4
:101E000088E791E00E94711960917C0270E024E003
:101E1000759567952A95E1F7660F771F660F771F0F
:101E20006E5D7F4F21E0892B09F420E0A801822F0D
:101E3000FE01CFCFAF92BF92CF92DF92EF92FF928F
:101E40000F931F93CF93DF93CDB7DEB7ED84FE845E
:101E5000CF84D8888E010F5E1F4FC6010196F60110
:101E60002491222309F4D1C0243279F0D7011696A7
:101E7000ED91FC911797AF014F5F5F4F17965C9301
:101E80004E93169720836C01E8CFB2E0CB0ED11CA5
:101E9000FC018491863409F481C0A0F4843409F4EF
:101EA0004CC0853409F494C0D7011696ED91FC918D
:101EB00017979F012F5F3F4F17963C932E931697CE
:101EC0008083CBCFD70116964D915C918C3409F469
:101ED0004DC0833509F457C0883431F7B8016E5FBF
:101EE0007F4FF8019081292F092E000C330B84E0DD
:101EF000359527958A95E1F72F709F709A300CF0F1
:101F0000995F905D2A300CF0295FFA013196D70174
:101F10001796FC93EE931697205DFA012083169690
:101F2000ED91FC9117979F012F5F3F4F17963C93C0
:101F30002E93169790838B0190CF5801B2E0AB0E91
:101F4000B11CF70166817781D8018D919C910E9427
:101F50002902F70186819781DC010D900020E9F7C5
:101F6000CD01019797838683850177CF5801F4E0EF
:101F7000AF0EB11CD8016D917D918D919C912AE09D
:101F80000E949016E6CF5801B2E0AB0EB11CF801EA
:101F900060817181CA010E946A19DBCFF80101904A
:101FA000F081E02D0E5F1F4F84913196882309F454
:101FB00054CFD70116964D915C9117979A012F5FD8
:101FC0003F4F17963C932E931697DA018C93ECCFE4
:101FD000F801808191810E5F1F4F5C01BFEFAB1A4A
:101FE000BB0A0E94D116882309F437CFD701169671
:101FF000ED91FC9117979F012F5F3F4F17963C93F0
:102000002E9316978083C501E8CFDF91CF911F9162
:102010000F91FF90EF90DF90CF90BF90AF90089519
:102020000F931F93CF93DF93CDB7DEB728970FB6EB
:10203000F894DEBF0FBECDBF1C821B822EE331E0C1
:102040003A83298324E832E03E832D8338872F8327
:1020500090913B0298132EC0A0913E02B0913F0296
:102060001091420200914302609146027091470232
:102070008091400290914102AE014F5F5F4F1097F7
:1020800051F59F938F930F931F93809145028F93E8
:10209000809144028F937F936F938CEE90E09F9397
:1020A0008F935F934F930E941A0F0FB6F894DEBF81
:1020B0000FBECDBF8F8198852D813E81821B930BF2
:1020C00028960FB6F894DEBF0FBECDBFDF91CF913B
:1020D0001F910F910895FD0101900020E9F73197BC
:1020E000EA1BFB0B2AE631E0009721F42CE631E0F5
:1020F00084E790E0BF93AF93FF93EF933F932F93C9
:102100009F938F930F931F937F936F9385E790E037
:102110009F938F935F934F930E941A0FC6CF1F9286
:102120000F920FB60F9211242F933F938F939F938B
:10213000AF93BF9380910B0590910C05A0910D0575
:10214000B0910E0530910A0523E0230F2D3758F585
:102150000196A11DB11D20930A0580930B05909354
:102160000C05A0930D05B0930E0580910F0590917D
:102170001005A0911105B09112050196A11DB11D88
:1021800080930F0590931005A0931105B09312054D
:10219000BF91AF919F918F913F912F910F900FBE63
:1021A0000F901F90189526E8230F0296A11DB11DD0
:1021B000D2CF1F920F920FB60F9211242F933F93FD
:1021C0004F935F936F937F938F939F93AF93BF933F
:1021D000EF93FF938BE195E00E94A503FF91EF91B0
:1021E000BF91AF919F918F917F916F915F914F912F
:1021F0003F912F910F900FBE0F901F9018951F9237
:102200000F920FB60F9211242F938F939F93EF93FA
:10221000FF93E0912B05F0912C058081E091310531
:10222000F091320582FD1BC09081809134058F5F53
:102230008F7320913505821741F0E0913405F0E06D
:10224000E55EFA4F958F80933405FF91EF919F9152
:102250008F912F910F900FBE0F901F901895808136
:10226000F4CF1F920F920FB60F9211242F933F932A
:102270004F935F936F937F938F939F93AF93BF938E
:10228000CF93DF93EF93FF938091E601C091DC053C
:10229000D0E087FF24C010928500109284008091C6
:1022A000E6018F5F8093E6018091E601082E000C25
:1022B000990B8C179D0724F48091E6018C30C4F1B2
:1022C0008091840090918500049680349C4908F4A4
:1022D0007AC08091840090918500049676C08091A8
:1022E000E601082E000C990B8C179D07C4F6E091AF
:1022F000E6018E2FEE0F990BFC01EE0FFF1FE80F8A
:10230000F91FE854FA4F808186FFC9CFE091E601BA
:102310008E2FEE0F990BFC01EE0FFF1FE80FF91F38
:10232000E854FA4F808160E08F730E944602B7CF75
:102330002091840030918500E091E6018E2FEE0F10
:10234000990BFC01EE0FFF1FE80FF91FE854FA4F3D
:1023500081819281820F931F9093890080938800DE
:10236000E091E6018E2FEE0F990BFC01EE0FFF1F9F
:10237000E80FF91FE854FA4F808186FF11C0E09101
:10238000E6018E2FEE0F990BFC01EE0FFF1FE80FF9
:10239000F91FE854FA4F808161E08F730E94460272
:1023A000FF91EF91DF91CF91BF91AF919F918F916D
:1023B0007F916F915F914F913F912F910F900FBE41
:1023C0000F901F90189580E49CE99093890080936A
:1023D00088008FEF8093E601E3CFCF9310921E0524
:1023E00010921D0588EE93E0A0E0B0E080931F05F9
:1023F00090932005A0932105B093220580E591E0FC
:1024000090931C0580931B0585EC90E09093280524
:102410008093270584EC90E090932A05809329050A
:1024200080EC90E090932C0580932B0581EC90E05C
:1024300090932E0580932D0582EC90E090933005CB
:1024400080932F0586EC90E09093320580933105C0
:10245000109234051092350510923605109237050A
:102460001092E9051092E80582E691E09093E70565
:102470008093E60587E08093EA05CFEFC093EB05F4
:1024800086E08093EC0585E08093ED0584E0809301
:10249000EE0583E08093EF0582E08093F0051092D3
:1024A000F1051092F2051092F3051092F4051092C6
:1024B000F50581E00E948B071092E1051092E0057E
:1024C0001092E3051092E2051092E5051092E405E2
:1024D0006CE671E080EE95E00E94A1088091DC0539
:1024E0008C30A0F491E0980F9093DC058093DD058B
:1024F00090E0FC01EE0FFF1FE80FF91FE854FA4FC0
:1025000088EB9BE092838183CF910895C093DD0592
:10251000FBCFCF93DF93CDB7DEB7A3970FB6F89479
:10252000DEBF0FBECDBF789484B5826084BD84B514
:10253000816084BD85B5826085BD85B5816085BDBE
:1025400080916E00816080936E0010928100809176
:1025500081008260809381008091810081608093FE
:102560008100809180008160809380008091B10023
:1025700084608093B1008091B00081608093B0004E
:1025800080917A00846080937A0080917A008260E2
:1025900080937A0080917A00816080937A008091A4
:1025A0007A00806880937A001092C100E0912B0538
:1025B000F0912C0582E08083E0912705F0912805B9
:1025C0001082E0912905F0912A058FEC808310920A
:1025D0003305E0912F05F091300586E08083E0918E
:1025E0002D05F0912E05808180618083E0912D057D
:1025F000F0912E05808188608083E0912D05F09117
:102600002E05808180688083E0912D05F0912E0554
:1026100080818F7D80838091DD058C3008F051C0F2
:1026200061E089E00E9492028091DD05282F30E070
:10263000F901EE0FFF1FE20FF31FE854FA4F9081EC
:10264000907C996090831092DE051092DF052CE05B
:10265000622F0E944C17829FB001112430E020E0CD
:10266000AB01420F531FFA01EE0FFF1FE40FF51FDE
:10267000E854FA4F908196FD16C02F5F3F4F2C30E3
:10268000310571F781110FC01092800082E08093B4
:1026900081001092850010928400B19A80916F00A1
:1026A000826080936F00E091DD058E2F90E0FC0149
:1026B000EE0FFF1FE80FF91FE854FA4F8081806486
:1026C0008083E091DD05EC30E0F42091DE0588E8C0
:1026D00090E0821B910927FD9395F3E0880F991FE5
:1026E000FA95E1F704974FB7F8942E2F30E0F901EF
:1026F000EE0FFF1FE20FF31FE854FA4F928381831E
:102700004FBF61E088E00E9492028CE791E00E9456
:10271000600882E00E948B076FE871E086EE95E02A
:102720000E9451081092310287E390E0C12CD12C15
:102730007601C3940097C1F0FC0163E0F595E7953D
:102740006A95E1F7EA5EFD4F282F2770B701A601D1
:1027500004C0440F551F661F771F2A95D2F72081AA
:10276000242B20830197E6CF6EE271E08DE192E0A9
:102770000E94CC088CEB92E0909315028093140297
:102780000CB406FC25C061E08AE00E94920261E080
:102790008AE00E94460261E08BE00E94920261E0C2
:1027A0008DE00E94920260E08CE00E94920261E063
:1027B0008BE00E94460260E08BE00E94460260E0EF
:1027C0008DE00E94460280E58CBD8DB581608DBD97
:1027D0008AE08093130261E00E9492020E94F10459
:1027E0004FEF60E08FEF0E9425050E94C3026B014E
:1027F0007C0152E0852E912CA12CB12C0E94C302A9
:102800006C197D098E099F09683E73408105910509
:10281000A8F328EEC20E23E0D21EE11CF11C8A941C
:1028200089288A288B2829F0812C912C54018394A3
:10283000E5CF0E94F8048DE10E94EC0480E00E9444
:10284000EC041EB50E94F104112399F370E060E0DE
:1028500088E00E94630570E060E08CE00E94630500
:102860006FEF7BE08AE00E94630560E07CE084E03B
:102870000E9463056FEF71E186E00E94630566E7E1
:1028800074E084E10E94710661EB88E30E945605C2
:102890006FE370E388E20E94630569EF77EF80E3FE
:1028A0000E94630561E080EC0E94560542E362EC01
:1028B00080E80E94250562E17CE086EC0E946305C9
:1028C00062E184EC0E9456056CED75E08AEC0E9492
:1028D000630560911D0284EE0E94560560911E0200
:1028E00085EE0E94560560911F0282EE0E945605F9
:1028F0006091200283EE0E9456056091210280EED5
:102900000E9456056091220281EE0E94560560E009
:1029100071E080E10E9471068FE10E943A0540EC6F
:102920006BE180E80E94250544E06FE180E80E94A9
:10293000250582E70E947005863008F08F5F8111BF
:1029400004C08EE991E00E946008109231026AE2B0
:1029500071E087E195E00E94DF0810922C0210924E
:102960002B0281E08093320266E271E087E292E01E
:102970000E94DF08E7E1F5E023E135E063E272E081
:102980004BE155E09191D9018D919D018095892B65
:10299000DB018D93BD014E175F07A1F762E271E085
:1029A00088E492E00E94DF0863EC71E08BE195E03F
:1029B0000E94510828E4E22E22E0F22E10E03AE0D4
:1029C000832E912CA12CB12CF70121917F0130E0B5
:1029D00050E040E019A26E01F1E2CF0ED11CCA0115
:1029E000B901A50194010E941B17605DD6016E9389
:1029F0006D01211531054105510589F7109729F021
:102A0000BD018BE195E00E945108133029F06EE280
:102A10008BE195E00E94C7031F5F1430A9F66AE6B8
:102A200071E08BE195E00E9451088091320281FDB6
:102A300005C00E9488050E94A10AF7CF8CEC91E0A6
:102A40000E94600888E391E09093470280934602D9
:102A50008AED91E090934502809344028BE291E0ED
:102A6000909343028093420289E191E09093410266
:102A70008093400210923F0210923E0283E798E05A
:102A800090933D0280933C0287ED9EE090933A0242
:102A90008093390280E190E190933802809337026D
:102AA0001092360280E58093350281E080933402F3
:102AB000809133028F5F87708093330280933B0253
:102AC0000BE31FE180E0E82E80E0F82E99E1B92EBB
:102AD0000E9488050E94A10A892BA9F04FE252E0CA
:102AE0006AE371E084E892E00E94871660E08091DA
:102AF0004C0290914D020E94F908B0927D028EE244
:102B000092E00E9453068BE195E00E94850318161F
:102B100019060CF0ECC060E088E00E9446021A82C0
:102B200019821C821B821E821D826CE671E0CE011E
:102B300001960E94A1080E94450397FD1CC08AA32C
:102B40001BA2CD80DE80BFEFCB1ADB0AB601CE011F
:102B500001960E947908882371F329813A818D8139
:102B60009E81BE016E5D7F4F820F931F0E946A1986
:102B7000DE82CD82E0CF8091E0059091E105009763
:102B800009F491C069817A816115710509F489C0E0
:102B90004091E2055091E3052D813E814217530794
:102BA00008F47FC00E946A198D819E819093E5058B
:102BB0008093E4051E821D82CE0101960E94490881
:102BC0001A8219821C821B821E821D82C090E0051F
:102BD000D090E105C114D10479F08090E405909083
:102BE000E505B401CE0101960E947908811172C0F9
:102BF000CE0101960E943708CE0101960E94490835
:102C000081E00E948507C8010197F1F7E1E080911A
:102C1000F9058111E0E0E195F0E0EA51FA4F84898D
:102C200080680E9485071A8219821C821B821E827C
:102C30001D826EED71E0CE0101960E94A108809088
:102C4000E0059090E1058114910409F44BC0C09017
:102C5000E405D090E505C114D104B1F08D819E81C9
:102C6000C80ED91EB601CE0101960E9479088823AC
:102C7000C9F129813A818D819E81B401820F931F10
:102C80000E946A19DE82CD824D815E8169817A81DE
:102C900086EE95E00E94F502CE0101960E94490859
:102CA00032CF0E940E1889819A819093E10580931A
:102CB000E0058B819C819093E3058093E2058D81F3
:102CC0009E819093E5058093E4051A8219821C8207
:102CD0001B8270CF9E828D82B60189819A810E946B
:102CE0006A198ACFCE0101960E943708CDCFE11430
:102CF000F10409F4EDCE0E949103882309F4E8CE93
:102D00000E940000E5CE80EE95E00C944908FB019E
:102D1000DC0102C005900D9241505040D8F7089553
:102D2000BB272A3051F4992342F4BDE29095809557
:102D3000709561957F4F8F4F9F4F0C94A016BB27C6
:102D4000FA01A62F6217710581059105330B30FB3F
:102D500066F0AA27660F771F881F991FAA1FA21760
:102D600010F0A21B63953850A9F7A05DAA3308F0B4
:102D7000A95DA19336F7B111B1931082CA010C94E9
:102D8000C116DC01FC01672F71917723E1F73297BF
:102D900004C07C916D9370836291AE17BF07C8F336
:102DA0000895F999FECF92BD81BDF89A992780B513
:102DB00008950E943D17A59F900DB49F900DA49F6C
:102DC000800D911D112408952F923F924F925F9292
:102DD0006F927F928F929F92AF92BF92CF92DF922B
:102DE000EF92FF920F931F93CF93DF93CDB7DEB790
:102DF000CA1BDB0B0FB6F894DEBF0FBECDBF099424
:102E00002A88398848885F846E847D848C849B847A
:102E1000AA84B984C884DF80EE80FD800C811B8188
:102E2000AA81B981CE0FD11D0FB6F894DEBF0FBEB7
:102E3000CDBFED010895A1E21A2EAA1BBB1BFD0117
:102E40000DC0AA1FBB1FEE1FFF1FA217B307E40789
:102E5000F50720F0A21BB30BE40BF50B661F771FE1
:102E6000881F991F1A9469F76095709580959095C1
:102E70009B01AC01BD01CF010895A29FB001B39F9A
:102E8000C001A39F700D811D1124911DB29F700D73
:102E9000811D1124911D0895991B79E004C0991F8B
:102EA000961708F0961B881F7A95C9F780950895A4
:102EB000AA1BBB1B51E107C0AA1FBB1FA617B70760
:102EC00010F0A61BB70B881F991F5A95A9F780957C
:102ED0009095BC01CD010895EE0FFF1F0590F49170
:102EE000E02D09940F931F93CF93DF9382309105C8
:102EF00010F482E090E0E0910006F091010630E0ED
:102F000020E0B0E0A0E0309799F42115310509F4F4
:102F10004AC0281B390B24303105D8F58A819B81A2
:102F20006115710589F1FB0193838283FE0111C054
:102F3000408151810281138148175907E0F04817F9
:102F4000590799F4109761F012960C931297139603
:102F50001C933296CF01DF91CF911F910F9108956D
:102F60000093000610930106F4CF2115310551F0AE
:102F70004217530738F0A901DB019A01BD01DF01B7
:102F8000F801C1CFEF01F9CF9093010680930006BD
:102F9000CDCFFE01E20FF31F8193919322503109AF
:102FA00039832883D7CF2091FE053091FF05232B4D
:102FB00041F420913601309137013093FF05209381
:102FC000FE0520913401309135012115310541F480
:102FD0002DB73EB74091380150913901241B350B74
:102FE000E091FE05F091FF05E217F307A0F42E1B18
:102FF0003F0B2817390778F0AC014E5F5F4F24175D
:10300000350748F04E0F5F1F5093FF054093FE05B4
:10301000819391939FCFF0E0E0E09CCFCF93DF933B
:103020000097E9F0FC01329713821282A09100060A
:10303000B0910106ED0130E020E01097A1F420816D
:103040003181820F931F2091FE053091FF052817D3
:10305000390709F061C0F093FF05E093FE05DF91A9
:10306000CF910895EA01CE17DF07E8F54A815B8129
:103070009E0141155105B1F7E901FB83EA834991AE
:103080005991C40FD51FEC17FD0761F48081918120
:103090000296840F951FE901998388838281938129
:1030A0009B838A83F0E0E0E012968D919C911397C8
:1030B0000097B9F52D913C911197CD010296820FA1
:1030C000931F2091FE053091FF052817390739F627
:1030D000309751F51092010610920006B093FF054B
:1030E000A093FE05BCCFD383C28340815181840F5E
:1030F000951FC817D90761F44E5F5F4F888199818A
:10310000480F591F518340838A819B819383828317
:103110002115310509F0B0CFF0930106E0930006C8
:103120009ECFFD01DC01C0CF13821282D7CFB0E069
:10313000A0E0EDE9F8E10C94E6168C01009751F45B
:10314000CB010E9472178C01C801CDB7DEB7E0E158
:103150000C940217FC01E60FF71F9C012250310965
:10316000E217F30708F49DC0D901CD91DC911197C6
:10317000C617D70798F0C530D10530F3CE010497B4
:103180008617970708F3C61BD70B2297C193D193D5
:103190006D937C93CF010E940E18D6CF5B01AC1AC1
:1031A000BD0A4C018C0E9D1EA0910006B091010637
:1031B000512C412CF12CE12C109731F58091FE051A
:1031C0009091FF058815990509F05CC046165706D1
:1031D00008F058C08091340190913501009741F476
:1031E0008DB79EB74091380150913901841B950BE2
:1031F000E817F90708F055C0F093FF05E093FE05C6
:10320000F90171836083A0CF8D919C9111971296E3
:103210006C90129713967C901397A815B90559F5E1
:103220006C0142E0C40ED11CCA14DB0420F1AC01D5
:103230004A195B09DA011296159780F0628273824F
:1032400051834083D9016D937C93E114F10471F0B3
:10325000D7011396FC93EE93129776CF22968C0F9C
:103260009D1FF90191838083F301EFCFF093010655
:10327000E093000669CF4816590608F42C017D0139
:10328000D3019ACFCB010E9472177C01009749F0BD
:10329000AE01B8010E946119C8010E940E18870191
:1032A00053CF10E000E050CFFB01DC0104C08D9152
:1032B0000190801921F441505040C8F7881B990BA8
:1032C0000895FB01DC0102C001900D924150504075
:1032D000D8F70895FB01DC0101900D920020E1F781
:1032E0000895FB01DC014150504030F08D91019078
:1032F000801919F40020B9F7881B990B089511E083
:10330000CEEDD1E004C0FE010E946C172196CF3DA6
:08331000D107C9F7F894FFCFC3
:1033180041726475696E6F2D454E4332386A363096
:103328002D30300000000000000000000000000008
:103338000A017F000001A9FE411DA9FE411E746912
:10334800692D303100000206800000000000DC0416
:10335800F502EC06F402FFFFFFFFFFFF000000008C
:10336800C703F50222031404850331037703000021
:1033780000003108F502EC06F4020D0A003C3C3C62
:10338800207265706C792000323030005363616EB2
:1033980020796F7572205246696420544147005362
:1033A80063616E20796F75722052466964004661C8
:1033B800696C656420746F2061636365737320456D
:1033C800746865726E657420636F6E74726F6C6C6E
:1033D8006572005365727665723A200047617465BC
:1033E80077617920666F756E64006261720052467B
:0633F80049443A200000E8
:00000001FF
