:020000040000FA
:100000000C94D0000C94F8000C94F8000C94F800B8
:100010000C94F8000C94F8000C94F8000C94F80080
:100020000C94F8000C94F8000C94F8000C940B114C
:100030000C94F8000C94F8000C94F8000C94F80060
:100040000C9469100C94F8000C94D9100C94B31013
:100050000C94F8000C94F8000C94F8000C94F80040
:100060000C94F8000C94F8006382536300010800BC
:100070000604000100504F53542024462048545495
:10008000502F312E300D0A486F73743A2024460DDC
:100090000A244624534163636570743A202A2F2A48
:1000A0000D0A436F6E74656E742D4C656E677468CF
:1000B0003A2024440D0A436F6E74656E742D547992
:1000C00070653A206170706C69636174696F6E2F3E
:1000D000782D7777772D666F726D2D75726C656EE2
:1000E000636F6465640D0A0D0A245300474554206C
:1000F0002446245320485454502F312E300D0A48A2
:100100006F73743A2024460D0A24460D0A0D0A0026
:100110004500008200004000204163636570743A2E
:1001200020746578742F68746D6C003136392E3206
:1001300035342E38382E3431002F656E7465725F79
:10014000646F6F723F726669643D000000000024B6
:100150000027002A0000000000250028002B0004D2
:10016000040404040404040202020202020303035E
:100170000303030102040810204080010204081058
:100180002001020408102000000008000201000005
:1001900003040700000000000000000016121716FC
:1001A00011241FBECFEFD8E0DEBFCDBF11E0A0E02D
:1001B000B1E0E0EDF7E302C005900D92A43EB10777
:1001C000D9F725E0A4EEB1E001C01D92AE3FB20721
:1001D000E1F710E0CFECD0E004C02197FE010E94CF
:1001E0002717CE3CD107C9F70E94B2120C94DB1B33
:1001F0000C9400008F929F92AF92BF92FF920F9348
:100200001F93CF93DF93F090D9052BE02F1508F4BF
:100210004CC02091DB0508E512E0021B110927FD07
:100220001395000F111F000F111F2091DA05C8E868
:10023000D0E0C21BD10927FDD395CC0FDD1FCC0F19
:10024000DD1F4E010D2E000CAA08BB089801012EDF
:10025000000C440B550B281939094A095B09DC01CC
:100260000E94971624EB30E040E050E00E946D16AB
:10027000820E931EA41EB51E8C169D062CF0E8015E
:10028000801691060CF4E4012297CC0FDD1F2FB7E6
:10029000F8948F2D90E0FC01EE0FFF1FE80FF91F7F
:1002A000EC54FA4FD283C1832FBFDF91CF911F91BE
:1002B0000F91FF90BF90AF909F908F900895CF9334
:1002C000DF93209113052223C1F0FC01208122231A
:1002D000A1F0C3E1D5E0AFE0B5E09C012C5F3F4F5A
:1002E000899141919D918427892339F4E217F3077D
:1002F000B9F781E0DF91CF91089580E0FBCFCF93F4
:10030000DF93EC01FB018A30910548F06AE070E070
:100310000E941317CB01BF010E947F01FC01CE0197
:100320006AE070E00E941317805D80831182CF0124
:100330000196DF91CF91089590E0FC01E957FE4FBF
:100340002491FC01ED58FE4F3491FC01E15AFE4F1F
:10035000E491EE23C9F0222339F0233001F1A8F40F
:10036000213019F1223029F1F0E0EE0FFF1FEB5A96
:10037000FE4FA591B4918FB7F894EC91611126C00E
:1003800030953E233C938FBF08952730A9F0283045
:10039000C9F0243049F7809180008F7D03C080919F
:1003A00080008F7780938000DFCF84B58F7784BD06
:1003B000DBCF84B58F7DFBCF8091B0008F778093AA
:1003C000B000D2CF8091B0008F7DF9CF3E2BDACF35
:1003D000CF93DF9390E0FC01ED58FE4F2491815ABA
:1003E0009E4FFC0184918823D1F090E0880F991FE3
:1003F000FC01E55BFE4FA591B491FC01EB5AFE4F69
:10040000C591D49161110EC09FB7F8948C91E22FE1
:10041000E0958E238C932881E223E8839FBFDF91B0
:10042000CF9108958FB7F894EC91E22BEC938FBFA6
:10043000F6CF3FB7F89480910B0590910C05A091F1
:100440000D05B0910E0526B5A89B05C02F3F19F0EC
:100450000196A11DB11D3FBFBA2FA92F982F882744
:10046000BC01CD01620F711D811D911D42E0660F1F
:10047000771F881F991F4A95D1F708958F929F92F1
:10048000AF92BF92CF92DF92EF92FF924B015C014D
:100490000E9419026B017C010E9419026C197D09EE
:1004A0008E099F09683E734081059105A8F321E0FC
:1004B000821A9108A108B10888EEC80E83E0D81E00
:1004C000E11CF11C81149104A104B10429F7FF90EF
:1004D000EF90DF90CF90BF90AF909F908F90089556
:1004E0002FB7F89460910705709108058091090570
:1004F00090910A052FBF08950895AF92BF92CF92B1
:10050000DF92EF92FF920F931F93CF93DF936C01D3
:100510007B018B01040F151FEB015E01AE18BF08B4
:10052000C017D10759F06991D601ED91FC91019066
:10053000F081E02DC6010995892B79F7C501DF917E
:10054000CF911F910F91FF90EF90DF90CF90BF90D0
:10055000AF900895FC01538D448D252F30E0842FFA
:1005600090E0821B930B541710F0CF9608950197DB
:100570000895FC01918D828D981761F0A28DAE0FC8
:10058000BF2FB11D5D968C91928D9F5F9F73928F4F
:1005900090E008958FEF9FEF08950F931F930E94AF
:1005A000700260931F05709320058093210590933E
:1005B000220587E195E00E94B90297FF1DC00E94C5
:1005C000700200911F0510912005209121053091A6
:1005D0002205601B710B820B930B00911B05109180
:1005E0001C0520911D0530911E05601771078207BB
:1005F0009307F8F28FEF9FEF1F910F910895FC0181
:10060000918D828D981731F0828DE80FF11D858DC7
:1006100090E008958FEF9FEF0895FC01918D228D5A
:10062000892F90E0805C9F4F821B91098F739927DF
:10063000089587E195E00E940D0321E0892B09F4DC
:1006400020E0822F089580E090E0892B29F00E941D
:10065000190381110C9400000895FC01A48DA80FCA
:10066000B92FB11DA35ABF4F2C91848D90E00196F4
:100670008F739927848FA689B7892C93A089B18914
:100680008C91837080648C93938D848D981306C0B5
:100690000288F389E02D80818F7D80830895EF9219
:1006A000FF920F931F93CF93DF93EC0181E0888F2C
:1006B0009B8D8C8D98131AC0E889F989808185FFFC
:1006C00015C09FB7F894EE89FF896083E889F9899E
:1006D00080818370806480839FBF81E090E0DF91A0
:1006E000CF911F910F91FF90EF900895F62E0B8DF3
:1006F00010E00F5F1F4F0F731127E02E8C8D8E11AE
:100700000CC00FB607FCFACFE889F989808185FF14
:10071000F5CFCE010E942D03F1CFEB8DEC0FFD2F15
:10072000F11DE35AFF4FF0829FB7F8940B8FEA89CF
:10073000FB8980818062CFCFCF93DF93EC01888DDE
:100740008823B9F0AA89BB89E889F9898C9185FD4C
:1007500003C0808186FD0DC00FB607FCF7CF8C91DA
:1007600085FFF2CF808185FFEDCFCE010E942D0362
:10077000E9CFDF91CF91089580911C0290911D02E5
:10078000982789279827449720913A0230E044E03F
:10079000359527954A95E1F7220F331F220F331F16
:1007A000821B930B97FF02C090E080E008950F93A7
:1007B0001F93CF93DF9370E0645F7D4F8A01075FE3
:1007C0001F4F213029F0223031F48A0102501109E3
:1007D00030E020E003C000E010E09801EB01FA01F6
:1007E000E230F10558F0A991B991BA27AB27BA27A1
:1007F0000A0F1B1F211D311D3297F2CFFA01EE7F28
:100800006E0F7F1F4E175F0769F0FB01408150E0BC
:1008100070E060E0762F652F542F4427040F151FDA
:10082000261F371FA9016627772741155105610546
:10083000710519F022273327F1CF00951095E82F85
:10084000F0E0E45FFD4F10830183DF91CF911F91B2
:100850000F910895ECE0F2E0108E118E80E4848B0D
:10086000158A868B20E044E150E06EE088E10C942C
:10087000D703DC011696ED91FC9117979F012F5F2E
:100880003F4F17963C932E931697608381E090E03C
:10089000089590E080E008958EBD0DB407FEFDCF71
:1008A000089561E08091CD040E949C0178940895A0
:1008B000F89460E08091CD040C949C010F931F93F9
:1008C000CF93DF93EC018B010E9458042097B9F07D
:1008D0008AE30E944C041EBCF801CE01019739F056
:1008E0000DB407FEFDCF2EB51EBC2193F7CF219787
:1008F000C00FD11F0DB407FEFDCF8EB58883DF91E9
:10090000CF911F910F910C9451041F93CF93DF93BC
:10091000182FC62FD42F0E9458048C2F8F71812B33
:100920000E944C048D2F0E944C04DF91CF911F91A7
:100930000C945104CF93C82FC0768091E6018C1798
:1009400099F043E06FE180EA0E948504C093E601DC
:100950004C2F50E085E0559547958A95E1F76FE17A
:1009600080E8CF910C948504CF910895CF93DF93C5
:10097000C82FD62F0E949A044D2F6C2F80E4DF9150
:10098000CF910C948504CF93DF93C82FD72F0E946B
:10099000B6046D2F81E08C0FDF91CF910C94B604DB
:1009A000CF93C82F0E949A040E9458048C2F8F71F5
:1009B0000E944C0480E00E944C04C7FF03C080E00A
:1009C0000E944C04CEB50E9451048C2FCF91089503
:1009D0000F931F93CF93DF9300D000D000D0CDB7FB
:1009E000DEB78091E901882379F06091E701709189
:1009F000E8016115710509F053C06FEF7BE08CE0F1
:100A00000E94C3041092E90189E30E94D00410E01F
:100A100000E08823C9F16091E7017091E80180E06E
:100A20000E94C304BE016F5F7F4F86E090E00E948A
:100A30005E0489819A819093E8018093E7018D811A
:100A40009E818C010078112787FF12C08B819C81C9
:100A500004970091CE041091CF0401501109801722
:100A6000910708F48C016CE072E0C8010E945E04FA
:100A7000F801E45FFD4F108281E08093E90140E4DA
:100A80006EE180E80E948504C80126960FB6F894AE
:100A9000DEBF0FBECDBFDF91CF911F910F910895A3
:100AA00061507109ACCFCF93DF93EC0140E86FE167
:100AB00080E80E94850440E86FE180EA0E94850496
:100AC0004AE06CE180EA0E94850460E07CE082E01C
:100AD0000E94C304BE01745F86E00E94C30440E02C
:100AE00060E08AE70E9485040E9458042097B1F0D4
:100AF0008AE70E944C0480910C028EBDEDE0F2E08A
:100B0000C45FDD4FEC17FD0731F081910DB407FE96
:100B1000FDCF8EBDF7CF0DB407FEFDCF0E9451046F
:100B200048E06FE180E80E948504D0E0C0E08CE1FD
:100B30000E94D0048A7029F42196C83E83E0D80729
:100B4000B1F78CE10E94D00481FD03C0C83ED340C0
:100B500039F448E06FE180EADF91CF910C9485048D
:100B6000DF91CF910895CF93DF93EB01682F84ED50
:100B70000E94B604BE0186ED0E94C3048AEE0E9464
:100B8000D00480FDFBCFDF91CF910895CF92DF920B
:100B9000EF92FF920F931F938634910568F1209195
:100BA0002F02233449F5C0903A02D0903B02E090E6
:100BB0003C02F0903D020091EF011091F001209174
:100BC000F1013091F201C016D106E206F306A1F45C
:100BD000E6E2F3E0845F9D4F9F012E5F3F4F41812E
:100BE0005081553319F45281651771F0F901E40F02
:100BF000F11DE817F90780F380E01F910F91FF9036
:100C0000EF90DF90CF90089581E0F7CFE091E4017D
:100C1000F091E5019F012F5F3F4F3093E501209355
:100C2000E40180830895FF920F931F93CF93DF9386
:100C3000162FF42E052F0E940606812F0E9406060D
:100C4000CF2DD02F115020F089910E940606FACFA7
:100C5000DF91CF911F910F91FF900895CF93DF9374
:100C6000EC0160E08E810E949C0161E08E810E9417
:100C70009C0160E08E810E949C018BE891E00197CD
:100C8000F1F7DF91CF910895CF92DF92EF92FF922B
:100C90000F931F93CF93DF936C017C0187E0E80EE5
:100CA000F11CD0E0C0E0062F10E0B8010C2E02C00D
:100CB000759567950A94E2F76170F70181917F015C
:100CC0000E949C012196C430D10579F7C601DF91BD
:100CD000CF911F910F91FF90EF90DF90CF900C94E8
:100CE0002E06CF92DF92EF92FF920F931F93CF9336
:100CF000DF93EC01F62E642F8C810E949C018D8184
:100D00008F3F19F060E00E949C010F2D10E08F854D
:100D100084FF25C06E0187E0C80ED11CF12CE12CA8
:100D2000B8010E2C02C0759567950A94E2F76170C0
:100D3000F60181916F010E949C01FFEFEF1AFF0AFB
:100D400088E0E816F10461F7CE01DF91CF911F91A1
:100D50000F91FF90EF90DF90CF900C942E06B8018A
:100D600084E0759567958A95E1F7CE010E94440667
:100D70006F2DCE01DF91CF911F910F91FF90EF90DA
:100D8000DF90CF900C94440640E0682F82EE95E00F
:100D90000C947106CF93DF93823029F49091F10582
:100DA00098609093F1058093F5051092F60580E424
:100DB0008093F70580E18093F80580E58093F9053D
:100DC00061E08091E6050E94E8018091E7058F3F90
:100DD00019F061E00E94E80161E08091E8050E945D
:100DE000E801C2EED5E09E01225E35408091F1051A
:100DF00084FD0BC084E090E021962817390744F465
:100E000061E08E810E94E801EECF88E090E0F4CFAF
:100E10008BE39DE00197F1F760E08091E6050E9489
:100E20009C0160E08091E8050E949C018091E705AB
:100E30008F3F19F060E00E949C018091F10584FDD4
:100E400039C063E082EE95E00E944406CBE4D6E42C
:100E5000CE010197F1F763E082EE95E00E9444062F
:100E60002197F1F763E082EE95E00E94440683E566
:100E700092E00197F1F762E082EE95E00E9444066D
:100E80008091F10580620E94C40684E08093F2059F
:100E90008CE00E94C40681E00E94C4068BE39FE1BF
:100EA0000197F1F782E08093F30586E0DF91CF911F
:100EB0000C94C40680620E94C4068BE496E40197F9
:100EC000F1F78091F10580620E94C40683E592E00B
:100ED0000197F1F78091F10580620E94C406D0CF9E
:100EE00041E00E94710681E090E00895FC0180815C
:100EF0009181009711F00C94C9170895FB0101909E
:100F00000020E9F73197AF01461B570BDC01ED914B
:100F1000FC910280F381E02D0994CF93DF93BC0113
:100F200087E195E00E947E07EC016AE671E087E1C7
:100F300095E00E947E078C0F9D1FDF91CF91089551
:100F40000F931F93CF93DF93EC01888199810097D2
:100F500059F02A813B812617370730F081E0DF9175
:100F6000CF911F910F9108958B016F5F7F4F0E946A
:100F70005218009759F0998388831B830A832C8128
:100F80003D81232B59F7FC011082E8CF80E0E7CFA9
:100F9000EF92FF920F931F93CF93DF93EC017B01AE
:100FA000FB0101900020E9F731978F01061B170B19
:100FB000B8010E94A00728813981811113C0211531
:100FC000310519F0C9010E94C917198218821D82C2
:100FD0001C821B821A82DF91CF911F910F91FF908B
:100FE000EF9008951D830C83B701C901DF91CF9164
:100FF0001F910F91FF90EF900C9425190F931F9361
:10100000CF93DF9300D000D000D0CDB7DEB7645FC0
:101010007D4F1A8219821C821B821E821D826115DD
:10102000710521F0CE0101960E94C8074D815E81B5
:1010300069817A8187E195E00E947D026AE671E02C
:1010400087E195E00E947E078D819E819C01215061
:101050003109E091F5052817390708F068C0898142
:101060009A81009709F463C0820F931FDC018C9171
:101070008B3609F05CC0E23008F055C0E150F0E07A
:10108000EE51FA4F848980680E94C4068DE691E093
:101090000E948D0768E871E082EE95E00E947E076D
:1010A00010E000E04D815E819A0127503109200F48
:1010B000311F24173507C8F589819A810097A9F156
:1010C000820F931FFC01608141E082EE95E00E9457
:1010D00071060F5F1F4F0530110521F761E088E0B1
:1010E0000E949C0184EB90E00E94FA0068EB7BE098
:1010F00080E090E00E943E0290E080E00E94FA00D2
:1011000060E088E00E949C01CE0101960E94760773
:1011100026960FB6F894DEBF0FBECDBFDF91CF91FC
:101120001F910F910895E1E0AACF60E0CDCFE230AA
:10113000E8F4E150F0E0EE51FA4F848980680E94B3
:10114000C4066CE971E082EE95E00E947E078FE8AC
:1011500091E00E948D0768EB7BE080E090E00E94C8
:101160003E0290E080E00E94FA00CECFE1E0E2CFC4
:10117000DC0196E0FB0101900D929A95E1F708954C
:10118000BC018CE092E00E94B80867ED74E082E157
:1011900092E00C94B808DC0194E0FB0101900D9200
:1011A0009A95E1F7089582E192E00E94C00866E214
:1011B00072E08AE292E00E94CB0863E175E086E289
:1011C00092E00E94CB080C942A04CF93DF93EB01AA
:1011D0000E94C008BE018AE292E00E94CB0863E14F
:1011E00075E086E292E0DF91CF910C94CB08CF932B
:1011F000DF93EB0144E050E0BC0188E292E00E9402
:101200000F19892B49F462E272E0CE010E94B808FE
:1012100081E0DF91CF91089580E0FBCF0F931F9382
:10122000CF938C0186E491E00E94C008ECE0F2E0EC
:1012300088E08487C6E0C58748E050E06CE670E04F
:101240008AE192E00E941B16ECE2F2E0DF011D92BF
:10125000CA95E9F767ED74E082E292E00E94B8086F
:10126000B80182E392E00E94CB0863E175E088E276
:1012700092E00E94CB088AE290E0CF911F910F91FB
:101280000C945305EF92FF920F931F93CF93DF932C
:101290008C01ECE0F2E086E191E0DF019C011D921F
:1012A00021503040E1F78091FF01C6E4D1E0833066
:1012B00011F4CAEED1E0CE010E945F01BE01882385
:1012C00009F4ACC080E092E00E94E5088881807F4C
:1012D000803E91F088819981AA81BB818F3F9F4F89
:1012E000AF4FBF4F49F044E050E0BE018DED94E0B8
:1012F0000E940F19892B31F466E471E08CE092E0D2
:101300000E94B80888E0809318021092190249E000
:1013100050E060E171E08AE192E00E941B161092B9
:101320001C0281E1809323021092300283E48093B7
:10133000310210922E0284E480932F021092320226
:10134000109234021092350266E471E08CE092E073
:101350000E94B80881E0809336028093370286E0CD
:10136000809338028091EF019091F001A091F101FA
:10137000B091F20180933A0290933B02A0933C0219
:10138000B0933D02C091FF01C33031F463E175E0D9
:1013900082E492E00E94CB0867ED74E082E592E07F
:1013A0000E94B80882E293E09093E5018093E40103
:1013B000E8E6F0E084910E940606E9E6F0E0849118
:1013C0000E940606EAE6F0E084910E940606EBE63B
:1013D000F0E084910E94060685E30E94060681E003
:1013E0000E94060683E0C11101C081E00E9406064A
:1013F0008DE30E94060687E00E94060681E00E94B7
:10140000060687EDE82E84E0F82EC7E0C15049F0CB
:10141000D7018D917D010E940606F8CF86E092E00B
:1014200053CF80910001882371F060E071E0FB01EF
:1014300001900020E9F7BF016150714040E051E0A8
:101440008CE00E9413060115110559F0A80164E013
:1014500082E30E9413064AEE51E064E086E30E94B4
:10146000130687E30E94060683E00E94060681E0D9
:101470000E94060683E00E94060686E00E94060699
:101480008FEF0E940606C091E401D091E501C6539A
:10149000D240CE014C9690931C0280931D020E9474
:1014A0002A04CE0108969093320280933302AE0153
:1014B000405F5F4F21E06AE188E20E94D703CE01DE
:1014C0008A96DF91CF911F910F91FF90EF900C942E
:1014D00053058F929F92AF92BF92CF92DF92EF927D
:1014E000FF920F931F93CF93DF9300D000D0CDB71F
:1014F000DEB77C018091EB04882369F08091FF01C5
:10150000823009F4F1C008F0E9C0882309F474C1FD
:10151000813009F490C1E114F10409F02BC28091EB
:10152000EC04857029F18091E5049091E604892B03
:10153000F9F461E184ED0E94B60461E082ED0E945D
:10154000B6048AEE0E94D00480FDFBCF60E082EDFD
:101550000E94B60489ED0E94D00482FF09C081EE8A
:1015600094E00E940E098091EC0488608093EC0462
:101570008091E5049091E60401969093E6048093AF
:10158000E5048091F204813009F079C08091EC0487
:1015900081FF75C082E08093F204809121018F5F0A
:1015A00080932101F090F304E090F4041091F10491
:1015B000A0E21A9F900111248F71182F122B8DEE2B
:1015C00094E00E945F016DEE74E0882309F4BFC1CE
:1015D00080E092E00E94E50808E000931802109273
:1015E000190249E050E060E171E08AE192E00E9476
:1015F0001B168CE280931D0286E0809323020E94DA
:101600002A04E0923002F09231028BE080932E02A5
:1016100010932F02E2E3F2E0DF011D920A95E9F751
:1016200080912001809334028D5F8093200180E6B9
:1016300080933A0282E080933B0293E090933C02D5
:1016400010923D0210923E0210923F021092400210
:10165000109241028093420294E09093430280935F
:10166000440286E28093450222E040E250E06AE1D3
:1016700082E30E94D7038AE390E00E94530587EE3D
:1016800094E00E945F01882379F08091CB0481115E
:101690000BC08091CA04811107C087EE94E00E94BC
:1016A0000E0981E08093CA048DEE94E00E945F01F0
:1016B000811150C110E000E0C8010F900F900F9011
:1016C0000F90DF91CF911F910F91FF90EF90DF90DE
:1016D000CF90BF90AF909F908F900895833009F482
:1016E00056C0843009F017CF65E0C7010E94C605D7
:1016F000882309F4C9C08091EE01811108C088E3F4
:101700000E94D004682F6E7F88E30E94B60466E4CE
:1017100072E083E195E00E94CB08E6E2F3E0C701C6
:10172000845F9D4F6C018F010E5F1F4FB1808081E0
:10173000863009F4FBC008F0BEC0813009F4ECC06B
:10174000833009F4EFC0F801EB0DF11DEC15FD0538
:1017500050F30E9470026093F7017093F801809338
:10176000F9019093FA018091E104882361F01092CD
:10177000E6041092E50481E08093EC0461EE74E0ED
:10178000CB010E94CB0883E08093FF01C4CE809000
:10179000FB019090FC01A090FD01B090FE012FEFA5
:1017A00082169206A206B20609F4B5CE0E94700215
:1017B0000091F7011091F8012091F9013091FA019F
:1017C000601B710B820B930B681579058A059B05CD
:1017D00008F4A1CE83E195E00E94420984E0809361
:1017E000FF010E9470026093F3017093F4018093F3
:1017F000F5019093F6018FCE0E9470026093EF0185
:101800007093F0018093F1019093F201E3E1F5E030
:1018100084E0DF011D928A95E9F790E080E00E9464
:10182000420988E30E94D004682F616088E30E9427
:10183000B60481E0D4CF62E0C7010E94C6058823C8
:1018400019F166E472E0CE0101960E94CB08E6E24F
:10185000F3E0C701845F9D4FBF016E5F7F4F218121
:101860003081363351F48AEE91E00E94CB08CE01EC
:1018700001960E94420982E0B2CFFB01E20FF11D06
:10188000E817F90748F3F3CF0E9470020091F301C3
:101890001091F4012091F5013091F601601B710B5C
:1018A000820B930B613177428105910508F433CEA9
:1018B0001092FF0130CE8A3331F08F3F09F449CFC7
:1018C000833309F040CF1092FB011092FC0110927B
:1018D000FD011092FE01F801C801049620E030E0FD
:1018E000A9016191542F432F322F2227260F311D3A
:1018F000411D511D8E179F07A1F72F3F9FEF3907FD
:1019000049075907B9F42093FB013093FC01409338
:10191000FD015093FE0117CFB8018FE095E00E94C2
:10192000CB0811CFB80181EE94E0F9CFB80187EE72
:1019300094E0F5CFA8EEB3E00E948C166093FB0113
:101940007093FC018093FD019093FE01FCCE86E034
:1019500092E040CE8091C9048111ACCE8091C80440
:101960008111A8CE8DEE94E00E940E0981E0809353
:10197000C804A0CEB9E2EB16F10408F49BCE809126
:101980001802883009F096CE80911902863009F04D
:101990009FC144E050E063E175E082E392E00E9481
:1019A0000F19892B09F086CE80912102813029F50B
:1019B00082E192E00E94C0081092200282E08093AF
:1019C000210262E272E08CE292E00E94B80867EDC8
:1019D00074E082E292E00E94B80868E272E082E37A
:1019E00092E00E94CB0863E175E088E292E00E94F9
:1019F000CB088AE290E00E9453058091EC0483FFBB
:101A00000DC010912102123049F466E072E081EEBF
:101A100094E00E94F70881111093EC048091CB04AC
:101A2000811111C08091CA04882369F060E072E0DE
:101A300087EE94E00E94F708882329F081E08093E4
:101A4000CB041092CA048091C904811133CE8091D5
:101A5000C804882309F42ECE60E072E08DEE94E095
:101A60000E94F708882309F425CE81E08093C904F9
:101A70001092C8041FCE26E3E216F10408F41ACE31
:101A8000863009F017CE809130028B3009F0BAC051
:101A900044E050E06DEE74E086E292E00E940F199F
:101AA000892B09F007CED0903B02D2FE15C0E09101
:101AB000F704F091F804309759F08091310230E04A
:101AC00020E050E040E063E08295869587700995BC
:101AD00085E08093F204EECD0E94BC038C018091DE
:101AE000F204823009F045C09D2D90718D2D8271D8
:101AF000823189F560E090E080E00E94F21188E197
:101B000080933B02E091F504F091F60410E000E0D0
:101B1000309739F080912F028295869587700995CC
:101B20008C0183E08093F204C801889690931C0294
:101B300080931D020E942A0410923E0210923F02DE
:101B4000A801445E5F4F22E06AE182E30E94D7036E
:101B5000C801C69603C181E08093F204911106C0CA
:101B6000C801019664E00E94F211A4CD90E080E0EB
:101B7000F9CF8330A1F501151105A1F1E091F7042A
:101B8000F091F804309771F180913A0290E024E0EE
:101B9000959587952A95E1F7880F991F880F991FCA
:101BA0008296A701485051098417950708F4AC01A3
:101BB000C801840F951F9701241B350BE816F90601
:101BC00008F098018091310260E0829586958770D7
:101BD000099569E0C8010E94F21186E07ACF85304C
:101BE00009F468CDD0FE07C0833009F463CD69E005
:101BF000C8010196F0CF0115110509F45BCD60E035
:101C0000C801B1CF811156CD80913102803509F0E4
:101C100051CDD0903B02D1FE39C010921C028CE213
:101C200080931D020E94D30882E180933B0260E012
:101C300081E090E00E94C7111092320210923302AC
:101C40008091200180933402109235028D5F809341
:101C5000200182E08093420284E08093430285E089
:101C6000809344021092450290E690933A0280934A
:101C70003C0288E780933D0222E040E250E06AE1C6
:101C800082E30E94D7038AE390E068C0D4FE12CDBD
:101C90000E94BC038C01892B99F000913A0210E05C
:101CA00084E0159507958A95E1F7000F111F000F45
:101CB000111F0E5D1F4FE016F10608F0FDCCFACCA7
:101CC000D0FEF8CC60E090E080E00E94F211F4CC0D
:101CD00099E2E916F10409F4EDCC8111EBCC809185
:101CE0001A02853409F0E6CC44E050E063E175E087
:101CF0008AE292E00E940F19892BA9F044E050E09B
:101D00006DED74E08AE292E00E940F19892B59F080
:101D100044E050E066E471E08AE292E00E940F192C
:101D2000892B09F0C7CC80912302813009F0A3CE22
:101D300080912E02883009F0BDCC0E94D308109209
:101D40002E0280913002883F28F0909131029F5FEF
:101D500090933102885F80933002C7010E9453053F
:101D6000A9CC0F931F93CF93DF9389019091F9042E
:101D7000981781F0E091FA04F091FB0450E040E004
:101D800070E060E084E0099580E0DF91CF911F91E1
:101D90000F9108956111F8CF2D303105A8F3C0914E
:101DA000FA04D091FB04209779F3BA016B5E7D4F62
:101DB00043E050E08AEA91E00E942C1960913A02D7
:101DC00070E024E0759567952A95E1F7660F771F17
:101DD000660F771F6E5D7F4F21E0892B09F420E0AD
:101DE000A801822FFE01CFCFAF92BF92CF92DF9298
:101DF000EF92FF920F931F93CF93DF93CDB7DEB790
:101E0000ED84FE84CF84D8888E010F5E1F4FC601FB
:101E10000196F6012491222309F4D1C0243279F0ED
:101E2000D7011696ED91FC911797AF014F5F5F4F69
:101E300017965C934E93169720836C01E8CFB2E01F
:101E4000CB0ED11CFC018491863409F481C0A0F42E
:101E5000843409F44CC0853409F494C0D701169633
:101E6000ED91FC9117979F012F5F3F4F17963C9381
:101E70002E9316978083CBCFD70116964D915C9108
:101E80008C3409F44DC0833509F457C0883431F7D8
:101E9000B8016E5F7F4FF8019081292F092E000C49
:101EA000330B84E0359527958A95E1F72F709F7065
:101EB0009A300CF0995F905D2A300CF0295FFA019E
:101EC0003196D7011796FC93EE931697205DFA0191
:101ED00020831696ED91FC9117979F012F5F3F4F3E
:101EE00017963C932E93169790838B0190CF5801B1
:101EF000B2E0AB0EB11CF70166817781D8018D91FC
:101F00009C910E947F01F70186819781DC010D90F1
:101F10000020E9F7CD01019797838683850177CF6C
:101F20005801F4E0AF0EB11CD8016D917D918D91F7
:101F30009C912AE00E942416E6CF5801B2E0AB0E35
:101F4000B11CF80160817181CA010E942519DBCFA3
:101F5000F8010190F081E02D0E5F1F4F84913196C2
:101F6000882309F454CFD70116964D915C911797A9
:101F70009A012F5F3F4F17963C932E931697DA01E5
:101F80008C93ECCFF801808191810E5F1F4F5C0133
:101F9000BFEFAB1ABB0A0E946516882309F437CF3E
:101FA000D7011696ED91FC9117979F012F5F3F4F38
:101FB00017963C932E9316978083C501E8CFDF9147
:101FC000CF911F910F91FF90EF90DF90CF90BF9036
:101FD000AF9008950F931F93CF93DF93CDB7DEB7E4
:101FE00028970FB6F894DEBF0FBECDBF1C821B82B0
:101FF0002EE331E03A83298322E432E03E832D83CD
:1020000038872F839091F90498132EC0A091FC0477
:10201000B091FD0410910005009101056091040547
:10202000709105058091FE049091FF04AE014F5F11
:102030005F4F109751F59F938F930F931F9380914C
:1020400003058F93809102058F937F936F938CEE9E
:1020500090E09F938F935F934F930E94F40E0FB67F
:10206000F894DEBF0FBECDBF8F8198852D813E8154
:10207000821B930B28960FB6F894DEBF0FBECDBF20
:10208000DF91CF911F910F910895FD0101900020E4
:10209000E9F73197EA1BFB0B2AE631E0009721F4C0
:1020A0002CE631E084E790E0BF93AF93FF93EF938A
:1020B0003F932F939F938F930F931F937F936F93D0
:1020C00085E790E09F938F935F934F930E94F40E68
:1020D000C6CF1F920F920FB60F9211242F933F93EA
:1020E0008F939F93AF93BF938091070590910805BD
:1020F000A0910905B0910A053091060523E0230F50
:102100002D3758F50196A11DB11D2093060580932A
:10211000070590930805A0930905B0930A058091DF
:102120000B0590910C05A0910D05B0910E0501963F
:10213000A11DB11D80930B0590930C05A0930D0577
:10214000B0930E05BF91AF919F918F913F912F91C9
:102150000F900FBE0F901F90189526E8230F029640
:10216000A11DB11DD2CF1F920F920FB60F92112455
:102170002F933F934F935F936F937F938F939F938F
:10218000AF93BF93EF93FF9387E195E00E942D03F8
:10219000FF91EF91BF91AF919F918F917F916F913F
:1021A0005F914F913F912F910F900FBE0F901F9015
:1021B00018951F920F920FB60F9211242F938F93A1
:1021C0009F93EF93FF93E0912705F091280580817D
:1021D000E0912D05F0912E0582FD1BC0908180912C
:1021E00030058F5F8F7320913105821741F0E091A8
:1021F0003005F0E0E95EFA4F958F80933005FF914E
:10220000EF919F918F912F910F900FBE0F901F9084
:1022100018958081F4CF1F920F920FB60F92112460
:102220002F933F934F935F936F937F938F939F93DE
:10223000AF93BF93CF93DF93EF93FF938091CC0441
:10224000C091D805D0E087FF24C01092850010927D
:1022500084008091CC048F5F8093CC048091CC0467
:10226000082E000C990B8C179D0724F48091CC0448
:102270008C30C4F180918400909185000496803464
:102280009C4908F47AC0809184009091850004965E
:1022900076C08091CC04082E000C990B8C179D07FA
:1022A000C4F6E091CC048E2FEE0F990BFC01EE0FDB
:1022B000FF1FE80FF91FEC54FA4F808186FFC9CF4A
:1022C000E091CC048E2FEE0F990BFC01EE0FFF1F57
:1022D000E80FF91FEC54FA4F808160E08F730E9481
:1022E0009C01B7CF2091840030918500E091CC040F
:1022F0008E2FEE0F990BFC01EE0FFF1FE80FF91F59
:10230000EC54FA4F81819281820F931F9093890040
:1023100080938800E091CC048E2FEE0F990BFC0186
:10232000EE0FFF1FE80FF91FEC54FA4F808186FF74
:1023300011C0E091CC048E2FEE0F990BFC01EE0F33
:10234000FF1FE80FF91FEC54FA4F808161E08F7393
:102350000E949C01FF91EF91DF91CF91BF91AF91CE
:102360009F918F917F916F915F914F913F912F91AD
:102370000F900FBE0F901F90189580E49CE99093EA
:102380008900809388008FEF8093CC04E3CF209165
:10239000300230912E023093300220932E02209191
:1023A000310230912F023093310220932F02ECE062
:1023B000F2E021A5820F911D25A585A7662381F056
:1023C00021A7892F9927319722E0E830F20789F772
:1023D00010923E0210923F0280E580933A020895E7
:1023E00011A6EFCF262F206120933B02643021F00D
:1023F000009711F481E090E061E00E94C711109213
:102400001C0288E280931D020E94D30884E080931E
:102410003C0210923D0222E04CE150E06AE182E38E
:102420000E94D70386E390E00C945305CF9310925B
:102430001A051092190588EE93E0A0E0B0E08093B1
:102440001B0590931C05A0931D05B0931E0580E508
:1024500091E0909318058093170585EC90E0909398
:1024600024058093230584EC90E0909326058093C7
:10247000250580EC90E0909328058093270581EC5A
:1024800090E090932A058093290582EC90E0909348
:102490002C0580932B0586EC90E090932E0580937D
:1024A0002D051092300510923105109232051092D0
:1024B00033051092E5051092E40582E691E09093D1
:1024C000E3058093E20586E08093E605CFEFC093B5
:1024D000E70587E08093E80585E08093E90584E0DF
:1024E0008093EA0583E08093EB0582E08093EC051E
:1024F0001092ED051092EE051092EF051092F00586
:102500001092F10581E00E94CA061092DD0510923A
:10251000DC051092DF051092DE051092E1051092A5
:10252000E0056CE671E08CED95E00E94C8078091B3
:10253000D8058C30A0F491E0980F9093D805809343
:10254000D90590E0FC01EE0FFF1FE80FF91FEC54D6
:10255000FA4F88EB9BE092838183CF910895C093DB
:10256000D905FBCFCF93DF93CDB7DEB7C656D109E0
:102570000FB6F894DEBF0FBECDBF789484B58260ED
:1025800084BD84B5816084BD85B5826085BD85B517
:10259000816085BD80916E00816080936E00109295
:1025A0008100809181008260809381008091810010
:1025B00081608093810080918000816080938000A1
:1025C0008091B10084608093B1008091B0008160FF
:1025D0008093B00080917A00846080937A0080912B
:1025E0007A00826080937A0080917A008160809383
:1025F0007A0080917A00806880937A001092C100FE
:10260000E0912705F091280582E08083E091230581
:10261000F09124051082E0912505F09126058FECBC
:10262000808310922F05E0912B05F0912C0586E018
:102630008083E0912905F0912A0580818061808363
:10264000E0912905F0912A05808188608083E091DE
:102650002905F0912A05808180688083E091290511
:10266000F0912A0580818F7D80838091D9058C30FF
:1026700008F051C061E089E00E94E8018091D9052D
:10268000282F30E0F901EE0FFF1FE20FF31FEC548B
:10269000FA4F9081907C996090831092DA051092A5
:1026A000DB052CE0622F0E940717829FB0011124E6
:1026B00030E020E0AB01420F531FFA01EE0FFF1F85
:1026C000E40FF51FEC54FA4F908196FD16C02F5F72
:1026D0003F4F2C30310571F781110FC010928000EF
:1026E00082E0809381001092850010928400B19A5C
:1026F00080916F00826080936F00E091D9058E2FEA
:1027000090E0FC01EE0FFF1FE80FF91FEC54FA4FA9
:1027100080818064808390E080E00E94FA0061E024
:1027200088E00E94E8018EEA91E00E948D0782E035
:102730000E94CA0661EC71E082EE95E00E947E077D
:102740001092EB0487E390E0C12CD12C7601C39466
:102750000097C1F0FC0133E0F595E7953A95E1F774
:10276000E053FB4F282F2770B701A60104C0440F88
:10277000551F661F771F2A95D2F72081242B2083AF
:102780000197E6CF6EE271E087ED94E00E94B80811
:102790008CEB92E09093CF048093CE040CB406FCB3
:1027A00025C061E08AE00E94E80161E08AE00E94C1
:1027B0009C0161E08BE00E94E80161E08DE00E94F5
:1027C000E80160E08CE00E94E80161E08BE00E949B
:1027D0009C0160E08BE00E949C0160E08DE00E9423
:1027E0009C0180E58CBD8DB581608DBD8AE08093B4
:1027F000CD0461E00E94E8010E9451044FEF60E0C7
:102800008FEF0E94850462E070E080E090E00E941B
:102810003E020E9458048DE10E944C0480E00E9418
:102820004C041EB50E945104112399F370E060E03E
:1028300088E00E94C30470E060E08CE00E94C30462
:102840006FEF7BE08AE00E94C30460E07CE084E0FC
:102850000E94C3046FEF71E186E00E94C30466E743
:1028600074E084E10E94B30561EB88E30E94B60442
:102870006FE370E388E20E94C30469EF77EF80E3BF
:102880000E94C30461E080EC0E94B60442E362EC63
:1028900080E80E94850462E17CE086EC0E94C3042B
:1028A00062E184EC0E94B6046CED75E08AEC0E9453
:1028B000C3046091D70484EE0E94B6046091D804EA
:1028C00085EE0E94B6046091D90482EE0E94B6049F
:1028D0006091DA0483EE0E94B6046091DB0480EE1E
:1028E0000E94B6046091DC0481EE0E94B60460E0B0
:1028F00071E080E10E94B3058FE10E949A0440ECF0
:102900006BE180E80E94850444E06FE180E80E946A
:10291000850482E70E94D0041092EB046AE271E021
:1029200083E195E00E94CB081092E6041092E50442
:1029300081E08093EC0466E271E081EE94E00E9415
:10294000CB08E3E1F5E02FE035E06DED74E047E121
:1029500055E09191D9018D919D018095892BDB01E5
:102960008D93BD014E175F07A1F762E271E08DEE16
:1029700094E00E94CB088091EC0481FF51C08E014D
:102980000F5F1F4F2BE3822E2FE1922E81EB282E1B
:102990008EE0382E9AEEA92E9FE0B92E0E94E80410
:1029A0000E94690A87E195E00E940D031816190636
:1029B0000CF00AC10E9470022B013C0160E088E02B
:1029C0000E949C011A8219821C821B821E821D8217
:1029D0006CE671E0C8010E94C8070E94CD0297FD15
:1029E00024C0A6968FAFA697A7961FAEA797ED8097
:1029F000FE80BFEFEB1AFB0AB701C8010E94A007D7
:102A0000882359F329813A818D819E81BE016B59BA
:102A10007F4F820F931F0E942519FE82ED82DDCF2A
:102A20000E94E8040E94690AA6CF8091DC0590917B
:102A3000DD05009709F4D7C069817A8161157105B8
:102A400009F4CFC04091DE055091DF052D813E8114
:102A50004217530708F4C5C00E9425198D819E8135
:102A60009093E1058093E0051E821D82C8010E94BB
:102A7000760781E00E94C406C4010197F1F7E1E006
:102A80008091F5058111E0E0E195F0E0EE51FA4F1B
:102A9000848980680E94C4061A8219821C821B8263
:102AA0001E821D8260ED71E0C8010E94C807C090BF
:102AB000DC05D090DD05C114D10409F4ABC0E09071
:102AC000E005F090E105E114F104B1F08D819E8103
:102AD000E80EF91EB701C8010E94A007882309F477
:102AE00099C029813A818D819E81B601820F931F01
:102AF0000E942519FE82ED824D815E8169817A8175
:102B000082EE95E00E947D026AE671E082EE95E039
:102B10000E947E07C8010E9476070E947002DC01B5
:102B2000CB0184199509A609B709BF93AF939F9369
:102B30008F938091DD058F938091DC058F9387EDD6
:102B400091E09F938F931F930F930E943A1989E30B
:102B500091E090930505809304051093030500937D
:102B60000205ABE2B1E0B0930105A093000589E155
:102B700091E09093FF048093FE041092FD04109264
:102B8000FC04AEEFB7E0B093FB04A093FA043092DC
:102B9000F8042092F704B092F604A092F504109283
:102BA000F404B0E5B093F30481E08093F2048091E3
:102BB000F1048F5F87708093F1048093F9040FB65E
:102BC000F894DEBF0FBECDBFA0E0B0E0AB2B09F4A0
:102BD000E5CE0E941903882309F4D8CE0E94000094
:102BE000D5CE0E94C91789819A819093DD05809383
:102BF000DC058B819C819093DF058093DE058D81C0
:102C00009E819093E1058093E0051A8219821C82CF
:102C10001B822ACF89819A81009711F00E94C917DF
:102C20001A8219821E821D821C821B8265CF8CED46
:102C300095E00C947607FB01DC0102C005900D9233
:102C400041505040D8F70895BB272A3051F49923BA
:102C500042F4BDE290958095709561957F4F8F4FBE
:102C60009F4F0C943416BB27FA01A62F62177105EB
:102C700081059105330B30FB66F0AA27660F771F9D
:102C8000881F991FAA1FA21710F0A21B6395385026
:102C9000A9F7A05DAA3308F0A95DA19336F7B11199
:102CA000B1931082CA010C945516DC01FC01672F08
:102CB00071917723E1F7329704C07C916D93708313
:102CC0006291AE17BF07C8F30895F999FECF92BD80
:102CD00081BDF89A992780B50895052E97FB1EF4BB
:102CE00000940E94841657FD07D00E94D61607FC58
:102CF00003D04EF40C948416509540953095219550
:102D00003F4F4F4F5F4F0895909580957095619517
:102D10007F4F8F4F9F4F08950E94F816A59F900DEB
:102D2000B49F900DA49F800D911D11240895B7FFAD
:102D30000C948C160E948C16821B930B08952F9274
:102D40003F924F925F926F927F928F929F92AF923B
:102D5000BF92CF92DF92EF92FF920F931F93CF9388
:102D6000DF93CDB7DEB7CA1BDB0B0FB6F894DEBF1F
:102D70000FBECDBF09942A88398848885F846E8445
:102D80007D848C849B84AA84B984C884DF80EE808F
:102D9000FD800C811B81AA81B981CE0FD11D0FB698
:102DA000F894DEBF0FBECDBFED010895A1E21A2E4B
:102DB000AA1BBB1BFD010DC0AA1FBB1FEE1FFF1FDF
:102DC000A217B307E407F50720F0A21BB30BE40B2F
:102DD000F50B661F771F881F991F1A9469F7609576
:102DE0007095809590959B01AC01BD01CF01089530
:102DF000A29FB001B39FC001A39F700D811D11243C
:102E0000911DB29F700D811D1124911D0895991B74
:102E100079E004C0991F961708F0961B881F7A95D1
:102E2000C9F780950895AA1BBB1B51E107C0AA1FD3
:102E3000BB1FA617B70710F0A61BB70B881F991F5B
:102E40005A95A9F780959095BC01CD010895EE0F94
:102E5000FF1F0590F491E02D09940F931F93CF93DA
:102E6000DF938230910510F482E090E0E091FC0560
:102E7000F091FD0530E020E0B0E0A0E0309799F45B
:102E80002115310509F44AC0281B390B24303105BE
:102E9000D8F58A819B816115710589F1FB019383C6
:102EA0008283FE0111C04081518102811381481744
:102EB0005907E0F04817590799F4109761F01296F6
:102EC0000C93129713961C933296CF01DF91CF91FA
:102ED0001F910F9108950093FC051093FD05F4CF09
:102EE0002115310551F04217530738F0A901DB01D4
:102EF0009A01BD01DF01F801C1CFEF01F9CF909335
:102F0000FD058093FC05CDCFFE01E20FF31F8193F9
:102F100091932250310939832883D7CF2091FA0524
:102F20003091FB05232B41F420913601309137017C
:102F30003093FB052093FA0520913401309135013F
:102F40002115310541F42DB73EB74091380150911C
:102F50003901241B350BE091FA05F091FB05E217CE
:102F6000F307A0F42E1B3F0B2817390778F0AC01AC
:102F70004E5F5F4F2417350748F04E0F5F1F509389
:102F8000FB054093FA05819391939FCFF0E0E0E039
:102F90009CCFCF93DF930097E9F0FC013297138227
:102FA0001282A091FC05B091FD05ED0130E020E01A
:102FB0001097A1F420813181820F931F2091FA058F
:102FC0003091FB052817390709F061C0F093FB0524
:102FD000E093FA05DF91CF910895EA01CE17DF075C
:102FE000E8F54A815B819E0141155105B1F7E90180
:102FF000FB83EA8349915991C40FD51FEC17FD0754
:1030000061F4808191810296840F951FE901998373
:103010008883828193819B838A83F0E0E0E012962B
:103020008D919C9113970097B9F52D913C91119733
:10303000CD010296820F931F2091FA053091FB0576
:103040002817390739F6309751F51092FD0510927F
:10305000FC05B093FB05A093FA05BCCFD383C283D4
:1030600040815181840F951FC817D90761F44E5FC5
:103070005F4F88819981480F591F518340838A810E
:103080009B81938382832115310509F0B0CFF093A2
:10309000FD05E093FC059ECFFD01DC01C0CF13824E
:1030A0001282D7CFB0E0A0E0E8E5F8E10C94A116D9
:1030B0008C01009751F4CB010E942D178C01C8019F
:1030C000CDB7DEB7E0E10C94BD16FC01E60FF71FAB
:1030D0009C0122503109E217F30708F49DC0D90181
:1030E000CD91DC911197C617D70798F0C530D1055F
:1030F00030F3CE0104978617970708F3C61BD70B4A
:103100002297C193D1936D937C93CF010E94C917ED
:10311000D6CF5B01AC1ABD0A4C018C0E9D1EA0914E
:10312000FC05B091FD05512C412CF12CE12C1097A0
:1031300031F58091FA059091FB058815990509F004
:103140005CC04616570608F058C080913401909133
:103150003501009741F48DB79EB7409138015091E9
:103160003901841B950BE817F90708F055C0F09357
:10317000FB05E093FA05F90171836083A0CF8D917F
:103180009C91119712966C90129713967C901397BE
:10319000A815B90559F56C0142E0C40ED11CCA143A
:1031A000DB0420F1AC014A195B09DA01129615978C
:1031B00080F06282738251834083D9016D937C9346
:1031C000E114F10471F0D7011396FC93EE9312977A
:1031D00076CF22968C0F9D1FF90191838083F30196
:1031E000EFCFF093FD05E093FC0569CF4816590633
:1031F00008F42C017D01D3019ACFCB010E942D1739
:103200007C01009749F0AE01B8010E941C19C80169
:103210000E94C917870153CF10E000E050CFFB0197
:10322000DC0104C08D910190801921F4415050407F
:10323000C8F7881B990B0895FB01DC0102C00190BF
:103240000D9241505040D8F70895FB01DC010190E8
:103250000D920020E1F70895FB01DC014150504040
:1032600030F08D910190801919F40020B9F7881B76
:10327000990B0895AEE0B0E0E0E4F9E10C94AD16EE
:103280000D891E8986E08C831A8309838FEF9FE75F
:103290009E838D83AE01475E5F4F6F89788DCE012F
:1032A00001960E945D192F813885020F131FF801C6
:1032B00010822E96E4E00C94C916ABE0B0E0E3E691
:1032C000F9E10C949F167C013B018A01FC011782F5
:1032D0001682838181FFC8C1CE0101965C01F7018E
:1032E0009381F30193FD859193FF81913F018823A1
:1032F00009F453C1853239F493FD859193FF81918F
:103300003F01853229F4B70190E00E944D1BE7CFC1
:10331000912C212C312CFFE1F31538F08B3211F177
:1033200090F4803209F1833229F137FC3CC020ED62
:10333000280F2A3050F536FE20C08AE0989E200DD6
:103340001124922E06C08D3291F0803371F768946B
:1033500030F8F30193FD859193FF81913F01811135
:10336000DACF21C0689431F8689432F8F2CF6894CB
:1033700033F8EFCF689434F8ECCFEAE02E9E200DBE
:103380001124222E689435F8E4CF8E3229F436FCCD
:1033900004C1689436F8DDCF8C3619F4689437F898
:1033A000D8CF8836B1F2982F9F7D95549330E0F0B6
:1033B0008336A1F18337C1F1833509F063C0280159
:1033C000F2E04F0E511CF801C080D180692D70E0F1
:1033D00036FC02C06FEF7FEFC6010E94371B4C0125
:1033E000689437F882010AC00C5F1F4FFFE3F9832E
:1033F00088248394912C6501E89437F833FE2DC01E
:10340000522C8114910471F5552009F468CFB7014D
:1034100080E290E00E944D1B5A94F6CFF801808123
:1034200089830E5F1F4FE4CF2801F2E04F0E511C3D
:10343000F801C080D180692D70E036FC02C06FEFCA
:103440007FEFC6010E94421B4C018201D5CFB7011C
:1034500080E290E00E944D1B2A942814190409F080
:10346000B0F7CECFF60137FC859137FE81916F0121
:10347000B70190E00E944D1B51105A94F1E08F1A51
:103480009108BFCF843619F0893609F077C0F8016A
:1034900037FE6BC060817181828193810C5F1F4F09
:1034A000F32DFF763F2E97FF09C09095809570957C
:1034B00061957F4F8F4F9F4F689437F82AE030E037
:1034C000A5010E947D1BC82ECA188C2C432C36FEE9
:1034D0000CC0E89440F8C91440F434FE05C032FC36
:1034E00003C0F32DFE7E4F2E892C44FE95C0FE01B5
:1034F000EC0DF11D8081803309F087C0242D297ED9
:10350000422E842D8870582E43FC95C040FE8FC0FB
:103510009C2C821418F42C0C922C981844FE91C008
:10352000B70180E390E00E944D1B42FE09C088E78E
:1035300090E041FE02C088E590E0B7010E944D1B7B
:10354000C91408F48AC0CA94D12C9FEFC91AD90AA9
:10355000CA0CDB1CF60182916F01B70190E00E945A
:103560004D1BAC14BD04B1F74FCF60817181072EA4
:10357000000C880B990B0E5F1F4F92CFD32CE89451
:10358000D4F82AE030E0853739F1232D297FD22E77
:103590008F3601F148F48835A9F0F70186819781CB
:1035A0002B96E2E10C94BB16803749F08837A9F7D7
:1035B000D4FE02C06894D2F820E130E00DC06894D7
:1035C000D4F8F6CF34FE03C0822F8660D82E20E1D7
:1035D00032E002C028E030E0F801D7FE0FC0608181
:1035E0007181828193810C5F1F4FA5010E947D1B19
:1035F000C82ECA183D2CE89437F867CF60817181D6
:1036000090E080E00E5F1F4FF0CF42FC02C0839439
:1036100078CF8394839475CF842D867809F471CF05
:10362000F6CFB70180E290E00E944D1B8394821494
:10363000C0F3512C73CF522C5818821408F46ECF5B
:10364000F8CF842D867809F47BCF8BE241FE80E2AF
:1036500047FC8DE2B70190E071CFB70180E390E0C5
:103660000E944D1B9A946CCF8FEF9FEF99CFFC0176
:103670000590615070400110D8F7809590958E0F9D
:103680009F1F0895FC016150704001900110D8F710
:10369000809590958E0F9F1F08950F931F93CF9342
:1036A000DF93182F092FEB018B8181FD09C01FEFDC
:1036B0000FEF812F902FDF91CF911F910F910895E0
:1036C00082FF14C02E813F818C819D81281739078C
:1036D0003CF4E881F981CF010196998388831083B6
:1036E0008E819F8101969F838E83E3CFE885F98544
:1036F000812F0995892BA1F3DACFFA01AA27283067
:1037000051F1203181F1E8946F936E7F6E5F7F4FAE
:103710008F4F9F4FAF4FB1E03ED0B4E03CD0670F2A
:10372000781F891F9A1FA11D680F791F8A1F911D7D
:10373000A11D6A0F711D811D911DA11D20D009F4CD
:1037400068943F912AE0269F11243019305D31930F
:10375000DEF6CF010895462F4770405D4193B3E0F8
:103760000FD0C9F7F6CF462F4F70405D4A3318F09F
:10377000495D31FD4052419302D0A9F7EACFB4E050
:10378000A6959795879577956795BA95C9F7009708
:103790006105710508959B01AC010A2E06945795A9
:1037A000479537952795BA95C9F7620F731F841F00
:1037B000951FA01D089510E0CFECD0E004C0FE01DD
:1037C0000E9427172196C03DD107C9F7F894FFCF73
:1037D00041726475696E6F2D454E4332386A3630DA
:1037E0002D3030000000000000000000000000004C
:1037F0000A01A9FE5829A9FE5829A9FE582A746968
:10380000692D30310000FE05800000000000390401
:103810007D0249047C02FFFFFFFFFFFF0000000064
:103820004F037D02AA029C030D03B902FF020000B0
:10383000000070077D0249047C020D0A0056616C8D
:103840006964205441472C204163636573732041B0
:103850006C6C6F776564210054696D653A2000498E
:103860006E76616C6964205441472C204163636526
:1038700073732044656E69656400323030005363B1
:10388000616E20796F7572205246696420544147F9
:10389000005363616E20796F75722052466964002F
:1038A000524649443A200025732664656C61793D8F
:0438B000256400008B
:107E0000112484B714BE81FFF0D085E080938100F7
:107E100082E08093C00088E18093C10086E0809377
:107E2000C20080E18093C4008EE0C9D0259A86E02C
:107E300020E33CEF91E0309385002093840096BBD3
:107E4000B09BFECF1D9AA8958150A9F7CC24DD24C4
:107E500088248394B5E0AB2EA1E19A2EF3E0BF2EE7
:107E6000A2D0813461F49FD0082FAFD0023811F036
:107E7000013811F484E001C083E08DD089C08234E0
:107E800011F484E103C0853419F485E0A6D080C0E4
:107E9000853579F488D0E82EFF2485D0082F10E0AE
:107EA000102F00270E291F29000F111F8ED06801E7
:107EB0006FC0863521F484E090D080E0DECF843638
:107EC00009F040C070D06FD0082F6DD080E0C81688
:107ED00080E7D80618F4F601B7BEE895C0E0D1E017
:107EE00062D089930C17E1F7F0E0CF16F0E7DF06D8
:107EF00018F0F601B7BEE89568D007B600FCFDCFD4
:107F0000A601A0E0B1E02C9130E011968C91119780
:107F100090E0982F8827822B932B1296FA010C0160
:107F200087BEE89511244E5F5F4FF1E0A038BF0790
:107F300051F7F601A7BEE89507B600FCFDCF97BE46
:107F4000E89526C08437B1F42ED02DD0F82E2BD052
:107F50003CD0F601EF2C8F010F5F1F4F84911BD097
:107F6000EA94F801C1F70894C11CD11CFA94CF0C13
:107F7000D11C0EC0853739F428D08EE10CD085E9AC
:107F80000AD08FE07ACF813511F488E018D01DD067
:107F900080E101D065CF982F8091C00085FFFCCF94
:107FA0009093C60008958091C00087FFFCCF809118
:107FB000C00084FD01C0A8958091C6000895E0E648
:107FC000F0E098E1908380830895EDDF803219F02E
:107FD00088E0F5DFFFCF84E1DECF1F93182FE3DFCA
:107FE0001150E9F7F2DF1F91089580E0E8DFEE27F6
:047FF000FF270994CA
:027FFE00040479
:00000001FF
