:100000000C94D0000C94F8000C94F8000C94F800B8
:100010000C94F8000C94F8000C94F8000C94F80080
:100020000C94F8000C94F8000C94F8000C940B114C
:100030000C94F8000C94F8000C94F8000C94F80060
:100040000C9469100C94F8000C94D9100C94B31013
:100050000C94F8000C94F8000C94F8000C94F80040
:100060000C94F8000C94F8006382536300010800BC
:100070000604000100504F53542024462048545495
:10008000502F312E300D0A486F73743A2024460DDC
:100090000A244624534163636570743A202A2F2A48
:1000A0000D0A436F6E74656E742D4C656E677468CF
:1000B0003A2024440D0A436F6E74656E742D547992
:1000C00070653A206170706C69636174696F6E2F3E
:1000D000782D7777772D666F726D2D75726C656EE2
:1000E000636F6465640D0A0D0A245300474554206C
:1000F0002446245320485454502F312E300D0A48A2
:100100006F73743A2024460D0A24460D0A0D0A0026
:100110004500008200004000204163636570743A2E
:1001200020746578742F68746D6C003136392E3206
:1001300035342E38382E3431002F656E7465725F79
:10014000646F6F723F726669643D000000000024B6
:100150000027002A0000000000250028002B0004D2
:10016000040404040404040202020202020303035E
:100170000303030102040810204080010204081058
:100180002001020408102000000008000201000005
:1001900003040700000000000000000016122116F2
:1001A00011241FBECFEFD8E0DEBFCDBF11E0A0E02D
:1001B000B1E0E2EAF2E302C005900D92A83DB1077A
:1001C000D9F725E0A8EDB1E001C01D92A23FB2072A
:1001D000E1F710E0CFECD0E004C02197FE010E94CF
:1001E0003117CE3CD107C9F70E94A6120C944419CE
:1001F0000C9400008F929F92AF92BF92FF920F9348
:100200001F93CF93DF93F090CD052BE02F1508F4CB
:100210004CC02091CF0508E512E0021B110927FD13
:100220001395000F111F000F111F2091CE05C8E874
:10023000D0E0C21BD10927FDD395CC0FDD1FCC0F19
:10024000DD1F4E010D2E000CAA08BB089801012EDF
:10025000000C440B550B281939094A095B09DC01CC
:100260000E94A11624EB30E040E050E00E94771697
:10027000820E931EA41EB51E8C169D062CF0E8015E
:10028000801691060CF4E4012297CC0FDD1F2FB7E6
:10029000F8948F2D90E0FC01EE0FFF1FE80FF91F7F
:1002A000E855FA4FD283C1832FBFDF91CF911F91C1
:1002B0000F91FF90BF90AF909F908F900895CF9334
:1002C000DF93209107052223C1F0FC012081222326
:1002D000A1F0C7E0D5E0A3E0B5E09C012C5F3F4F63
:1002E000899141919D918427892339F4E217F3077D
:1002F000B9F781E0DF91CF91089580E0FBCFCF93F4
:10030000DF93EC01FB018A30910548F06AE070E070
:100310000E941D17CB01BF010E947F01FC01CE018D
:100320006AE070E00E941D17805D80831182CF011A
:100330000196DF91CF91089590E0FC01E957FE4FBF
:100340002491FC01ED58FE4F3491FC01E15AFE4F1F
:10035000E491EE23C9F0222339F0233001F1A8F40F
:10036000213019F1223029F1F0E0EE0FFF1FEB5A96
:10037000FE4FA591B4918FB7F894EC91611126C00E
:1003800030953E233C938FBF08952730A9F0283045
:10039000C9F0243049F7809180008F7D03C080919F
:1003A00080008F7780938000DFCF84B58F7784BD06
:1003B000DBCF84B58F7DFBCF8091B0008F778093AA
:1003C000B000D2CF8091B0008F7DF9CF3E2BDACF35
:1003D000CF93DF9390E0FC01ED58FE4F2491815ABA
:1003E0009E4FFC0184918823D1F090E0880F991FE3
:1003F000FC01E55BFE4FA591B491FC01EB5AFE4F69
:10040000C591D49161110EC09FB7F8948C91E22FE1
:10041000E0958E238C932881E223E8839FBFDF91B0
:10042000CF9108958FB7F894EC91E22BEC938FBFA6
:10043000F6CF3FB7F8948091FF0490910005A0910A
:100440000105B091020526B5A89B05C02F3F19F004
:100450000196A11DB11D3FBFBA2FA92F982F882744
:10046000BC01CD01620F711D811D911D42E0660F1F
:10047000771F881F991F4A95D1F708958F929F92F1
:10048000AF92BF92CF92DF92EF92FF924B015C014D
:100490000E9419026B017C010E9419026C197D09EE
:1004A0008E099F09683E734081059105A8F321E0FC
:1004B000821A9108A108B10888EEC80E83E0D81E00
:1004C000E11CF11C81149104A104B10429F7FF90EF
:1004D000EF90DF90CF90BF90AF909F908F90089556
:1004E0002FB7F8946091FB047091FC048091FD0497
:1004F0009091FE042FBF08950895AF92BF92CF92BE
:10050000DF92EF92FF920F931F93CF93DF936C01D3
:100510007B018B01040F151FEB015E01AE18BF08B4
:10052000C017D10759F06991D601ED91FC91019066
:10053000F081E02DC6010995892B79F7C501DF917E
:10054000CF911F910F91FF90EF90DF90CF90BF90D0
:10055000AF900895FC01538D448D252F30E0842FFA
:1005600090E0821B930B541710F0CF9608950197DB
:100570000895FC01918D828D981761F0A28DAE0FC8
:10058000BF2FB11D5D968C91928D9F5F9F73928F4F
:1005900090E008958FEF9FEF08950F931F930E94AF
:1005A0007002609313057093140580931505909362
:1005B00016058BE095E00E94B90297FF1DC00E94CE
:1005C00070020091130510911405209115053091CA
:1005D0001605601B710B820B930B00910F05109198
:1005E00010052091110530911205601771078207DF
:1005F0009307F8F28FEF9FEF1F910F910895FC0181
:10060000918D828D981731F0828DE80FF11D858DC7
:1006100090E008958FEF9FEF0895FC01918D228D5A
:10062000892F90E0805C9F4F821B91098F739927DF
:1006300008958BE095E00E940D0321E0892B09F4D9
:1006400020E0822F089580E090E0892B29F00E941D
:10065000190381110C9400000895FC01A48DA80FCA
:10066000B92FB11DA35ABF4F2C91848D90E00196F4
:100670008F739927848FA689B7892C93A089B18914
:100680008C91837080648C93938D848D981306C0B5
:100690000288F389E02D80818F7D80830895EF9219
:1006A000FF920F931F93CF93DF93EC0181E0888F2C
:1006B0009B8D8C8D98131AC0E889F989808185FFFC
:1006C00015C09FB7F894EE89FF896083E889F9899E
:1006D00080818370806480839FBF81E090E0DF91A0
:1006E000CF911F910F91FF90EF900895F62E0B8DF3
:1006F00010E00F5F1F4F0F731127E02E8C8D8E11AE
:100700000CC00FB607FCFACFE889F989808185FF14
:10071000F5CFCE010E942D03F1CFEB8DEC0FFD2F15
:10072000F11DE35AFF4FF0829FB7F8940B8FEA89CF
:10073000FB8980818062CFCFCF93DF93EC01888DDE
:100740008823B9F0AA89BB89E889F9898C9185FD4C
:1007500003C0808186FD0DC00FB607FCF7CF8C91DA
:1007600085FFF2CF808185FFEDCFCE010E942D0362
:10077000E9CFDF91CF9108958091100290911102FD
:10078000982789279827449720912E0230E044E04B
:10079000359527954A95E1F7220F331F220F331F16
:1007A000821B930B97FF02C090E080E008950F93A7
:1007B0001F93CF93DF9370E060507E4F8A01075FF5
:1007C0001F4F213029F0223031F48A0102501109E3
:1007D00030E020E003C000E010E09801EB01FA01F6
:1007E000E230F10558F0A991B991BA27AB27BA27A1
:1007F0000A0F1B1F211D311D3297F2CFFA01EE7F28
:100800006E0F7F1F4E175F0769F0FB01408150E0BC
:1008100070E060E0762F652F542F4427040F151FDA
:10082000261F371FA9016627772741155105610546
:10083000710519F022273327F1CF00951095E82F85
:10084000F0E0E050FE4F10830183DF91CF911F91C4
:100850000F910895E0E0F2E0108E118E80E4848B19
:10086000158A868B20E044E150E06EE088E10C942C
:10087000D703DC011696ED91FC9117979F012F5F2E
:100880003F4F17963C932E931697608381E090E03C
:10089000089590E080E008958EBD0DB407FEFDCF71
:1008A000089561E08091C1040E949C0178940895AC
:1008B000F89460E08091C1040C949C010F931F9305
:1008C000CF93DF93EC018B010E9458042097B9F07D
:1008D0008AE30E944C041EBCF801CE01019739F056
:1008E0000DB407FEFDCF2EB51EBC2193F7CF219787
:1008F000C00FD11F0DB407FEFDCF8EB58883DF91E9
:10090000CF911F910F910C9451041F93CF93DF93BC
:10091000182FC62FD42F0E9458048C2F8F71812B33
:100920000E944C048D2F0E944C04DF91CF911F91A7
:100930000C945104CF93C82FC0768091DA018C17A4
:1009400099F043E06FE180EA0E948504C093DA01E8
:100950004C2F50E085E0559547958A95E1F76FE17A
:1009600080E8CF910C948504CF910895CF93DF93C5
:10097000C82FD62F0E949A044D2F6C2F80E4DF9150
:10098000CF910C948504CF93DF93C82FD72F0E946B
:10099000B6046D2F81E08C0FDF91CF910C94B604DB
:1009A000CF93C82F0E949A040E9458048C2F8F71F5
:1009B0000E944C0480E00E944C04C7FF03C080E00A
:1009C0000E944C04CEB50E9451048C2FCF91089503
:1009D0000F931F93CF93DF9300D000D000D0CDB7FB
:1009E000DEB78091DD01882379F06091DB017091A1
:1009F000DC016115710509F053C06FEF7BE08CE0FD
:100A00000E94C3041092DD0189E30E94D00410E02B
:100A100000E08823C9F16091DB017091DC0180E086
:100A20000E94C304BE016F5F7F4F86E090E00E948A
:100A30005E0489819A819093DC018093DB018D8132
:100A40009E818C010078112787FF12C08B819C81C9
:100A500004970091C2041091C3040150110980173A
:100A6000910708F48C0160E072E0C8010E945E0406
:100A7000F801E050FE4F108281E08093DD0140E4F8
:100A80006EE180E80E948504C80126960FB6F894AE
:100A9000DEBF0FBECDBFDF91CF911F910F910895A3
:100AA00061507109ACCFCF93DF93EC0140E86FE167
:100AB00080E80E94850440E86FE180EA0E94850496
:100AC0004AE06CE180EA0E94850460E07CE082E01C
:100AD0000E94C304BE01745F86E00E94C30440E02C
:100AE00060E08AE70E9485040E9458042097B1F0D4
:100AF0008AE70E944C04809100028EBDE1E0F2E0A2
:100B0000C050DE4FEC17FD0731F081910DB407FEA8
:100B1000FDCF8EBDF7CF0DB407FEFDCF0E9451046F
:100B200048E06FE180E80E948504D0E0C0E08CE1FD
:100B30000E94D0048A7029F42196C83E83E0D80729
:100B4000B1F78CE10E94D00481FD03C0C83ED340C0
:100B500039F448E06FE180EADF91CF910C9485048D
:100B6000DF91CF910895CF93DF93EB01682F84ED50
:100B70000E94B604BE0186ED0E94C3048AEE0E9464
:100B8000D00480FDFBCFDF91CF910895CF92DF920B
:100B9000EF92FF920F931F938634910568F1209195
:100BA0002302233449F5C0902E02D0902F02E0900A
:100BB0003002F09031020091E3011091E4012091A4
:100BC000E5013091E601C016D106E206F306A1F474
:100BD000EAE1F3E080509E4F9F012E5F3F4F41813D
:100BE0005081553319F45281651771F0F901E40F02
:100BF000F11DE817F90780F380E01F910F91FF9036
:100C0000EF90DF90CF90089581E0F7CFE091D80189
:100C1000F091D9019F012F5F3F4F3093D90120936D
:100C2000D80180830895FF920F931F93CF93DF9392
:100C3000162FF42E052F0E940606812F0E9406060D
:100C4000CF2DD02F115020F089910E940606FACFA7
:100C5000DF91CF911F910F91FF900895CF93DF9374
:100C6000EC0160E08E810E949C0161E08E810E9417
:100C70009C0160E08E810E949C018BE891E00197CD
:100C8000F1F7DF91CF910895CF92DF92EF92FF922B
:100C90000F931F93CF93DF936C017C0187E0E80EE5
:100CA000F11CD0E0C0E0062F10E0B8010C2E02C00D
:100CB000759567950A94E2F76170F70181917F015C
:100CC0000E949C012196C430D10579F7C601DF91BD
:100CD000CF911F910F91FF90EF90DF90CF900C94E8
:100CE0002E06CF92DF92EF92FF920F931F93CF9336
:100CF000DF93EC01F62E642F8C810E949C018D8184
:100D00008F3F19F060E00E949C010F2D10E08F854D
:100D100084FF25C06E0187E0C80ED11CF12CE12CA8
:100D2000B8010E2C02C0759567950A94E2F76170C0
:100D3000F60181916F010E949C01FFEFEF1AFF0AFB
:100D400088E0E816F10461F7CE01DF91CF911F91A1
:100D50000F91FF90EF90DF90CF900C942E06B8018A
:100D600084E0759567958A95E1F7CE010E94440667
:100D70006F2DCE01DF91CF911F910F91FF90EF90DA
:100D8000DF90CF900C94440640E0682F86ED95E00C
:100D90000C947106CF93DF93823029F49091E5058E
:100DA00098609093E5058093E9051092EA0580E448
:100DB0008093EB0580E18093EC0580E58093ED0561
:100DC00061E08091DA050E94E8018091DB058F3FA8
:100DD00019F061E00E94E80161E08091DC050E9469
:100DE000E801C6EDD5E09E01265D35408091E50520
:100DF00084FD0BC084E090E021962817390744F465
:100E000061E08E810E94E801EECF88E090E0F4CFAF
:100E10008BE39DE00197F1F760E08091DA050E9495
:100E20009C0160E08091DC050E949C018091DB05C3
:100E30008F3F19F060E00E949C018091E50584FDE0
:100E400039C063E086ED95E00E944406CBE4D6E429
:100E5000CE010197F1F763E086ED95E00E9444062C
:100E60002197F1F763E086ED95E00E94440683E563
:100E700092E00197F1F762E086ED95E00E9444066A
:100E80008091E50580620E94C40684E08093E605B7
:100E90008CE00E94C40681E00E94C4068BE39FE1BF
:100EA0000197F1F782E08093E70586E0DF91CF912B
:100EB0000C94C40680620E94C4068BE496E40197F9
:100EC000F1F78091E50580620E94C40683E592E017
:100ED0000197F1F78091E50580620E94C406D0CFAA
:100EE00041E00E94710681E090E00895FB010190CD
:100EF0000020E9F73197AF01461B570BDC01ED915C
:100F0000FC910280F381E02D0994CF93DF93BC0123
:100F10008BE095E00E947607EC016AE671E08BE0D9
:100F200095E00E9476078C0F9D1FDF91CF91089569
:100F3000FC0180819181009711F00C94D3170895E2
:100F40000F931F93CF93DF93EC01888199810097D2
:100F500059F02A813B812617370730F081E0DF9175
:100F6000CF911F910F9108958B016F5F7F4F0E946A
:100F70005C18009759F0998388831B830A832C811E
:100F80003D81232B59F7FC011082E8CF80E0E7CFA9
:100F9000EF92FF920F931F93CF93DF93EC0119828F
:100FA00018821B821A821D821C8261157105E1F074
:100FB0008B01FB0101900020E9F731977F01E61AD0
:100FC000F70AB7010E94A00728813981811113C057
:100FD0002115310519F0C9010E94D3171982188211
:100FE0001D821C821B821A82DF91CF911F910F916B
:100FF000FF90EF900895FD82EC82B801C901DF9166
:10100000CF911F910F91FF90EF900C942F190F9398
:101010001F93CF93DF9300D000D000D0CDB7DEB7C1
:1010200060507E4FCE0101960E94C8074D815E81BF
:1010300069817A818BE095E00E947D026AE671E029
:101040008BE095E00E9476078D819E819C01215066
:101050003109E091E9052817390708F068C089814E
:101060009A81009709F463C0820F931FDC018C9171
:101070008B3609F05CC0E23008F055C0E150F0E07A
:10108000EA52FA4F848980680E94C4068DE691E096
:101090000E94850768E871E086ED95E00E9476077A
:1010A00010E000E04D815E819A0127503109200F48
:1010B000311F24173507C8F589819A810097A9F156
:1010C000820F931FFC01608141E086ED95E00E9454
:1010D00071060F5F1F4F0530110521F761E088E0B1
:1010E0000E949C0184EB90E00E94FA0068EB7BE098
:1010F00080E090E00E943E0290E080E00E94FA00D2
:1011000060E088E00E949C01CE0101960E94980751
:1011100026960FB6F894DEBF0FBECDBFDF91CF91FC
:101120001F910F910895E1E0AACF60E0CDCFE230AA
:10113000E8F4E150F0E0EA52FA4F848980680E94B6
:10114000C4066CE971E086ED95E00E9476078FE8B1
:1011500091E00E94850768EB7BE080E090E00E94D0
:101160003E0290E080E00E94FA00CECFE1E0E2CFC4
:10117000DC0196E0FB0101900D929A95E1F708954C
:10118000BC0180E092E00E94B8086BEC74E086E05D
:1011900092E00C94B808DC0194E0FB0101900D9200
:1011A0009A95E1F7089586E092E00E94C0086AE10E
:1011B00072E08EE192E00E94CB0867E075E08AE180
:1011C00092E00E94CB080C942A04CF93DF93EB01AA
:1011D0000E94C008BE018EE192E00E94CB0867E049
:1011E00075E08AE192E0DF91CF910C94CB08CF9328
:1011F000DF93EB0144E050E0BC018CE192E00E94FF
:101200001919892B49F466E172E0CE010E94B808F1
:1012100081E0DF91CF91089580E0FBCF0F931F9382
:10122000CF938C0186E491E00E94C008E0E0F2E0F8
:1012300088E08487C6E0C58748E050E06CE670E04F
:101240008EE092E00E942516E0E2F2E0DF011D92BE
:10125000CA95E9F76BEC74E086E192E00E94B80869
:10126000B80186E292E00E94CB0867E075E08CE16D
:1012700092E00E94CB088AE290E0CF911F910F91FB
:101280000C945305EF92FF920F931F93CF93DF932C
:101290008C01E0E0F2E086E191E0DF019C011D922B
:1012A00021503040E1F78091F301C6E4D1E0833072
:1012B00011F4CEEDD1E0CE010E945F01BE01882382
:1012C00009F4ACC084EF91E00E94E5088881807F3A
:1012D000803E91F088819981AA81BB818F3F9F4F89
:1012E000AF4FBF4F49F044E050E0BE0181ED94E0C4
:1012F0000E941919892B31F466E471E080E092E0D4
:101300000E94B80888E080930C0210920D0249E018
:1013100050E060E171E08EE092E00E9425161092AC
:10132000100281E1809317021092240283E48093DB
:1013300025021092220284E4809323021092260256
:10134000109228021092290266E471E080E092E097
:101350000E94B80881E080932A0280932B0286E0E5
:1013600080932C028091E3019091E401A091E5012A
:10137000B091E60180932E0290932F02A093300249
:10138000B0933102C091F301C33031F467E075E0EE
:1013900086E392E00E94CB086BEC74E086E492E076
:1013A0000E94B80886E193E09093D9018093D80118
:1013B000E8E6F0E084910E940606E9E6F0E0849118
:1013C0000E940606EAE6F0E084910E940606EBE63B
:1013D000F0E084910E94060685E30E94060681E003
:1013E0000E94060683E0C11101C081E00E9406064A
:1013F0008DE30E94060687E00E94060681E00E94B7
:1014000006068BECE82E84E0F82EC7E0C15049F0C8
:10141000D7018D917D010E940606F8CF8AEF91E0F9
:1014200053CF80910001882371F060E071E0FB01EF
:1014300001900020E9F7BF016150714040E051E0A8
:101440008CE00E9413060115110559F0A80164E013
:1014500082E30E9413064EED51E064E086E30E94B1
:10146000130687E30E94060683E00E94060681E0D9
:101470000E94060683E00E94060686E00E94060699
:101480008FEF0E940606C091D801D091D901CA52AF
:10149000D240CE014C9690931002809311020E948C
:1014A0002A04CE0108969093260280932702AE016B
:1014B000405F5F4F21E06AE188E20E94D703CE01DE
:1014C0008A96DF91CF911F910F91FF90EF900C942E
:1014D00053058F929F92AF92BF92CF92DF92EF927D
:1014E000FF920F931F93CF93DF9300D000D0CDB71F
:1014F000DEB77C018091DF04882369F08091F301DD
:10150000823009F4F1C008F0E9C0882309F474C1FD
:10151000813009F490C1E114F10409F02BC28091EB
:10152000E004857029F18091D9049091DA04892B27
:10153000F9F461E184ED0E94B60461E082ED0E945D
:10154000B6048AEE0E94D00480FDFBCF60E082EDFD
:101550000E94B60489ED0E94D00482FF09C085ED87
:1015600094E00E940E098091E00488608093E0047A
:101570008091D9049091DA0401969093DA048093D3
:10158000D9048091E604813009F079C08091E004AB
:1015900081FF75C082E08093E604809121018F5F16
:1015A00080932101F090E704E090E8041091E504B5
:1015B000A0E21A9F900111248F71182F122B81EE37
:1015C00094E00E945F0161EE74E0882309F4BFC1DA
:1015D00084EF91E00E94E50808E000930C0210926D
:1015E0000D0249E050E060E171E08EE092E00E947F
:1015F00025168CE28093110286E0809317020E94E8
:101600002A04E0922402F09225028BE080932202C9
:1016100010932302E6E2F2E0DF011D920A95E9F75A
:1016200080912001809328028D5F8093200180E6C5
:1016300080932E0282E080932F0293E090933002F9
:101640001092310210923202109233021092340240
:10165000109235028093360294E090933702809383
:10166000380286E28093390222E040E250E06AE1EB
:1016700082E30E94D7038AE390E00E9453058BED3A
:1016800094E00E945F01882379F08091BF0481116A
:101690000BC08091BE04811107C08BED94E00E94C5
:1016A0000E0981E08093BE0481EE94E00E945F0108
:1016B000811150C110E000E0C8010F900F900F9011
:1016C0000F90DF91CF911F910F91FF90EF90DF90DE
:1016D000CF90BF90AF909F908F900895833009F482
:1016E00056C0843009F017CF65E0C7010E94C605D7
:1016F000882309F4C9C08091E201811108C088E300
:101700000E94D004682F6E7F88E30E94B6046AE3CB
:1017100072E087E095E00E94CB08EAE1F3E0C701C0
:1017200080509E4F6C018F010E5F1F4FB1808081F2
:10173000863009F4FBC008F0BEC0813009F4ECC06B
:10174000833009F4EFC0F801EB0DF11DEC15FD0538
:1017500050F30E9470026093EB017093EC01809350
:10176000ED019093EE018091D504882361F01092F1
:10177000DA041092D90481E08093E00465ED74E00E
:10178000CB010E94CB0883E08093F301C4CE80900C
:10179000EF019090F001A090F101B090F2012FEFD5
:1017A00082169206A206B20609F4B5CE0E94700215
:1017B0000091EB011091EC012091ED013091EE01CF
:1017C000601B710B820B930B681579058A059B05CD
:1017D00008F4A1CE87E095E00E94420984E080935E
:1017E000F3010E9470026093E7017093E801809317
:1017F000E9019093EA018FCE0E9470026093E301A9
:101800007093E4018093E5019093E601E7E0F5E051
:1018100084E0DF011D928A95E9F790E080E00E9464
:10182000420988E30E94D004682F616088E30E9427
:10183000B60481E0D4CF62E0C7010E94C6058823C8
:1018400019F16AE372E0CE0101960E94CB08EAE149
:10185000F3E0C70180509E4FBF016E5F7F4F218133
:101860003081363351F48EED91E00E94CB08CE01E9
:1018700001960E94420982E0B2CFFB01E20FF11D06
:10188000E817F90748F3F3CF0E9470020091E701CF
:101890001091E8012091E9013091EA01601B710B80
:1018A000820B930B613177428105910508F433CEA9
:1018B0001092F30130CE8A3331F08F3F09F449CFD3
:1018C000833309F040CF1092EF011092F001109293
:1018D000F1011092F201F801C801049620E030E015
:1018E000A9016191542F432F322F2227260F311D3A
:1018F000411D511D8E179F07A1F72F3F9FEF3907FD
:1019000049075907B9F42093EF013093F001409350
:10191000F1015093F20117CFB80183E095E00E94E6
:10192000CB0811CFB80185ED94E0F9CFB8018BED6C
:1019300094E0F5CFA8EEB3E00E9496166093EF0115
:101940007093F0018093F1019093F201FCCE8AEF45
:1019500091E040CE8091BD048111ACCE8091BC0459
:101960008111A8CE81EE94E00E940E0981E080935F
:10197000BC04A0CEB9E2EB16F10408F49BCE809132
:101980000C02883009F096CE80910D02863009F065
:101990009FC144E050E067E075E086E292E00E947B
:1019A0001919892B09F086CE80911502813029F50D
:1019B00086E092E00E94C0081092140282E08093B8
:1019C000150266E172E080E292E00E94B8086BECDA
:1019D00074E086E192E00E94B8086CE172E086E271
:1019E00092E00E94CB0867E075E08CE192E00E94F3
:1019F000CB088AE290E00E9453058091E00483FFC7
:101A00000DC010911502123049F46AEF71E085EDB6
:101A100094E00E94F70881111093E0048091BF04C4
:101A2000811111C08091BE04882369F064EF71E0D8
:101A30008BED94E00E94F708882329F081E08093E1
:101A4000BF041092BE048091BD04811133CE8091F9
:101A5000BC04882309F42ECE64EF71E081EE94E09B
:101A60000E94F708882309F425CE81E08093BD0405
:101A70001092BC041FCE26E3E216F10408F41ACE3D
:101A8000863009F017CE809124028B3009F0BAC05D
:101A900044E050E061EE74E08AE192E00E9419199E
:101AA000892B09F007CED0902F02D2FE15C0E0910D
:101AB000EB04F091EC04309759F08091250230E06E
:101AC00020E050E040E063E08295869587700995BC
:101AD00085E08093E604EECD0E94BC038C018091EA
:101AE000E604823009F045C09D2D90718D2D8271E4
:101AF000823189F560E090E080E00E94F21188E197
:101B000080932F02E091E904F091EA0410E000E0F4
:101B1000309739F0809123028295869587700995D8
:101B20008C0183E08093E604C801889690931002AC
:101B3000809311020E942A04109232021092330202
:101B4000A801445E5F4F22E06AE182E30E94D7036E
:101B5000C801C69603C181E08093E604911106C0D6
:101B6000C801019664E00E94F211A4CD90E080E0EB
:101B7000F9CF8330A1F501151105A1F1E091EB0436
:101B8000F091EC04309771F180912E0290E024E006
:101B9000959587952A95E1F7880F991F880F991FCA
:101BA0008296A701485051098417950708F4AC01A3
:101BB000C801840F951F9701241B350BE816F90601
:101BC00008F098018091250260E0829586958770E3
:101BD000099569E0C8010E94F21186E07ACF85304C
:101BE00009F468CDD0FE07C0833009F463CD69E005
:101BF000C8010196F0CF0115110509F45BCD60E035
:101C0000C801B1CF811156CD80912502803509F0F0
:101C100051CDD0902F02D1FE39C0109210028CE22B
:101C2000809311020E94D30882E180932F0260E02A
:101C300081E090E00E94C7111092260210922702C4
:101C40008091200180932802109229028D5F809359
:101C5000200182E08093360284E08093370285E0A1
:101C6000809338021092390290E690932E0280936E
:101C7000300288E78093310222E040E250E06AE1DE
:101C800082E30E94D7038AE390E068C0D4FE12CDBD
:101C90000E94BC038C01892B99F000912E0210E068
:101CA00084E0159507958A95E1F7000F111F000F45
:101CB000111F0E5D1F4FE016F10608F0FDCCFACCA7
:101CC000D0FEF8CC60E090E080E00E94F211F4CC0D
:101CD00099E2E916F10409F4EDCC8111EBCC809185
:101CE0000E02853409F0E6CC44E050E067E075E090
:101CF0008EE192E00E941919892BA9F044E050E08E
:101D000061ED74E08EE192E00E941919892B59F07F
:101D100044E050E066E471E08EE192E00E9419191F
:101D2000892B09F0C7CC80911702813009F0A3CE2E
:101D300080912202883009F0BDCC0E94D308109215
:101D4000220280912402883F28F0909125029F5F13
:101D500090932502885F80932402C7010E94530557
:101D6000A9CC0F931F93CF93DF9389019091ED043A
:101D7000981781F0E091EE04F091EF0450E040E01C
:101D800070E060E084E0099580E0DF91CF911F91E1
:101D90000F9108956111F8CF2D303105A8F3C0914E
:101DA000EE04D091EF04209779F3BA01675F7D4F7D
:101DB00043E050E08AEA91E00E94361960912E02D9
:101DC00070E024E0759567952A95E1F7660F771F17
:101DD000660F771F6E5D7F4F21E0892B09F420E0AD
:101DE000A801822FFE01CFCFAF92BF92CF92DF9298
:101DF000EF92FF920F931F93CF93DF93CDB7DEB790
:101E0000ED84FE84CF84D8888E010F5E1F4FC601FB
:101E10000196F6012491222309F4D1C0243279F0ED
:101E2000D7011696ED91FC911797AF014F5F5F4F69
:101E300017965C934E93169720836C01E8CFB2E01F
:101E4000CB0ED11CFC018491863409F481C0A0F42E
:101E5000843409F44CC0853409F494C0D701169633
:101E6000ED91FC9117979F012F5F3F4F17963C9381
:101E70002E9316978083CBCFD70116964D915C9108
:101E80008C3409F44DC0833509F457C0883431F7D8
:101E9000B8016E5F7F4FF8019081292F092E000C49
:101EA000330B84E0359527958A95E1F72F709F7065
:101EB0009A300CF0995F905D2A300CF0295FFA019E
:101EC0003196D7011796FC93EE931697205DFA0191
:101ED00020831696ED91FC9117979F012F5F3F4F3E
:101EE00017963C932E93169790838B0190CF5801B1
:101EF000B2E0AB0EB11CF70166817781D8018D91FC
:101F00009C910E947F01F70186819781DC010D90F1
:101F10000020E9F7CD01019797838683850177CF6C
:101F20005801F4E0AF0EB11CD8016D917D918D91F7
:101F30009C912AE00E942E16E6CF5801B2E0AB0E2B
:101F4000B11CF80160817181CA010E942F19DBCF99
:101F5000F8010190F081E02D0E5F1F4F84913196C2
:101F6000882309F454CFD70116964D915C911797A9
:101F70009A012F5F3F4F17963C932E931697DA01E5
:101F80008C93ECCFF801808191810E5F1F4F5C0133
:101F9000BFEFAB1ABB0A0E946F16882309F437CF34
:101FA000D7011696ED91FC9117979F012F5F3F4F38
:101FB00017963C932E9316978083C501E8CFDF9147
:101FC000CF911F910F91FF90EF90DF90CF90BF9036
:101FD000AF9008950F931F93CF93DF93CDB7DEB7E4
:101FE00028970FB6F894DEBF0FBECDBF1C821B82B0
:101FF0002EE331E03A83298326E332E03E832D83CA
:1020000038872F839091ED0498132EC0A091F0048F
:10201000B091F1041091F4040091F5046091F8047A
:102020007091F9048091F2049091F304AE014F5F36
:102030005F4F109751F59F938F930F931F9380914C
:10204000F7048F938091F6048F937F936F938CEEB8
:1020500090E09F938F935F934F930E94F40E0FB67F
:10206000F894DEBF0FBECDBF8F8198852D813E8154
:10207000821B930B28960FB6F894DEBF0FBECDBF20
:10208000DF91CF911F910F910895FD0101900020E4
:10209000E9F73197EA1BFB0B2AE631E0009721F4C0
:1020A0002CE631E084E790E0BF93AF93FF93EF938A
:1020B0003F932F939F938F930F931F937F936F93D0
:1020C00085E790E09F938F935F934F930E94F40E68
:1020D000C6CF1F920F920FB60F9211242F933F93EA
:1020E0008F939F93AF93BF938091FB049091FC04D7
:1020F000A091FD04B091FE043091FA0423E0230F77
:102100002D3758F50196A11DB11D2093FA04809337
:10211000FB049093FC04A093FD04B093FE04809113
:10212000FF0490910005A0910105B0910205019670
:10213000A11DB11D8093FF0490930005A09301059C
:10214000B0930205BF91AF919F918F913F912F91D5
:102150000F900FBE0F901F90189526E8230F029640
:10216000A11DB11DD2CF1F920F920FB60F92112455
:102170002F933F934F935F936F937F938F939F938F
:10218000AF93BF93EF93FF938BE095E00E942D03F5
:10219000FF91EF91BF91AF919F918F917F916F913F
:1021A0005F914F913F912F910F900FBE0F901F9015
:1021B00018951F920F920FB60F9211242F938F93A1
:1021C0009F93EF93FF93E0911B05F0911C05808195
:1021D000E0912105F091220582FD1BC09081809144
:1021E00024058F5F8F7320912505821741F0E091C0
:1021F0002405F0E0E55FFA4F958F80932405FF9169
:10220000EF919F918F912F910F900FBE0F901F9084
:1022100018958081F4CF1F920F920FB60F92112460
:102220002F933F934F935F936F937F938F939F93DE
:10223000AF93BF93CF93DF93EF93FF938091C0044D
:10224000C091CC05D0E087FF24C010928500109289
:1022500084008091C0048F5F8093C0048091C0048B
:10226000082E000C990B8C179D0724F48091C00454
:102270008C30C4F180918400909185000496803464
:102280009C4908F47AC0809184009091850004965E
:1022900076C08091C004082E000C990B8C179D0706
:1022A000C4F6E091C0048E2FEE0F990BFC01EE0FE7
:1022B000FF1FE80FF91FE855FA4F808186FFC9CF4D
:1022C000E091C0048E2FEE0F990BFC01EE0FFF1F63
:1022D000E80FF91FE855FA4F808160E08F730E9484
:1022E0009C01B7CF2091840030918500E091C0041B
:1022F0008E2FEE0F990BFC01EE0FFF1FE80FF91F59
:10230000E855FA4F81819281820F931F9093890043
:1023100080938800E091C0048E2FEE0F990BFC0192
:10232000EE0FFF1FE80FF91FE855FA4F808186FF77
:1023300011C0E091C0048E2FEE0F990BFC01EE0F3F
:10234000FF1FE80FF91FE855FA4F808161E08F7396
:102350000E949C01FF91EF91DF91CF91BF91AF91CE
:102360009F918F917F916F915F914F913F912F91AD
:102370000F900FBE0F901F90189580E49CE99093EA
:102380008900809388008FEF8093C004E3CF209171
:1023900024023091220230932402209322022091C1
:1023A0002502309123023093250220932302E0E09E
:1023B000F2E021A5820F911D25A585A7662381F056
:1023C00021A7892F9927319721E0EC3FF20789F760
:1023D000109232021092330280E580932E0208950B
:1023E00011A6EFCF262F206120932F02643021F019
:1023F000009711F481E090E061E00E94C711109213
:10240000100288E2809311020E94D30884E0809336
:1024100030021092310222E04CE150E06AE182E3A6
:102420000E94D70386E390E00C945305CF9310925B
:102430000E0510920D0588EE93E0A0E0B0E08093C9
:102440000F0590931005A0931105B093120580E538
:1024500091E090930C0580930B0585EC90E09093B0
:1024600018058093170584EC90E090931A058093EB
:10247000190580EC90E090931C0580931B0581EC7E
:1024800090E090931E0580931D0582EC90E0909360
:10249000200580931F0586EC90E0909322058093A1
:1024A0002105109224051092250510922605109200
:1024B00027051092D9051092D80582E691E09093F5
:1024C000D7058093D60586E08093DA05CFEFC093D9
:1024D000DB0587E08093DC0585E08093DD0584E003
:1024E0008093DE0583E08093DF0582E08093E00542
:1024F0001092E1051092E2051092E3051092E405B6
:102500001092E50581E00E94CA066CE671E080ED5C
:1025100095E00E94C8078091CC058C30A0F491E032
:10252000980F9093CC058093CD0590E0FC01EE0FC1
:10253000FF1FE80FF91FE855FA4F88EB9BE09283E5
:102540008183CF910895C093CD05FBCFCF93DF93C7
:10255000CDB7DEB728970FB6F894DEBF0FBECDBF5C
:10256000789484B5826084BD84B5816084BD85B56E
:10257000826085BD85B5816085BD80916E0081607A
:1025800080936E0010928100809181008260809320
:102590008100809181008160809381008091800022
:1025A0008160809380008091B10084608093B1004D
:1025B0008091B00081608093B00080917A00846047
:1025C00080937A0080917A00826080937A00809173
:1025D0007A00816080937A0080917A00806880938D
:1025E0007A001092C100E0911B05F0911C0582E079
:1025F0008083E0911705F09118051082E09119058C
:10260000F0911A058FEC808310922305E0911F054D
:10261000F091200586E08083E0911D05F0911E0574
:10262000808180618083E0911D05F0911E0580818D
:1026300088608083E0911D05F0911E05808180688F
:102640008083E0911D05F0911E0580818F7D808340
:102650008091CD058C3008F051C061E089E00E9486
:10266000E8018091CD05282F30E0F901EE0FFF1F22
:10267000E20FF31FE855FA4F9081907C99609083A8
:102680001092CE051092CF052CE0622F0E941117F8
:10269000829FB001112430E020E0AB01420F531FB4
:1026A000FA01EE0FFF1FE40FF51FE855FA4F908176
:1026B00096FD16C02F5F3F4F2C30310571F7811109
:1026C0000FC01092800082E08093810010928500FC
:1026D00010928400B19A80916F00826080936F00A5
:1026E000E091CD058E2F90E0FC01EE0FFF1FE80F6B
:1026F000F91FE855FA4F80818064808390E080E084
:102700000E94FA0061E088E00E94E8018EEA91E010
:102710000E94850782E00E94CA0661EC71E086EDA6
:1027200095E00E9476071092DF0487E390E0C12CC9
:10273000D12C7601C3940097C1F0FC0163E0F595BC
:10274000E7956A95E1F7EC53FB4F282F2770B70107
:10275000A60104C0440F551F661F771F2A95D2F7A4
:102760002081242B20830197E6CF6EE271E08BEC71
:1027700094E00E94B8088CEB92E09093C30480939D
:10278000C2040CB406FC25C061E08AE00E94E801A6
:1027900061E08AE00E949C0161E08BE00E94E80118
:1027A00061E08DE00E94E80160E08CE00E94E801B9
:1027B00061E08BE00E949C0160E08BE00E949C0144
:1027C00060E08DE00E949C0180E58CBD8DB581604C
:1027D0008DBD8AE08093C10461E00E94E8010E94FF
:1027E00051044FEF60E08FEF0E94850462E070E0DB
:1027F00080E090E00E943E020E9458048DE10E9419
:102800004C0480E00E944C041EB50E945104112328
:1028100099F370E060E088E00E94C30470E060E03B
:102820008CE00E94C3046FEF7BE08AE00E94C30447
:1028300060E07CE084E00E94C3046FEF71E186E019
:102840000E94C30466E774E084E10E94B30561EB73
:1028500088E30E94B6046FE370E388E20E94C30439
:1028600069EF77EF80E30E94C30461E080EC0E948F
:10287000B60442E362EC80E80E94850462E17CE0F9
:1028800086EC0E94C30462E184EC0E94B6046CED05
:1028900075E08AEC0E94C3046091CB0484EE0E9430
:1028A000B6046091CC0485EE0E94B6046091CD041C
:1028B00082EE0E94B6046091CE0483EE0E94B604BC
:1028C0006091CF0480EE0E94B6046091D00481EE46
:1028D0000E94B60460E071E080E10E94B3058FE1E0
:1028E0000E949A0440EC6BE180E80E94850444E079
:1028F0006FE180E80E94850482E70E94D004109274
:10290000DF046AE271E087E095E00E94CB08109254
:10291000DA041092D90481E08093E00466E271E069
:1029200085ED94E00E94CB08E7E0F5E023E035E098
:1029300061ED74E04BE055E09191D9018D919D01DD
:102940008095892BDB018D93BD014E175F07A1F7A1
:1029500062E271E081EE94E00E94CB088091E00495
:1029600081FF63C04BE2242E41E0342E59E1452E15
:1029700051E0552E87E0C82E88E0D82E91EBA92E85
:102980009EE0B92E2AEE822E2FE0922E30E0632EAA
:1029900030E0732E0E94E8040E94690A8BE095E003
:1029A0000E940D03181619060CF00FC160E088E0B4
:1029B0000E949C011A8219821C821B821E821D8227
:1029C00070E060E0CE0101960E94A00729813A8163
:1029D000811130C02115310519F0C9010E94D317AA
:1029E0001A8219821E821D821C821B820E94CD02C5
:1029F00097FD28C08F8318860D811E810F5F1F4FA2
:102A0000B801CE0101960E94A007882379F329819D
:102A10003A818D819E81BE01695F7F4F820F931F36
:102A20000E942F191E830D83E1CF0E94E8040E94AB
:102A3000690A94CF1E821D826CE671E0C9010E9472
:102A40002F19D4CF8091D0059091D105009709F42A
:102A5000CAC069817A816115710509F4C2C04091CB
:102A6000D2055091D3052D813E814217530708F4BA
:102A7000B8C00E942F198D819E819093D5058093B7
:102A8000D4051E821D82CE0101960E94980781E026
:102A90000E94C4068BE39FE10197F1F7E1E080918A
:102AA000E9058111E0E0E195F0E0EA52FA4F84890E
:102AB00080680E94C4061A8219821C821B821E82B0
:102AC0001D8266E070E0CE0101960E94A007298178
:102AD0003A8181119FC02115310519F0C9010E9469
:102AE000D3171A8219821E821D821C821B82E090DB
:102AF000D005F090D105E114F10409F495C00091DE
:102B0000D4051091D50501151105B9F08D819E816F
:102B1000080F191FB801CE0101960E94A007882353
:102B200009F482C029813A818D819E81B701820F8B
:102B3000931F0E942F191E830D834D815E81698131
:102B40007A8186ED95E00E947D026AE671E086ED6D
:102B500095E00E947607CE0101960E949807809129
:102B6000D0059091D10529E331E03093F904209309
:102B7000F8049093F7048093F6043092F5042092C1
:102B8000F4045092F3044092F2041092F104109273
:102B9000F004D092EF04C092EE04B092EC04A09244
:102BA000EB049092EA048092E9041092E80430E584
:102BB0003093E70481E08093E6048091E5048F5F21
:102BC00087708093E5048093ED046114710409F427
:102BD000E1CE0E941903882309F4CCCE0E940000A4
:102BE000C9CE0E94D31789819A819093D105809391
:102BF000D0058B819C819093D3058093D2058D81E4
:102C00009E819093D5058093D4051A8219821C82E7
:102C10001B8237CF86E090E09E838D8360ED71E06C
:102C2000C9010E942F1963CF89819A81009711F001
:102C30000E94D3171A8219821E821D821C821B8257
:102C40007CCF80ED95E00C949807FB01DC0102C07D
:102C500005900D9241505040D8F70895BB272A3077
:102C600051F4992342F4BDE2909580957095619559
:102C70007F4F8F4F9F4F0C943E16BB27FA01A62F14
:102C80006217710581059105330B30FB66F0AA27A9
:102C9000660F771F881F991FAA1FA21710F0A21B8B
:102CA00063953850A9F7A05DAA3308F0A95DA193F8
:102CB00036F7B111B1931082CA010C945F16DC0192
:102CC000FC01672F71917723E1F7329704C07C9163
:102CD0006D9370836291AE17BF07C8F30895F99999
:102CE000FECF92BD81BDF89A992780B50895052E33
:102CF00097FB1EF400940E948E1657FD07D00E9489
:102D0000E01607FC03D04EF40C948E1650954095B7
:102D1000309521953F4F4F4F5F4F08959095809587
:102D2000709561957F4F8F4F9F4F08950E940217B6
:102D3000A59F900DB49F900DA49F800D911D11240F
:102D40000895B7FF0C9496160E949616821B930B5B
:102D500008952F923F924F925F926F927F928F923F
:102D60009F92AF92BF92CF92DF92EF92FF920F931A
:102D70001F93CF93DF93CDB7DEB7CA1BDB0B0FB624
:102D8000F894DEBF0FBECDBF09942A8839884888E1
:102D90005F846E847D848C849B84AA84B984C88477
:102DA000DF80EE80FD800C811B81AA81B981CE0F6E
:102DB000D11D0FB6F894DEBF0FBECDBFED01089553
:102DC000A1E21A2EAA1BBB1BFD010DC0AA1FBB1F2F
:102DD000EE1FFF1FA217B307E407F50720F0A21BA1
:102DE000B30BE40BF50B661F771F881F991F1A940E
:102DF00069F760957095809590959B01AC01BD0138
:102E0000CF010895A29FB001B39FC001A39F700D91
:102E1000811D1124911DB29F700D811D1124911DE2
:102E20000895991B79E004C0991F961708F0961B26
:102E3000881F7A95C9F780950895AA1BBB1B51E19D
:102E400007C0AA1FBB1FA617B70710F0A61BB70B1A
:102E5000881F991F5A95A9F780959095BC01CD01BF
:102E60000895EE0FFF1F0590F491E02D09940F9344
:102E70001F93CF93DF938230910510F482E090E0AE
:102E8000E091F005F091F10530E020E0B0E0A0E045
:102E9000309799F42115310509F44AC0281B390BE4
:102EA00024303105D8F58A819B816115710589F13E
:102EB000FB0193838283FE0111C040815181028115
:102EC000138148175907E0F04817590799F41097EC
:102ED00061F012960C93129713961C933296CF01C1
:102EE000DF91CF911F910F9108950093F0051093FA
:102EF000F105F4CF2115310551F04217530738F091
:102F0000A901DB019A01BD01DF01F801C1CFEF0189
:102F1000F9CF9093F1058093F005CDCFFE01E20F3C
:102F2000F31F819391932250310939832883D7CF9E
:102F30002091EE053091EF05232B41F420913601CD
:102F4000309137013093EF052093EE052091340145
:102F5000309135012115310541F42DB73EB740912F
:102F6000380150913901241B350BE091EE05F091A9
:102F7000EF05E217F307A0F42E1B3F0B28173907C4
:102F800078F0AC014E5F5F4F2417350748F04E0FC5
:102F90005F1F5093EF054093EE05819391939FCF70
:102FA000F0E0E0E09CCFCF93DF930097E9F0FC01E5
:102FB000329713821282A091F005B091F105ED01D4
:102FC00030E020E01097A1F420813181820F931F1F
:102FD0002091EE053091EF052817390709F061C0FF
:102FE000F093EF05E093EE05DF91CF910895EA01AC
:102FF000CE17DF07E8F54A815B819E014115510537
:10300000B1F7E901FB83EA8349915991C40FD51FB8
:10301000EC17FD0761F4808191810296840F951F62
:10302000E90199838883828193819B838A83F0E07D
:10303000E0E012968D919C9113970097B9F52D9130
:103040003C911197CD010296820F931F2091EE05BE
:103050003091EF052817390739F6309751F510925E
:10306000F1051092F005B093EF05A093EE05BCCFEB
:10307000D383C28340815181840F951FC817D9071C
:1030800061F44E5F5F4F88819981480F591F5183CA
:1030900040838A819B81938382832115310509F0C6
:1030A000B0CFF093F105E093F0059ECFFD01DC0178
:1030B000C0CF13821282D7CFB0E0A0E0E2E6F8E101
:1030C0000C94AB168C01009751F4CB010E9437177A
:1030D0008C01C801CDB7DEB7E0E10C94C716FC0146
:1030E000E60FF71F9C0122503109E217F30708F49D
:1030F0009DC0D901CD91DC911197C617D70798F0E3
:10310000C530D10530F3CE0104978617970708F331
:10311000C61BD70B2297C193D1936D937C93CF019C
:103120000E94D317D6CF5B01AC1ABD0A4C018C0E9E
:103130009D1EA091F005B091F105512C412CF12C70
:10314000E12C109731F58091EE059091EF058815EF
:10315000990509F05CC04616570608F058C08091E2
:10316000340190913501009741F48DB79EB740919D
:10317000380150913901841B950BE817F90708F0C5
:1031800055C0F093EF05E093EE05F901718360837C
:10319000A0CF8D919C91119712966C9012971396D7
:1031A0007C901397A815B90559F56C0142E0C40E3F
:1031B000D11CCA14DB0420F1AC014A195B09DA0105
:1031C0001296159780F06282738251834083D901F1
:1031D0006D937C93E114F10471F0D7011396FC9385
:1031E000EE93129776CF22968C0F9D1FF901918353
:1031F0008083F301EFCFF093F105E093F00569CF01
:103200004816590608F42C017D01D3019ACFCB0151
:103210000E9437177C01009749F0AE01B8010E9467
:103220002619C8010E94D317870153CF10E000E090
:1032300050CFFB01DC0104C08D910190801921F475
:1032400041505040C8F7881B990B0895FB01DC01E1
:1032500002C001900D9241505040D8F70895FB01F3
:10326000DC0101900D920020E1F70895FB01DC01E3
:103270004150504030F08D910190801919F4002098
:10328000B9F7881B990B089510E0CFECD0E004C08B
:10329000FE010E9431172196C03DD107C9F7F8946D
:0232A000FFCF5E
:1032A20041726475696E6F2D454E4332386A36300D
:1032B2002D3030000000000000000000000000007F
:1032C2000A01A9FE5829A9FE5829A9FE582A74699B
:1032D200692D30310000F205800000000000390441
:1032E2007D0249047C02FFFFFFFFFFFF0000000098
:1032F2004F037D02AA029C030D03B902FF020000E4
:10330200000070077D0249047C020D0A0056616CC0
:103312006964205441472C204163636573732041E3
:103322006C6C6F776564210054696D653A200049C1
:103332006E76616C6964205441472C204163636559
:1033420073732044656E69656400323030005363E4
:10335200616E20796F75722052466964205441472C
:10336200005363616E20796F757220524669640062
:08337200524649443A200000D4
:00000001FF
